{
  "contractName": "Auction",
  "abi": [
    {
      "anonymous": false,
      "inputs": [
        {
          "indexed": false,
          "internalType": "uint256",
          "name": "product",
          "type": "uint256"
        },
        {
          "indexed": false,
          "internalType": "uint256",
          "name": "price",
          "type": "uint256"
        },
        {
          "indexed": false,
          "internalType": "address",
          "name": "bidder",
          "type": "address"
        },
        {
          "indexed": false,
          "internalType": "address",
          "name": "seller",
          "type": "address"
        }
      ],
      "name": "AuctionEnded",
      "type": "event"
    },
    {
      "anonymous": false,
      "inputs": [
        {
          "indexed": false,
          "internalType": "uint256",
          "name": "product",
          "type": "uint256"
        },
        {
          "indexed": false,
          "internalType": "uint256",
          "name": "openTime",
          "type": "uint256"
        },
        {
          "indexed": false,
          "internalType": "uint256",
          "name": "closeTime",
          "type": "uint256"
        },
        {
          "indexed": false,
          "internalType": "uint256",
          "name": "startPrice",
          "type": "uint256"
        },
        {
          "indexed": false,
          "internalType": "address",
          "name": "seller",
          "type": "address"
        }
      ],
      "name": "AuctionStarted",
      "type": "event"
    },
    {
      "anonymous": false,
      "inputs": [
        {
          "indexed": false,
          "internalType": "uint256",
          "name": "product",
          "type": "uint256"
        },
        {
          "indexed": false,
          "internalType": "uint256",
          "name": "price",
          "type": "uint256"
        },
        {
          "indexed": false,
          "internalType": "address",
          "name": "bidder",
          "type": "address"
        },
        {
          "indexed": false,
          "internalType": "address",
          "name": "seller",
          "type": "address"
        }
      ],
      "name": "BidRefunded",
      "type": "event"
    },
    {
      "anonymous": false,
      "inputs": [
        {
          "indexed": false,
          "internalType": "uint256",
          "name": "product",
          "type": "uint256"
        },
        {
          "indexed": false,
          "internalType": "uint256",
          "name": "price",
          "type": "uint256"
        },
        {
          "indexed": false,
          "internalType": "address",
          "name": "bidder",
          "type": "address"
        }
      ],
      "name": "Bidded",
      "type": "event"
    },
    {
      "inputs": [
        {
          "internalType": "address",
          "name": "user",
          "type": "address"
        },
        {
          "internalType": "address",
          "name": "store",
          "type": "address"
        }
      ],
      "name": "initialize",
      "outputs": [],
      "stateMutability": "nonpayable",
      "type": "function"
    },
    {
      "inputs": [
        {
          "internalType": "uint256",
          "name": "openTime",
          "type": "uint256"
        },
        {
          "internalType": "uint256",
          "name": "closeTime",
          "type": "uint256"
        },
        {
          "internalType": "uint256",
          "name": "product",
          "type": "uint256"
        },
        {
          "internalType": "uint256",
          "name": "startPrice",
          "type": "uint256"
        }
      ],
      "name": "start",
      "outputs": [],
      "stateMutability": "nonpayable",
      "type": "function"
    },
    {
      "inputs": [
        {
          "internalType": "uint256",
          "name": "product",
          "type": "uint256"
        }
      ],
      "name": "getAuction",
      "outputs": [
        {
          "internalType": "uint256",
          "name": "",
          "type": "uint256"
        },
        {
          "internalType": "uint256",
          "name": "",
          "type": "uint256"
        },
        {
          "internalType": "uint256",
          "name": "",
          "type": "uint256"
        },
        {
          "internalType": "uint256",
          "name": "",
          "type": "uint256"
        }
      ],
      "stateMutability": "view",
      "type": "function",
      "constant": true
    },
    {
      "inputs": [
        {
          "internalType": "uint256",
          "name": "product",
          "type": "uint256"
        }
      ],
      "name": "bid",
      "outputs": [],
      "stateMutability": "payable",
      "type": "function",
      "payable": true
    },
    {
      "inputs": [
        {
          "internalType": "uint256",
          "name": "product",
          "type": "uint256"
        }
      ],
      "name": "getBidCount",
      "outputs": [
        {
          "internalType": "uint256",
          "name": "",
          "type": "uint256"
        }
      ],
      "stateMutability": "view",
      "type": "function",
      "constant": true
    },
    {
      "inputs": [
        {
          "internalType": "uint256",
          "name": "product",
          "type": "uint256"
        },
        {
          "internalType": "uint256",
          "name": "index",
          "type": "uint256"
        }
      ],
      "name": "getBid",
      "outputs": [
        {
          "internalType": "address",
          "name": "",
          "type": "address"
        },
        {
          "internalType": "uint256",
          "name": "",
          "type": "uint256"
        }
      ],
      "stateMutability": "view",
      "type": "function",
      "constant": true
    },
    {
      "inputs": [
        {
          "internalType": "uint256",
          "name": "product",
          "type": "uint256"
        }
      ],
      "name": "end",
      "outputs": [],
      "stateMutability": "nonpayable",
      "type": "function"
    },
    {
      "inputs": [
        {
          "internalType": "uint256",
          "name": "product",
          "type": "uint256"
        }
      ],
      "name": "hasAuction",
      "outputs": [
        {
          "internalType": "bool",
          "name": "",
          "type": "bool"
        }
      ],
      "stateMutability": "view",
      "type": "function",
      "constant": true
    },
    {
      "inputs": [
        {
          "internalType": "uint256",
          "name": "product",
          "type": "uint256"
        }
      ],
      "name": "isOpen",
      "outputs": [
        {
          "internalType": "bool",
          "name": "",
          "type": "bool"
        }
      ],
      "stateMutability": "view",
      "type": "function",
      "constant": true
    },
    {
      "inputs": [
        {
          "internalType": "uint256",
          "name": "product",
          "type": "uint256"
        }
      ],
      "name": "hasClosed",
      "outputs": [
        {
          "internalType": "bool",
          "name": "",
          "type": "bool"
        }
      ],
      "stateMutability": "view",
      "type": "function",
      "constant": true
    },
    {
      "inputs": [
        {
          "internalType": "uint256",
          "name": "product",
          "type": "uint256"
        }
      ],
      "name": "hasBidded",
      "outputs": [
        {
          "internalType": "bool",
          "name": "",
          "type": "bool"
        }
      ],
      "stateMutability": "view",
      "type": "function",
      "constant": true
    }
  ],
  "bytecode": "0x608060405234801561001057600080fd5b50611bac806100206000396000f3fe60806040526004361061009c5760003560e01c8063582c7ffd11610064578063582c7ffd1461021d578063707a4e9614610293578063744d3411146102ec57806378bd79351461033b578063e817093c1461039f578063f1462921146103f05761009c565b80630ad24528146100a1578063375952fd146100dc578063454a2ab31461012d578063485cc9551461015b5780634d6861a6146101cc575b600080fd5b3480156100ad57600080fd5b506100da600480360360208110156100c457600080fd5b8101908080359060200190929190505050610441565b005b3480156100e857600080fd5b50610115600480360360208110156100ff57600080fd5b8101908080359060200190929190505050610739565b60405180821515815260200191505060405180910390f35b6101596004803603602081101561014357600080fd5b8101908080359060200190929190505050610773565b005b34801561016757600080fd5b506101ca6004803603604081101561017e57600080fd5b81019080803573ffffffffffffffffffffffffffffffffffffffff169060200190929190803573ffffffffffffffffffffffffffffffffffffffff16906020019092919050505061097a565b005b3480156101d857600080fd5b50610205600480360360208110156101ef57600080fd5b8101908080359060200190929190505050610bec565b60405180821515815260200191505060405180910390f35b34801561022957600080fd5b506102606004803603604081101561024057600080fd5b810190808035906020019092919080359060200190929190505050610c37565b604051808373ffffffffffffffffffffffffffffffffffffffff1681526020018281526020019250505060405180910390f35b34801561029f57600080fd5b506102ea600480360360808110156102b657600080fd5b8101908080359060200190929190803590602001909291908035906020019092919080359060200190929190505050610c6a565b005b3480156102f857600080fd5b506103256004803603602081101561030f57600080fd5b8101908080359060200190929190505050610fcb565b6040518082815260200191505060405180910390f35b34801561034757600080fd5b506103746004803603602081101561035e57600080fd5b8101908080359060200190929190505050610fef565b6040518085815260200184815260200183815260200182815260200194505050505060405180910390f35b3480156103ab57600080fd5b506103d8600480360360208110156103c257600080fd5b810190808035906020019092919050505061102c565b60405180821515815260200191505060405180910390f35b3480156103fc57600080fd5b506104296004803603602081101561041357600080fd5b8101908080359060200190929190505050611061565b60405180821515815260200191505060405180910390f35b603360009054906101000a900473ffffffffffffffffffffffffffffffffffffffff1673ffffffffffffffffffffffffffffffffffffffff1663ee95feaf610487611084565b6040518263ffffffff1660e01b8152600401808273ffffffffffffffffffffffffffffffffffffffff16815260200191505060206040518083038186803b1580156104d157600080fd5b505afa1580156104e5573d6000803e3d6000fd5b505050506040513d60208110156104fb57600080fd5b810190808051906020019092919050505061057e576040517f08c379a000000000000000000000000000000000000000000000000000000000815260040180806020018281038252601e8152602001807f41756374696f6e3a2061646472657373206973206e6f742073656c6c6572000081525060200191505060405180910390fd5b61058781610739565b6105f9576040517f08c379a00000000000000000000000000000000000000000000000000000000081526004018080602001828103825260148152602001807f41756374696f6e3a20696e2070726f677265737300000000000000000000000081525060200191505060405180910390fd5b6000806106058361108c565b91509150603460009054906101000a900473ffffffffffffffffffffffffffffffffffffffff1673ffffffffffffffffffffffffffffffffffffffff1663574cdded82856001856040518563ffffffff1660e01b81526004018084815260200183815260200182815260200193505050506000604051808303818588803b15801561068f57600080fd5b505af11580156106a3573d6000803e3d6000fd5b50505050506106b283836110f4565b7f2b330368bfa9de1af4b345ea8ddbc558e9e085d5f9c94f0084e92aac7c5cf2738382846106de611084565b604051808581526020018481526020018373ffffffffffffffffffffffffffffffffffffffff1681526020018273ffffffffffffffffffffffffffffffffffffffff16815260200194505050505060405180910390a1505050565b600061074482611061565b61074d57600080fd5b600060356000848152602001908152602001600020905080600101544211915050919050565b61077c81610bec565b6107ee576040517f08c379a00000000000000000000000000000000000000000000000000000000081526004018080602001828103825260128152602001807f41756374696f6e3a2068617320656e646564000000000000000000000000000081525060200191505060405180910390fd5b6107f78161102c565b1561086a576040517f08c379a00000000000000000000000000000000000000000000000000000000081526004018080602001828103825260188152602001807f41756374696f6e3a20757365722068617320626964646564000000000000000081525060200191505060405180910390fd5b60356000828152602001908152602001600020600201543410156108d9576040517f08c379a0000000000000000000000000000000000000000000000000000000008152600401808060200182810382526025815260200180611b526025913960400191505060405180910390fd5b600034905061090c6108e9611084565b82603660008681526020019081526020016000206111fe9092919063ffffffff16565b15610976577fdeff91b67870988bb19a87f3afc9551711246812cfc9035c1a6606e7fe2f495f828261093c611084565b604051808481526020018381526020018273ffffffffffffffffffffffffffffffffffffffff168152602001935050505060405180910390a15b5050565b600060019054906101000a900460ff16806109995750610998611233565b5b806109af575060008054906101000a900460ff16155b610a04576040517f08c379a000000000000000000000000000000000000000000000000000000000815260040180806020018281038252602e815260200180611b02602e913960400191505060405180910390fd5b60008060019054906101000a900460ff161590508015610a54576001600060016101000a81548160ff02191690831515021790555060016000806101000a81548160ff0219169083151502179055505b610a738373ffffffffffffffffffffffffffffffffffffffff1661124a565b610ac8576040517f08c379a0000000000000000000000000000000000000000000000000000000008152600401808060200182810382526025815260200180611a796025913960400191505060405180910390fd5b610ae78273ffffffffffffffffffffffffffffffffffffffff1661124a565b610b3c576040517f08c379a0000000000000000000000000000000000000000000000000000000008152600401808060200182810382526028815260200180611a516028913960400191505060405180910390fd5b610b4461125d565b82603360006101000a81548173ffffffffffffffffffffffffffffffffffffffff021916908373ffffffffffffffffffffffffffffffffffffffff16021790555081603460006101000a81548173ffffffffffffffffffffffffffffffffffffffff021916908373ffffffffffffffffffffffffffffffffffffffff1602179055508015610be75760008060016101000a81548160ff0219169083151502179055505b505050565b6000610bf782611061565b610c0057600080fd5b600060356000848152602001908152602001600020905080600001544210158015610c2f575080600101544211155b915050919050565b600080610c5f836036600087815260200190815260200160002061136390919063ffffffff16565b915091509250929050565b603360009054906101000a900473ffffffffffffffffffffffffffffffffffffffff1673ffffffffffffffffffffffffffffffffffffffff1663ee95feaf610cb0611084565b6040518263ffffffff1660e01b8152600401808273ffffffffffffffffffffffffffffffffffffffff16815260200191505060206040518083038186803b158015610cfa57600080fd5b505afa158015610d0e573d6000803e3d6000fd5b505050506040513d6020811015610d2457600080fd5b8101908080519060200190929190505050610da7576040517f08c379a000000000000000000000000000000000000000000000000000000000815260040180806020018281038252601e8152602001807f41756374696f6e3a2061646472657373206973206e6f742073656c6c6572000081525060200191505060405180910390fd5b42841015610e1d576040517f08c379a00000000000000000000000000000000000000000000000000000000081526004018080602001828103825260208152602001807f41756374696f6e3a206f70656e2074696d65206e6f7420696e2066757475726581525060200191505060405180910390fd5b838311610e75576040517f08c379a000000000000000000000000000000000000000000000000000000000815260040180806020018281038252602a815260200180611a9e602a913960400191505060405180910390fd5b610e7e82611061565b1580610e905750610e8e82610bec565b155b610f02576040517f08c379a000000000000000000000000000000000000000000000000000000000815260040180806020018281038252601b8152602001807f41756374696f6e3a2070726f6475637420696e2061756374696f6e000000000081525060200191505060405180910390fd5b604051806060016040528085815260200184815260200182815250603560008481526020019081526020016000206000820151816000015560208201518160010155604082015181600201559050507f50dec2db9a99c7053b7b8cad8eba8937fc6668d428ffadd1cd7bac77982bd36582858584610f7e611084565b604051808681526020018581526020018481526020018381526020018273ffffffffffffffffffffffffffffffffffffffff1681526020019550505050505060405180910390a150505050565b6000610fe86036600084815260200190815260200160002061138f565b9050919050565b6000806000806000603560008781526020019081526020016000209050806000015481600101548260020154889450945094509450509193509193565b600061105a611039611084565b603660008581526020019081526020016000206113a490919063ffffffff16565b9050919050565b600080603560008481526020019081526020016000206000015414159050919050565b600033905090565b60008060008060005b6110b06036600088815260200190815260200160002061138f565b8110156110e6576000806110c48884610c37565b91509150838111156110d7578194508093505b50508080600101915050611095565b508181935093505050915091565b60005b6111126036600085815260200190815260200160002061138f565b81101561119e576000806111268584610c37565b9150915061114f82603660008881526020019081526020016000206113d490919063ffffffff16565b508373ffffffffffffffffffffffffffffffffffffffff168273ffffffffffffffffffffffffffffffffffffffff161461118f5761118e858383611404565b5b505080806001019150506110f7565b50603660008381526020019081526020016000206000808201600080820160006111c89190611a05565b50505050603560008381526020019081526020016000206000808201600090556001820160009055600282016000905550505050565b600061122a846000018473ffffffffffffffffffffffffffffffffffffffff1660001b8460001b61150b565b90509392505050565b6000803090506000813b9050600081149250505090565b600080823b905060008111915050919050565b600060019054906101000a900460ff168061127c575061127b611233565b5b80611292575060008054906101000a900460ff16155b6112e7576040517f08c379a000000000000000000000000000000000000000000000000000000000815260040180806020018281038252602e815260200180611b02602e913960400191505060405180910390fd5b60008060019054906101000a900460ff161590508015611337576001600060016101000a81548160ff02191690831515021790555060016000806101000a81548160ff0219169083151502179055505b61133f6115e7565b80156113605760008060016101000a81548160ff0219169083151502179055505b50565b60008060008061137686600001866116e5565b915091508160001c8160001c9350935050509250929050565b600061139d8260000161177e565b9050919050565b60006113cc836000018373ffffffffffffffffffffffffffffffffffffffff1660001b61178f565b905092915050565b60006113fc836000018373ffffffffffffffffffffffffffffffffffffffff1660001b6117b2565b905092915050565b8047101561147a576040517f08c379a000000000000000000000000000000000000000000000000000000000815260040180806020018281038252601d8152602001807f41756374696f6e3a20696e73756666696369656e742062616c616e636500000081525060200191505060405180910390fd5b61148482826118cb565b7fb20b10aab15c8ea6d88bbf9405dbf7de131937d7c1de41a8cd2a3d98f28205ae8382846114b0611084565b604051808581526020018481526020018373ffffffffffffffffffffffffffffffffffffffff1681526020018273ffffffffffffffffffffffffffffffffffffffff16815260200194505050505060405180910390a1505050565b60008084600101600085815260200190815260200160002054905060008114156115b2578460000160405180604001604052808681526020018581525090806001815401808255809150506001900390600052602060002090600202016000909190919091506000820151816000015560208201518160010155505084600001805490508560010160008681526020019081526020016000208190555060019150506115e0565b828560000160018303815481106115c557fe5b90600052602060002090600202016001018190555060009150505b9392505050565b600060019054906101000a900460ff16806116065750611605611233565b5b8061161c575060008054906101000a900460ff16155b611671576040517f08c379a000000000000000000000000000000000000000000000000000000000815260040180806020018281038252602e815260200180611b02602e913960400191505060405180910390fd5b60008060019054906101000a900460ff1615905080156116c1576001600060016101000a81548160ff02191690831515021790555060016000806101000a81548160ff0219169083151502179055505b80156116e25760008060016101000a81548160ff0219169083151502179055505b50565b60008082846000018054905011611747576040517f08c379a0000000000000000000000000000000000000000000000000000000008152600401808060200182810382526022815260200180611b306022913960400191505060405180910390fd5b600084600001848154811061175857fe5b906000526020600020906002020190508060000154816001015492509250509250929050565b600081600001805490509050919050565b600080836001016000848152602001908152602001600020541415905092915050565b600080836001016000848152602001908152602001600020549050600081146118bf57600060018203905060006001866000018054905003905060008660000182815481106117fd57fe5b906000526020600020906002020190508087600001848154811061181d57fe5b906000526020600020906002020160008201548160000155600182015481600101559050506001830187600101600083600001548152602001908152602001600020819055508660000180548061187057fe5b60019003818190600052602060002090600202016000808201600090556001820160009055505090558660010160008781526020019081526020016000206000905560019450505050506118c5565b60009150505b92915050565b80471015611941576040517f08c379a000000000000000000000000000000000000000000000000000000000815260040180806020018281038252601d8152602001807f416464726573733a20696e73756666696369656e742062616c616e636500000081525060200191505060405180910390fd5b60008273ffffffffffffffffffffffffffffffffffffffff168260405180600001905060006040518083038185875af1925050503d80600081146119a1576040519150601f19603f3d011682016040523d82523d6000602084013e6119a6565b606091505b5050905080611a00576040517f08c379a000000000000000000000000000000000000000000000000000000000815260040180806020018281038252603a815260200180611ac8603a913960400191505060405180910390fd5b505050565b5080546000825560020290600052602060002090810190611a269190611a29565b50565b5b80821115611a4c57600080820160009055600182016000905550600201611a2a565b509056fe41756374696f6e3a207061796d656e742061646472657373206973206e6f7420636f6e747261637441756374696f6e3a20757365722061646472657373206973206e6f7420636f6e747261637441756374696f6e3a20636c6f73652074696d65206561726c696572207468616e206f70656e2074696d65416464726573733a20756e61626c6520746f2073656e642076616c75652c20726563697069656e74206d61792068617665207265766572746564496e697469616c697a61626c653a20636f6e747261637420697320616c726561647920696e697469616c697a6564456e756d657261626c654d61703a20696e646578206f7574206f6620626f756e647341756374696f6e3a207072696365206c6f776572207468616e207374617274207072696365a26469706673582212203466908b5b0677f3985578e2e5ccc7cbfb184e32aed291cf1f3eb11101aa7e0f64736f6c634300060c0033",
  "immutableReferences": {},
  "source": "// SPDX-License-Identifier: MIT\npragma solidity ^0.6.0;\n\nimport \"@openzeppelin/contracts-upgradeable/proxy/Initializable.sol\";\nimport \"@openzeppelin/contracts-upgradeable/GSN/ContextUpgradeable.sol\";\nimport \"@openzeppelin/contracts-upgradeable/math/SafeMathUpgradeable.sol\";\nimport \"@openzeppelin/contracts-upgradeable/utils/AddressUpgradeable.sol\";\nimport \"@openzeppelin/contracts-upgradeable/utils/CountersUpgradeable.sol\";\nimport \"../library/MyEnumerableMap.sol\";\nimport \"./User.sol\";\nimport \"./Store.sol\";\n\n/**\n * @title MarketPlace Auction\n * @author Susanto Wu\n * @dev Keep track of product in auction, auction bids. Provides timing functionality.\n */\ncontract Auction is Initializable, ContextUpgradeable {\n    using SafeMathUpgradeable for uint256;\n    using AddressUpgradeable for address;\n    using CountersUpgradeable for CountersUpgradeable.Counter;\n    using MyEnumerableMap for MyEnumerableMap.AddressToUintMap;\n\n    /**\n     * @dev Required contracts.\n     */\n    User private _user;\n    Store private _store;\n\n    struct AuctionDetails {\n        uint256 openTime;\n        uint256 closeTime;\n        uint256 startPrice;\n    }\n\n    /**\n     * @dev Product to Auction map\n     */\n    mapping(uint256 => AuctionDetails) private _auctions;\n\n    /**\n     * @dev Product Id to bids<address, price> map\n     */\n    mapping(uint256 => MyEnumerableMap.AddressToUintMap) private _productBids;\n\n    /* Events */\n    event AuctionStarted(\n        uint256 product,\n        uint256 openTime,\n        uint256 closeTime,\n        uint256 startPrice,\n        address seller\n    );\n    event AuctionEnded(\n        uint256 product,\n        uint256 price,\n        address bidder,\n        address seller\n    );\n    event Bidded(uint256 product, uint256 price, address bidder);\n    event BidRefunded(\n        uint256 product,\n        uint256 price,\n        address bidder,\n        address seller\n    );\n\n    /**\n     * @dev Throw if address not seller.\n     */\n    modifier onlySeller() {\n        require(_user.isSeller(_msgSender()), \"Auction: address is not seller\");\n        _;\n    }\n\n    /**\n     * @dev Initialize parent constructor.\n     */\n    function initialize(address user, address store) public initializer {\n        require(user.isContract(), \"Auction: user address is not contract\");\n        require(store.isContract(), \"Auction: payment address is not contract\");\n\n        __Context_init();\n\n        _user = User(user);\n        _store = Store(store);\n    }\n\n    /**\n     * @dev Create new Auction object and map to product.\n     * Validate time arguments as future time and product is not in auction.\n     * @param openTime auction start time\n     * @param closeTime auction end time\n     * @param product product identifier\n     * @param startPrice starting auction price\n     */\n    function start(\n        uint256 openTime,\n        uint256 closeTime,\n        uint256 product,\n        uint256 startPrice\n    ) public onlySeller {\n        require(\n            openTime >= block.timestamp,\n            \"Auction: open time not in future\"\n        );\n        require(\n            closeTime > openTime,\n            \"Auction: close time earlier than open time\"\n        );\n        require(\n            !hasAuction(product) || !isOpen(product),\n            \"Auction: product in auction\"\n        );\n\n        _auctions[product] = AuctionDetails({\n            openTime: openTime,\n            closeTime: closeTime,\n            startPrice: startPrice\n        });\n        emit AuctionStarted(\n            product,\n            openTime,\n            closeTime,\n            startPrice,\n            _msgSender()\n        );\n    }\n\n    /**\n     * @param product product identifier\n     * @return auction start time\n     * @return auction end time\n     * @return auction start price\n     * @return auction product id\n     */\n    function getAuction(uint256 product)\n        public\n        view\n        returns (\n            uint256,\n            uint256,\n            uint256,\n            uint256\n        )\n    {\n        AuctionDetails storage auction = _auctions[product];\n        return (\n            auction.openTime,\n            auction.closeTime,\n            auction.startPrice,\n            product\n        );\n    }\n\n    /**\n     * @dev Add sender bid, increase counter.\n     * @param product product identifier\n     */\n    function bid(uint256 product) public payable {\n        require(isOpen(product), \"Auction: has ended\");\n        require(!hasBidded(product), \"Auction: user has bidded\");\n        require(\n            msg.value >= _auctions[product].startPrice,\n            \"Auction: price lower than start price\"\n        );\n\n        uint256 price = msg.value;\n\n        if (_productBids[product].set(_msgSender(), price)) {\n            emit Bidded(product, price, _msgSender());\n        }\n    }\n\n    /**\n     * @param product product identifier\n     * @return bids map length\n     */\n    function getBidCount(uint256 product) public view returns (uint256) {\n        return _productBids[product].length();\n    }\n\n    /**\n     * @param product product identifier\n     * @param index bid map element index\n     * @return bid address\n     * @return bid amount\n     */\n    function getBid(uint256 product, uint256 index)\n        public\n        view\n        returns (address, uint256)\n    {\n        return _productBids[product].at(index);\n    }\n\n    /**\n     * @dev get highest bid and clean up product from auction.\n     * @param product product identifier\n     */\n    function end(uint256 product) public onlySeller {\n        require(hasClosed(product), \"Auction: in progress\");\n\n        (address bidder, uint256 price) = getHighestBid(product);\n\n        // Push the highest bid to store payment.\n        _store.settle{value: price}(product, 1, price);\n\n        clear(product, bidder);\n\n        emit AuctionEnded(product, price, bidder, _msgSender());\n    }\n\n    /**\n     * @dev clean up all the mappings\n     * @param product product identifier\n     * @param account highest bidder\n     */\n    function clear(uint256 product, address account) private {\n        // Clean up bids\n        for (uint256 i = 0; i < _productBids[product].length(); i++) {\n            (address bidder, uint256 price) = getBid(product, i);\n\n            _productBids[product].remove(bidder);\n\n            // Only refund if not highest bidder\n            if (bidder != account) {\n                refund(product, bidder, price);\n            }\n        }\n\n        delete (_productBids[product]);\n\n        delete (_auctions[product]);\n    }\n\n    /**\n     * @dev refund bid\n     * @param product product identifier\n     * @param bidder address to refund\n     * @param price amount to refund\n     */\n    function refund(\n        uint256 product,\n        address bidder,\n        uint256 price\n    ) private {\n        require(\n            address(this).balance >= price,\n            \"Auction: insufficient balance\"\n        );\n\n        AddressUpgradeable.sendValue(payable(bidder), price);\n\n        emit BidRefunded(product, price, bidder, _msgSender());\n    }\n\n    /**\n     * @return true if the product has auction regardless open or close, false otherwise.\n     */\n    function hasAuction(uint256 product) public view returns (bool) {\n        return _auctions[product].openTime != 0;\n    }\n\n    /**\n     * @return true if the auction is open, false otherwise.\n     */\n    function isOpen(uint256 product) public view returns (bool) {\n        require(hasAuction(product));\n\n        AuctionDetails storage auction = _auctions[product];\n        return\n            block.timestamp >= auction.openTime &&\n            block.timestamp <= auction.closeTime;\n    }\n\n    /**\n     * @dev Checks whether the period in which the auction is open has already elapsed.\n     * @return Whether auction period has elapsed\n     */\n    function hasClosed(uint256 product) public view returns (bool) {\n        require(hasAuction(product));\n\n        AuctionDetails storage auction = _auctions[product];\n        return block.timestamp > auction.closeTime;\n    }\n\n    /**\n     * @return true if sender has bid on the product, false otherwise.\n     */\n    function hasBidded(uint256 product) public view returns (bool) {\n        return _productBids[product].contains(_msgSender());\n    }\n\n    /**\n     * @param product product identifier\n     * @return highest bidder account\n     * @return highest bidder amount\n     */\n    function getHighestBid(uint256 product)\n        private\n        view\n        returns (address, uint256)\n    {\n        address highestBidder = address(0);\n        uint256 highestPrice = 0;\n\n        for (uint256 i = 0; i < _productBids[product].length(); i++) {\n            (address bidder, uint256 price) = getBid(product, i);\n            if (price > highestPrice) {\n                highestBidder = bidder;\n                highestPrice = price;\n            }\n        }\n\n        return (highestBidder, highestPrice);\n    }\n}\n",
  "sourcePath": "/Users/susantowu/Projects/online-marketplace/contracts/v1/Auction.sol",
  "compiler": {
    "name": "solc",
    "version": "0.6.12+commit.27d51765.Emscripten.clang"
  },
  "schemaVersion": "3.3.2",
  "updatedAt": "2020-11-25T15:26:26.551Z",
  "networkType": "ethereum",
  "devdoc": {
    "author": "Susanto Wu",
    "details": "Keep track of product in auction, auction bids. Provides timing functionality.",
    "kind": "dev",
    "methods": {
      "bid(uint256)": {
        "details": "Add sender bid, increase counter.",
        "params": {
          "product": "product identifier"
        }
      },
      "end(uint256)": {
        "details": "get highest bid and clean up product from auction.",
        "params": {
          "product": "product identifier"
        }
      },
      "getAuction(uint256)": {
        "params": {
          "product": "product identifier"
        },
        "returns": {
          "_0": "auction start time",
          "_1": "auction end time",
          "_2": "auction start price",
          "_3": "auction product id"
        }
      },
      "getBid(uint256,uint256)": {
        "params": {
          "index": "bid map element index",
          "product": "product identifier"
        },
        "returns": {
          "_0": "bid address",
          "_1": "bid amount"
        }
      },
      "getBidCount(uint256)": {
        "params": {
          "product": "product identifier"
        },
        "returns": {
          "_0": "bids map length"
        }
      },
      "hasAuction(uint256)": {
        "returns": {
          "_0": "true if the product has auction regardless open or close, false otherwise."
        }
      },
      "hasBidded(uint256)": {
        "returns": {
          "_0": "true if sender has bid on the product, false otherwise."
        }
      },
      "hasClosed(uint256)": {
        "details": "Checks whether the period in which the auction is open has already elapsed.",
        "returns": {
          "_0": "Whether auction period has elapsed"
        }
      },
      "initialize(address,address)": {
        "details": "Initialize parent constructor."
      },
      "isOpen(uint256)": {
        "returns": {
          "_0": "true if the auction is open, false otherwise."
        }
      },
      "start(uint256,uint256,uint256,uint256)": {
        "details": "Create new Auction object and map to product. Validate time arguments as future time and product is not in auction.",
        "params": {
          "closeTime": "auction end time",
          "openTime": "auction start time",
          "product": "product identifier",
          "startPrice": "starting auction price"
        }
      }
    },
    "stateVariables": {
      "_auctions": {
        "details": "Product to Auction map"
      },
      "_productBids": {
        "details": "Product Id to bids<address, price> map"
      },
      "_user": {
        "details": "Required contracts."
      }
    },
    "title": "MarketPlace Auction",
    "version": 1
  },
  "userdoc": {
    "kind": "user",
    "methods": {},
    "version": 1
  }
}