{
  "contractName": "Auction",
  "abi": [
    {
      "anonymous": false,
      "inputs": [
        {
          "indexed": false,
          "internalType": "uint256",
          "name": "product",
          "type": "uint256"
        },
        {
          "indexed": false,
          "internalType": "uint256",
          "name": "price",
          "type": "uint256"
        },
        {
          "indexed": false,
          "internalType": "address",
          "name": "bidder",
          "type": "address"
        },
        {
          "indexed": false,
          "internalType": "address",
          "name": "seller",
          "type": "address"
        }
      ],
      "name": "AuctionEnded",
      "type": "event"
    },
    {
      "anonymous": false,
      "inputs": [
        {
          "indexed": false,
          "internalType": "uint256",
          "name": "product",
          "type": "uint256"
        },
        {
          "indexed": false,
          "internalType": "uint256",
          "name": "openTime",
          "type": "uint256"
        },
        {
          "indexed": false,
          "internalType": "uint256",
          "name": "closeTime",
          "type": "uint256"
        },
        {
          "indexed": false,
          "internalType": "uint256",
          "name": "startPrice",
          "type": "uint256"
        },
        {
          "indexed": false,
          "internalType": "address",
          "name": "seller",
          "type": "address"
        }
      ],
      "name": "AuctionStarted",
      "type": "event"
    },
    {
      "anonymous": false,
      "inputs": [
        {
          "indexed": false,
          "internalType": "uint256",
          "name": "product",
          "type": "uint256"
        },
        {
          "indexed": false,
          "internalType": "uint256",
          "name": "price",
          "type": "uint256"
        },
        {
          "indexed": false,
          "internalType": "address",
          "name": "bidder",
          "type": "address"
        },
        {
          "indexed": false,
          "internalType": "address",
          "name": "seller",
          "type": "address"
        }
      ],
      "name": "BidRefunded",
      "type": "event"
    },
    {
      "anonymous": false,
      "inputs": [
        {
          "indexed": false,
          "internalType": "uint256",
          "name": "product",
          "type": "uint256"
        },
        {
          "indexed": false,
          "internalType": "uint256",
          "name": "price",
          "type": "uint256"
        },
        {
          "indexed": false,
          "internalType": "address",
          "name": "bidder",
          "type": "address"
        }
      ],
      "name": "Bidded",
      "type": "event"
    },
    {
      "inputs": [
        {
          "internalType": "address",
          "name": "user",
          "type": "address"
        },
        {
          "internalType": "address",
          "name": "store",
          "type": "address"
        }
      ],
      "name": "initialize",
      "outputs": [],
      "stateMutability": "nonpayable",
      "type": "function"
    },
    {
      "inputs": [
        {
          "internalType": "uint256",
          "name": "openTime",
          "type": "uint256"
        },
        {
          "internalType": "uint256",
          "name": "closeTime",
          "type": "uint256"
        },
        {
          "internalType": "uint256",
          "name": "product",
          "type": "uint256"
        },
        {
          "internalType": "uint256",
          "name": "startPrice",
          "type": "uint256"
        }
      ],
      "name": "start",
      "outputs": [],
      "stateMutability": "nonpayable",
      "type": "function"
    },
    {
      "inputs": [
        {
          "internalType": "uint256",
          "name": "product",
          "type": "uint256"
        }
      ],
      "name": "getAuction",
      "outputs": [
        {
          "internalType": "uint256",
          "name": "",
          "type": "uint256"
        },
        {
          "internalType": "uint256",
          "name": "",
          "type": "uint256"
        },
        {
          "internalType": "uint256",
          "name": "",
          "type": "uint256"
        },
        {
          "internalType": "uint256",
          "name": "",
          "type": "uint256"
        }
      ],
      "stateMutability": "view",
      "type": "function",
      "constant": true
    },
    {
      "inputs": [
        {
          "internalType": "uint256",
          "name": "product",
          "type": "uint256"
        }
      ],
      "name": "bid",
      "outputs": [],
      "stateMutability": "payable",
      "type": "function",
      "payable": true
    },
    {
      "inputs": [
        {
          "internalType": "uint256",
          "name": "product",
          "type": "uint256"
        }
      ],
      "name": "getBidCount",
      "outputs": [
        {
          "internalType": "uint256",
          "name": "",
          "type": "uint256"
        }
      ],
      "stateMutability": "view",
      "type": "function",
      "constant": true
    },
    {
      "inputs": [
        {
          "internalType": "uint256",
          "name": "product",
          "type": "uint256"
        },
        {
          "internalType": "uint256",
          "name": "index",
          "type": "uint256"
        }
      ],
      "name": "getBid",
      "outputs": [
        {
          "internalType": "address",
          "name": "",
          "type": "address"
        },
        {
          "internalType": "uint256",
          "name": "",
          "type": "uint256"
        }
      ],
      "stateMutability": "view",
      "type": "function",
      "constant": true
    },
    {
      "inputs": [
        {
          "internalType": "uint256",
          "name": "product",
          "type": "uint256"
        }
      ],
      "name": "end",
      "outputs": [],
      "stateMutability": "nonpayable",
      "type": "function"
    },
    {
      "inputs": [
        {
          "internalType": "uint256",
          "name": "product",
          "type": "uint256"
        }
      ],
      "name": "hasAuction",
      "outputs": [
        {
          "internalType": "bool",
          "name": "",
          "type": "bool"
        }
      ],
      "stateMutability": "view",
      "type": "function",
      "constant": true
    },
    {
      "inputs": [
        {
          "internalType": "uint256",
          "name": "product",
          "type": "uint256"
        }
      ],
      "name": "isOpen",
      "outputs": [
        {
          "internalType": "bool",
          "name": "",
          "type": "bool"
        }
      ],
      "stateMutability": "view",
      "type": "function",
      "constant": true
    },
    {
      "inputs": [
        {
          "internalType": "uint256",
          "name": "product",
          "type": "uint256"
        }
      ],
      "name": "hasClosed",
      "outputs": [
        {
          "internalType": "bool",
          "name": "",
          "type": "bool"
        }
      ],
      "stateMutability": "view",
      "type": "function",
      "constant": true
    },
    {
      "inputs": [],
      "name": "getBlockTimestamp",
      "outputs": [
        {
          "internalType": "uint256",
          "name": "",
          "type": "uint256"
        }
      ],
      "stateMutability": "view",
      "type": "function",
      "constant": true
    },
    {
      "inputs": [
        {
          "internalType": "uint256",
          "name": "product",
          "type": "uint256"
        }
      ],
      "name": "hasBidded",
      "outputs": [
        {
          "internalType": "bool",
          "name": "",
          "type": "bool"
        }
      ],
      "stateMutability": "view",
      "type": "function",
      "constant": true
    }
  ],
  "bytecode": "0x608060405234801561001057600080fd5b50611be5806100206000396000f3fe6080604052600436106100a75760003560e01c8063707a4e9611610064578063707a4e961461029e578063744d3411146102f757806378bd793514610346578063796b89b9146103aa578063e817093c146103d5578063f146292114610426576100a7565b80630ad24528146100ac578063375952fd146100e7578063454a2ab314610138578063485cc955146101665780634d6861a6146101d7578063582c7ffd14610228575b600080fd5b3480156100b857600080fd5b506100e5600480360360208110156100cf57600080fd5b8101908080359060200190929190505050610477565b005b3480156100f357600080fd5b506101206004803603602081101561010a57600080fd5b810190808035906020019092919050505061076f565b60405180821515815260200191505060405180910390f35b6101646004803603602081101561014e57600080fd5b81019080803590602001909291905050506107af565b005b34801561017257600080fd5b506101d56004803603604081101561018957600080fd5b81019080803573ffffffffffffffffffffffffffffffffffffffff169060200190929190803573ffffffffffffffffffffffffffffffffffffffff1690602001909291905050506109b6565b005b3480156101e357600080fd5b50610210600480360360208110156101fa57600080fd5b8101908080359060200190929190505050610c28565b60405180821515815260200191505060405180910390f35b34801561023457600080fd5b5061026b6004803603604081101561024b57600080fd5b810190808035906020019092919080359060200190929190505050610c79565b604051808373ffffffffffffffffffffffffffffffffffffffff1681526020018281526020019250505060405180910390f35b3480156102aa57600080fd5b506102f5600480360360808110156102c157600080fd5b8101908080359060200190929190803590602001909291908035906020019092919080359060200190929190505050610cac565b005b34801561030357600080fd5b506103306004803603602081101561031a57600080fd5b8101908080359060200190929190505050610ffc565b6040518082815260200191505060405180910390f35b34801561035257600080fd5b5061037f6004803603602081101561036957600080fd5b8101908080359060200190929190505050611020565b6040518085815260200184815260200183815260200182815260200194505050505060405180910390f35b3480156103b657600080fd5b506103bf61105d565b6040518082815260200191505060405180910390f35b3480156103e157600080fd5b5061040e600480360360208110156103f857600080fd5b8101908080359060200190929190505050611065565b60405180821515815260200191505060405180910390f35b34801561043257600080fd5b5061045f6004803603602081101561044957600080fd5b810190808035906020019092919050505061109a565b60405180821515815260200191505060405180910390f35b603360009054906101000a900473ffffffffffffffffffffffffffffffffffffffff1673ffffffffffffffffffffffffffffffffffffffff1663ee95feaf6104bd6110bd565b6040518263ffffffff1660e01b8152600401808273ffffffffffffffffffffffffffffffffffffffff16815260200191505060206040518083038186803b15801561050757600080fd5b505afa15801561051b573d6000803e3d6000fd5b505050506040513d602081101561053157600080fd5b81019080805190602001909291905050506105b4576040517f08c379a000000000000000000000000000000000000000000000000000000000815260040180806020018281038252601e8152602001807f41756374696f6e3a2061646472657373206973206e6f742073656c6c6572000081525060200191505060405180910390fd5b6105bd8161076f565b61062f576040517f08c379a00000000000000000000000000000000000000000000000000000000081526004018080602001828103825260148152602001807f41756374696f6e3a20696e2070726f677265737300000000000000000000000081525060200191505060405180910390fd5b60008061063b836110c5565b91509150603460009054906101000a900473ffffffffffffffffffffffffffffffffffffffff1673ffffffffffffffffffffffffffffffffffffffff1663574cdded82856001856040518563ffffffff1660e01b81526004018084815260200183815260200182815260200193505050506000604051808303818588803b1580156106c557600080fd5b505af11580156106d9573d6000803e3d6000fd5b50505050506106e8838361112d565b7f2b330368bfa9de1af4b345ea8ddbc558e9e085d5f9c94f0084e92aac7c5cf2738382846107146110bd565b604051808581526020018481526020018373ffffffffffffffffffffffffffffffffffffffff1681526020018273ffffffffffffffffffffffffffffffffffffffff16815260200194505050505060405180910390a1505050565b600061077a8261109a565b156107a5576000603560008481526020019081526020016000209050806001015442119150506107aa565b600090505b919050565b6107b881610c28565b61082a576040517f08c379a00000000000000000000000000000000000000000000000000000000081526004018080602001828103825260128152602001807f41756374696f6e3a2068617320656e646564000000000000000000000000000081525060200191505060405180910390fd5b61083381611065565b156108a6576040517f08c379a00000000000000000000000000000000000000000000000000000000081526004018080602001828103825260188152602001807f41756374696f6e3a20757365722068617320626964646564000000000000000081525060200191505060405180910390fd5b6035600082815260200190815260200160002060020154341015610915576040517f08c379a0000000000000000000000000000000000000000000000000000000008152600401808060200182810382526025815260200180611b8b6025913960400191505060405180910390fd5b60003490506109486109256110bd565b82603660008681526020019081526020016000206112379092919063ffffffff16565b156109b2577fdeff91b67870988bb19a87f3afc9551711246812cfc9035c1a6606e7fe2f495f82826109786110bd565b604051808481526020018381526020018273ffffffffffffffffffffffffffffffffffffffff168152602001935050505060405180910390a15b5050565b600060019054906101000a900460ff16806109d557506109d461126c565b5b806109eb575060008054906101000a900460ff16155b610a40576040517f08c379a000000000000000000000000000000000000000000000000000000000815260040180806020018281038252602e815260200180611b3b602e913960400191505060405180910390fd5b60008060019054906101000a900460ff161590508015610a90576001600060016101000a81548160ff02191690831515021790555060016000806101000a81548160ff0219169083151502179055505b610aaf8373ffffffffffffffffffffffffffffffffffffffff16611283565b610b04576040517f08c379a0000000000000000000000000000000000000000000000000000000008152600401808060200182810382526025815260200180611ab26025913960400191505060405180910390fd5b610b238273ffffffffffffffffffffffffffffffffffffffff16611283565b610b78576040517f08c379a0000000000000000000000000000000000000000000000000000000008152600401808060200182810382526028815260200180611a8a6028913960400191505060405180910390fd5b610b80611296565b82603360006101000a81548173ffffffffffffffffffffffffffffffffffffffff021916908373ffffffffffffffffffffffffffffffffffffffff16021790555081603460006101000a81548173ffffffffffffffffffffffffffffffffffffffff021916908373ffffffffffffffffffffffffffffffffffffffff1602179055508015610c235760008060016101000a81548160ff0219169083151502179055505b505050565b6000610c338261109a565b15610c6f57600060356000848152602001908152602001600020905080600001544210158015610c67575080600101544211155b915050610c74565b600090505b919050565b600080610ca1836036600087815260200190815260200160002061139c90919063ffffffff16565b915091509250929050565b603360009054906101000a900473ffffffffffffffffffffffffffffffffffffffff1673ffffffffffffffffffffffffffffffffffffffff1663ee95feaf610cf26110bd565b6040518263ffffffff1660e01b8152600401808273ffffffffffffffffffffffffffffffffffffffff16815260200191505060206040518083038186803b158015610d3c57600080fd5b505afa158015610d50573d6000803e3d6000fd5b505050506040513d6020811015610d6657600080fd5b8101908080519060200190929190505050610de9576040517f08c379a000000000000000000000000000000000000000000000000000000000815260040180806020018281038252601e8152602001807f41756374696f6e3a2061646472657373206973206e6f742073656c6c6572000081525060200191505060405180910390fd5b42841015610e5f576040517f08c379a00000000000000000000000000000000000000000000000000000000081526004018080602001828103825260208152602001807f41756374696f6e3a206f70656e2074696d65206e6f7420696e2066757475726581525060200191505060405180910390fd5b838311610eb7576040517f08c379a000000000000000000000000000000000000000000000000000000000815260040180806020018281038252602a815260200180611ad7602a913960400191505060405180910390fd5b610ec082610c28565b15610f33576040517f08c379a000000000000000000000000000000000000000000000000000000000815260040180806020018281038252601b8152602001807f41756374696f6e3a2070726f6475637420696e2061756374696f6e000000000081525060200191505060405180910390fd5b604051806060016040528085815260200184815260200182815250603560008481526020019081526020016000206000820151816000015560208201518160010155604082015181600201559050507f50dec2db9a99c7053b7b8cad8eba8937fc6668d428ffadd1cd7bac77982bd36582858584610faf6110bd565b604051808681526020018581526020018481526020018381526020018273ffffffffffffffffffffffffffffffffffffffff1681526020019550505050505060405180910390a150505050565b6000611019603660008481526020019081526020016000206113c8565b9050919050565b6000806000806000603560008781526020019081526020016000209050806000015481600101548260020154889450945094509450509193509193565b600042905090565b60006110936110726110bd565b603660008581526020019081526020016000206113dd90919063ffffffff16565b9050919050565b600080603560008481526020019081526020016000206000015414159050919050565b600033905090565b60008060008060005b6110e9603660008881526020019081526020016000206113c8565b81101561111f576000806110fd8884610c79565b9150915083811115611110578194508093505b505080806001019150506110ce565b508181935093505050915091565b60005b61114b603660008581526020019081526020016000206113c8565b8110156111d75760008061115f8584610c79565b91509150611188826036600088815260200190815260200160002061140d90919063ffffffff16565b508373ffffffffffffffffffffffffffffffffffffffff168273ffffffffffffffffffffffffffffffffffffffff16146111c8576111c785838361143d565b5b50508080600101915050611130565b50603660008381526020019081526020016000206000808201600080820160006112019190611a3e565b50505050603560008381526020019081526020016000206000808201600090556001820160009055600282016000905550505050565b6000611263846000018473ffffffffffffffffffffffffffffffffffffffff1660001b8460001b611544565b90509392505050565b6000803090506000813b9050600081149250505090565b600080823b905060008111915050919050565b600060019054906101000a900460ff16806112b557506112b461126c565b5b806112cb575060008054906101000a900460ff16155b611320576040517f08c379a000000000000000000000000000000000000000000000000000000000815260040180806020018281038252602e815260200180611b3b602e913960400191505060405180910390fd5b60008060019054906101000a900460ff161590508015611370576001600060016101000a81548160ff02191690831515021790555060016000806101000a81548160ff0219169083151502179055505b611378611620565b80156113995760008060016101000a81548160ff0219169083151502179055505b50565b6000806000806113af866000018661171e565b915091508160001c8160001c9350935050509250929050565b60006113d6826000016117b7565b9050919050565b6000611405836000018373ffffffffffffffffffffffffffffffffffffffff1660001b6117c8565b905092915050565b6000611435836000018373ffffffffffffffffffffffffffffffffffffffff1660001b6117eb565b905092915050565b804710156114b3576040517f08c379a000000000000000000000000000000000000000000000000000000000815260040180806020018281038252601d8152602001807f41756374696f6e3a20696e73756666696369656e742062616c616e636500000081525060200191505060405180910390fd5b6114bd8282611904565b7fb20b10aab15c8ea6d88bbf9405dbf7de131937d7c1de41a8cd2a3d98f28205ae8382846114e96110bd565b604051808581526020018481526020018373ffffffffffffffffffffffffffffffffffffffff1681526020018273ffffffffffffffffffffffffffffffffffffffff16815260200194505050505060405180910390a1505050565b60008084600101600085815260200190815260200160002054905060008114156115eb57846000016040518060400160405280868152602001858152509080600181540180825580915050600190039060005260206000209060020201600090919091909150600082015181600001556020820151816001015550508460000180549050856001016000868152602001908152602001600020819055506001915050611619565b828560000160018303815481106115fe57fe5b90600052602060002090600202016001018190555060009150505b9392505050565b600060019054906101000a900460ff168061163f575061163e61126c565b5b80611655575060008054906101000a900460ff16155b6116aa576040517f08c379a000000000000000000000000000000000000000000000000000000000815260040180806020018281038252602e815260200180611b3b602e913960400191505060405180910390fd5b60008060019054906101000a900460ff1615905080156116fa576001600060016101000a81548160ff02191690831515021790555060016000806101000a81548160ff0219169083151502179055505b801561171b5760008060016101000a81548160ff0219169083151502179055505b50565b60008082846000018054905011611780576040517f08c379a0000000000000000000000000000000000000000000000000000000008152600401808060200182810382526022815260200180611b696022913960400191505060405180910390fd5b600084600001848154811061179157fe5b906000526020600020906002020190508060000154816001015492509250509250929050565b600081600001805490509050919050565b600080836001016000848152602001908152602001600020541415905092915050565b600080836001016000848152602001908152602001600020549050600081146118f8576000600182039050600060018660000180549050039050600086600001828154811061183657fe5b906000526020600020906002020190508087600001848154811061185657fe5b90600052602060002090600202016000820154816000015560018201548160010155905050600183018760010160008360000154815260200190815260200160002081905550866000018054806118a957fe5b60019003818190600052602060002090600202016000808201600090556001820160009055505090558660010160008781526020019081526020016000206000905560019450505050506118fe565b60009150505b92915050565b8047101561197a576040517f08c379a000000000000000000000000000000000000000000000000000000000815260040180806020018281038252601d8152602001807f416464726573733a20696e73756666696369656e742062616c616e636500000081525060200191505060405180910390fd5b60008273ffffffffffffffffffffffffffffffffffffffff168260405180600001905060006040518083038185875af1925050503d80600081146119da576040519150601f19603f3d011682016040523d82523d6000602084013e6119df565b606091505b5050905080611a39576040517f08c379a000000000000000000000000000000000000000000000000000000000815260040180806020018281038252603a815260200180611b01603a913960400191505060405180910390fd5b505050565b5080546000825560020290600052602060002090810190611a5f9190611a62565b50565b5b80821115611a8557600080820160009055600182016000905550600201611a63565b509056fe41756374696f6e3a207061796d656e742061646472657373206973206e6f7420636f6e747261637441756374696f6e3a20757365722061646472657373206973206e6f7420636f6e747261637441756374696f6e3a20636c6f73652074696d65206561726c696572207468616e206f70656e2074696d65416464726573733a20756e61626c6520746f2073656e642076616c75652c20726563697069656e74206d61792068617665207265766572746564496e697469616c697a61626c653a20636f6e747261637420697320616c726561647920696e697469616c697a6564456e756d657261626c654d61703a20696e646578206f7574206f6620626f756e647341756374696f6e3a207072696365206c6f776572207468616e207374617274207072696365a2646970667358221220e7ffe4e8712cee13ba625543630b777640e915c5416d3221736c475cb18e14d964736f6c634300060c0033",
  "immutableReferences": {},
  "source": "// SPDX-License-Identifier: MIT\npragma solidity ^0.6.0;\n\nimport \"@openzeppelin/contracts-upgradeable/proxy/Initializable.sol\";\nimport \"@openzeppelin/contracts-upgradeable/GSN/ContextUpgradeable.sol\";\nimport \"@openzeppelin/contracts-upgradeable/math/SafeMathUpgradeable.sol\";\nimport \"@openzeppelin/contracts-upgradeable/utils/AddressUpgradeable.sol\";\nimport \"@openzeppelin/contracts-upgradeable/utils/CountersUpgradeable.sol\";\nimport \"../library/MyEnumerableMap.sol\";\nimport \"./User.sol\";\nimport \"./Store.sol\";\n\n/**\n * @title MarketPlace Auction\n * @author Susanto Wu\n * @dev Keep track of product in auction, auction bids. Provides timing functionality.\n */\ncontract Auction is Initializable, ContextUpgradeable {\n    using SafeMathUpgradeable for uint256;\n    using AddressUpgradeable for address;\n    using CountersUpgradeable for CountersUpgradeable.Counter;\n    using MyEnumerableMap for MyEnumerableMap.AddressToUintMap;\n\n    /**\n     * @dev Required contracts.\n     */\n    User private _user;\n    Store private _store;\n\n    struct AuctionDetails {\n        uint256 openTime;\n        uint256 closeTime;\n        uint256 startPrice;\n    }\n\n    /**\n     * @dev Product to Auction map\n     */\n    mapping(uint256 => AuctionDetails) private _auctions;\n\n    /**\n     * @dev Product Id to bids<address, price> map\n     */\n    mapping(uint256 => MyEnumerableMap.AddressToUintMap) private _productBids;\n\n    /* Events */\n    event AuctionStarted(\n        uint256 product,\n        uint256 openTime,\n        uint256 closeTime,\n        uint256 startPrice,\n        address seller\n    );\n    event AuctionEnded(\n        uint256 product,\n        uint256 price,\n        address bidder,\n        address seller\n    );\n    event Bidded(uint256 product, uint256 price, address bidder);\n    event BidRefunded(\n        uint256 product,\n        uint256 price,\n        address bidder,\n        address seller\n    );\n\n    /**\n     * @dev Throw if address not seller.\n     */\n    modifier onlySeller() {\n        require(_user.isSeller(_msgSender()), \"Auction: address is not seller\");\n        _;\n    }\n\n    /**\n     * @dev Initialize parent constructor.\n     */\n    function initialize(address user, address store) public initializer {\n        require(user.isContract(), \"Auction: user address is not contract\");\n        require(store.isContract(), \"Auction: payment address is not contract\");\n\n        __Context_init();\n\n        _user = User(user);\n        _store = Store(store);\n    }\n\n    /**\n     * @dev Create new Auction object and map to product.\n     * Validate time arguments as future time and product is not in auction.\n     * @param openTime auction start time\n     * @param closeTime auction end time\n     * @param product product identifier\n     * @param startPrice starting auction price\n     */\n    function start(\n        uint256 openTime,\n        uint256 closeTime,\n        uint256 product,\n        uint256 startPrice\n    ) public onlySeller {\n        require(\n            openTime >= block.timestamp,\n            \"Auction: open time not in future\"\n        );\n        require(\n            closeTime > openTime,\n            \"Auction: close time earlier than open time\"\n        );\n        require(!isOpen(product), \"Auction: product in auction\");\n\n        _auctions[product] = AuctionDetails({\n            openTime: openTime,\n            closeTime: closeTime,\n            startPrice: startPrice\n        });\n        emit AuctionStarted(\n            product,\n            openTime,\n            closeTime,\n            startPrice,\n            _msgSender()\n        );\n    }\n\n    /**\n     * @param product product identifier\n     * @return auction start time\n     * @return auction end time\n     * @return auction start price\n     * @return auction product id\n     */\n    function getAuction(uint256 product)\n        public\n        view\n        returns (\n            uint256,\n            uint256,\n            uint256,\n            uint256\n        )\n    {\n        AuctionDetails storage auction = _auctions[product];\n        return (\n            auction.openTime,\n            auction.closeTime,\n            auction.startPrice,\n            product\n        );\n    }\n\n    /**\n     * @dev Add sender bid, increase counter.\n     * @param product product identifier\n     */\n    function bid(uint256 product) public payable {\n        require(isOpen(product), \"Auction: has ended\");\n        require(!hasBidded(product), \"Auction: user has bidded\");\n        require(\n            msg.value >= _auctions[product].startPrice,\n            \"Auction: price lower than start price\"\n        );\n\n        uint256 price = msg.value;\n\n        if (_productBids[product].set(_msgSender(), price)) {\n            emit Bidded(product, price, _msgSender());\n        }\n    }\n\n    /**\n     * @param product product identifier\n     * @return bids map length\n     */\n    function getBidCount(uint256 product) public view returns (uint256) {\n        return _productBids[product].length();\n    }\n\n    /**\n     * @param product product identifier\n     * @param index bid map element index\n     * @return bid address\n     * @return bid amount\n     */\n    function getBid(uint256 product, uint256 index)\n        public\n        view\n        returns (address, uint256)\n    {\n        return _productBids[product].at(index);\n    }\n\n    /**\n     * @dev get highest bid and clean up product from auction.\n     * @param product product identifier\n     */\n    function end(uint256 product) public onlySeller {\n        require(hasClosed(product), \"Auction: in progress\");\n\n        (address bidder, uint256 price) = getHighestBid(product);\n\n        // Push the highest bid to store payment.\n        _store.settle{value: price}(product, 1, price);\n\n        clear(product, bidder);\n\n        emit AuctionEnded(product, price, bidder, _msgSender());\n    }\n\n    /**\n     * @dev clean up all the mappings\n     * @param product product identifier\n     * @param account highest bidder\n     */\n    function clear(uint256 product, address account) private {\n        // Clean up bids\n        for (uint256 i = 0; i < _productBids[product].length(); i++) {\n            (address bidder, uint256 price) = getBid(product, i);\n\n            _productBids[product].remove(bidder);\n\n            // Only refund if not highest bidder\n            if (bidder != account) {\n                refund(product, bidder, price);\n            }\n        }\n\n        delete (_productBids[product]);\n\n        delete (_auctions[product]);\n    }\n\n    /**\n     * @dev refund bid\n     * @param product product identifier\n     * @param bidder address to refund\n     * @param price amount to refund\n     */\n    function refund(\n        uint256 product,\n        address bidder,\n        uint256 price\n    ) private {\n        require(\n            address(this).balance >= price,\n            \"Auction: insufficient balance\"\n        );\n\n        AddressUpgradeable.sendValue(payable(bidder), price);\n\n        emit BidRefunded(product, price, bidder, _msgSender());\n    }\n\n    /**\n     * @return true if the product has auction regardless open or close, false otherwise.\n     */\n    function hasAuction(uint256 product) public view returns (bool) {\n        return _auctions[product].openTime != 0;\n    }\n\n    /**\n     * @return true if the auction is open, false otherwise.\n     */\n    function isOpen(uint256 product) public view returns (bool) {\n        if (hasAuction(product)) {\n            AuctionDetails storage auction = _auctions[product];\n            return\n                block.timestamp >= auction.openTime &&\n                block.timestamp <= auction.closeTime;\n        }\n        return false;\n    }\n\n    /**\n     * @dev Checks whether the period in which the auction is open has already elapsed.\n     * @return Whether auction period has elapsed\n     */\n    function hasClosed(uint256 product) public view returns (bool) {\n        if (hasAuction(product)) {\n            AuctionDetails storage auction = _auctions[product];\n            return block.timestamp > auction.closeTime;\n        }\n        return false;\n    }\n\n    function getBlockTimestamp() public view returns (uint256) {\n        return block.timestamp;\n    }\n\n    /**\n     * @return true if sender has bid on the product, false otherwise.\n     */\n    function hasBidded(uint256 product) public view returns (bool) {\n        return _productBids[product].contains(_msgSender());\n    }\n\n    /**\n     * @param product product identifier\n     * @return highest bidder account\n     * @return highest bidder amount\n     */\n    function getHighestBid(uint256 product)\n        private\n        view\n        returns (address, uint256)\n    {\n        address highestBidder = address(0);\n        uint256 highestPrice = 0;\n\n        for (uint256 i = 0; i < _productBids[product].length(); i++) {\n            (address bidder, uint256 price) = getBid(product, i);\n            if (price > highestPrice) {\n                highestBidder = bidder;\n                highestPrice = price;\n            }\n        }\n\n        return (highestBidder, highestPrice);\n    }\n}\n",
  "sourcePath": "/Users/susantowu/Projects/online-marketplace/contracts/v1/Auction.sol",
  "compiler": {
    "name": "solc",
    "version": "0.6.12+commit.27d51765.Emscripten.clang"
  },
  "schemaVersion": "3.3.2",
  "updatedAt": "2020-11-26T07:20:51.444Z",
  "networkType": "ethereum",
  "devdoc": {
    "author": "Susanto Wu",
    "details": "Keep track of product in auction, auction bids. Provides timing functionality.",
    "kind": "dev",
    "methods": {
      "bid(uint256)": {
        "details": "Add sender bid, increase counter.",
        "params": {
          "product": "product identifier"
        }
      },
      "end(uint256)": {
        "details": "get highest bid and clean up product from auction.",
        "params": {
          "product": "product identifier"
        }
      },
      "getAuction(uint256)": {
        "params": {
          "product": "product identifier"
        },
        "returns": {
          "_0": "auction start time",
          "_1": "auction end time",
          "_2": "auction start price",
          "_3": "auction product id"
        }
      },
      "getBid(uint256,uint256)": {
        "params": {
          "index": "bid map element index",
          "product": "product identifier"
        },
        "returns": {
          "_0": "bid address",
          "_1": "bid amount"
        }
      },
      "getBidCount(uint256)": {
        "params": {
          "product": "product identifier"
        },
        "returns": {
          "_0": "bids map length"
        }
      },
      "hasAuction(uint256)": {
        "returns": {
          "_0": "true if the product has auction regardless open or close, false otherwise."
        }
      },
      "hasBidded(uint256)": {
        "returns": {
          "_0": "true if sender has bid on the product, false otherwise."
        }
      },
      "hasClosed(uint256)": {
        "details": "Checks whether the period in which the auction is open has already elapsed.",
        "returns": {
          "_0": "Whether auction period has elapsed"
        }
      },
      "initialize(address,address)": {
        "details": "Initialize parent constructor."
      },
      "isOpen(uint256)": {
        "returns": {
          "_0": "true if the auction is open, false otherwise."
        }
      },
      "start(uint256,uint256,uint256,uint256)": {
        "details": "Create new Auction object and map to product. Validate time arguments as future time and product is not in auction.",
        "params": {
          "closeTime": "auction end time",
          "openTime": "auction start time",
          "product": "product identifier",
          "startPrice": "starting auction price"
        }
      }
    },
    "stateVariables": {
      "_auctions": {
        "details": "Product to Auction map"
      },
      "_productBids": {
        "details": "Product Id to bids<address, price> map"
      },
      "_user": {
        "details": "Required contracts."
      }
    },
    "title": "MarketPlace Auction",
    "version": 1
  },
  "userdoc": {
    "kind": "user",
    "methods": {},
    "version": 1
  }
}