{
  "contractName": "Payment",
  "abi": [
    {
      "inputs": [
        {
          "internalType": "address",
          "name": "dest",
          "type": "address"
        }
      ],
      "name": "payments",
      "outputs": [
        {
          "internalType": "uint256",
          "name": "",
          "type": "uint256"
        }
      ],
      "stateMutability": "view",
      "type": "function",
      "constant": true
    },
    {
      "inputs": [
        {
          "internalType": "address payable",
          "name": "payee",
          "type": "address"
        }
      ],
      "name": "withdrawPayments",
      "outputs": [],
      "stateMutability": "nonpayable",
      "type": "function"
    },
    {
      "inputs": [
        {
          "internalType": "address",
          "name": "user",
          "type": "address"
        }
      ],
      "name": "initialize",
      "outputs": [],
      "stateMutability": "nonpayable",
      "type": "function"
    },
    {
      "inputs": [],
      "name": "withdraw",
      "outputs": [],
      "stateMutability": "nonpayable",
      "type": "function"
    },
    {
      "inputs": [
        {
          "internalType": "address",
          "name": "payee",
          "type": "address"
        },
        {
          "internalType": "uint256",
          "name": "amount",
          "type": "uint256"
        }
      ],
      "name": "pay",
      "outputs": [],
      "stateMutability": "payable",
      "type": "function",
      "payable": true
    }
  ],
  "bytecode": "0x608060405234801561001057600080fd5b5061209e806100206000396000f3fe60806040526004361061004a5760003560e01c806331b3eb941461004f5780633ccfd60b146100a0578063c4076876146100b7578063c4d66de814610105578063e2982c2114610156575b600080fd5b34801561005b57600080fd5b5061009e6004803603602081101561007257600080fd5b81019080803573ffffffffffffffffffffffffffffffffffffffff1690602001909291905050506101bb565b005b3480156100ac57600080fd5b506100b5610261565b005b610103600480360360408110156100cd57600080fd5b81019080803573ffffffffffffffffffffffffffffffffffffffff16906020019092919080359060200190929190505050610405565b005b34801561011157600080fd5b506101546004803603602081101561012857600080fd5b81019080803573ffffffffffffffffffffffffffffffffffffffff169060200190929190505050610490565b005b34801561016257600080fd5b506101a56004803603602081101561017957600080fd5b81019080803573ffffffffffffffffffffffffffffffffffffffff169060200190929190505050610654565b6040518082815260200191505060405180910390f35b603360009054906101000a900473ffffffffffffffffffffffffffffffffffffffff1673ffffffffffffffffffffffffffffffffffffffff166351cff8d9826040518263ffffffff1660e01b8152600401808273ffffffffffffffffffffffffffffffffffffffff168152602001915050600060405180830381600087803b15801561024657600080fd5b505af115801561025a573d6000803e3d6000fd5b5050505050565b610269610721565b61027281610729565b6102e4576040517f08c379a000000000000000000000000000000000000000000000000000000000815260040180806020018281038252601e8152602001807f5061796d656e743a2061646472657373206973206e6f742073656c6c6572000081525060200191505060405180910390fd5b6002606554141561035d576040517f08c379a000000000000000000000000000000000000000000000000000000000815260040180806020018281038252601f8152602001807f5265656e7472616e637947756172643a207265656e7472616e742063616c6c0081525060200191505060405180910390fd5b60026065819055506000610377610372610721565b610654565b116103ea576040517f08c379a000000000000000000000000000000000000000000000000000000000815260040180806020018281038252601c8152602001807f5061796d656e743a206e6f2066756e6420746f2077697468647261770000000081525060200191505060405180910390fd5b6103fa6103f5610721565b6101bb565b600160658190555050565b8161040f81610729565b610481576040517f08c379a000000000000000000000000000000000000000000000000000000000815260040180806020018281038252601e8152602001807f5061796d656e743a2061646472657373206973206e6f742073656c6c6572000081525060200191505060405180910390fd5b61048b83836107f6565b505050565b600060019054906101000a900460ff16806104af57506104ae61089e565b5b806104c5575060008054906101000a900460ff16155b61051a576040517f08c379a000000000000000000000000000000000000000000000000000000000815260040180806020018281038252602e815260200180612016602e913960400191505060405180910390fd5b60008060019054906101000a900460ff16159050801561056a576001600060016101000a81548160ff02191690831515021790555060016000806101000a81548160ff0219169083151502179055505b6105898273ffffffffffffffffffffffffffffffffffffffff166108b5565b6105de576040517f08c379a00000000000000000000000000000000000000000000000000000000081526004018080602001828103825260258152602001806120446025913960400191505060405180910390fd5b6105e66108c8565b6105ee6109ce565b81609760006101000a81548173ffffffffffffffffffffffffffffffffffffffff021916908373ffffffffffffffffffffffffffffffffffffffff16021790555080156106505760008060016101000a81548160ff0219169083151502179055505b5050565b6000603360009054906101000a900473ffffffffffffffffffffffffffffffffffffffff1673ffffffffffffffffffffffffffffffffffffffff1663e3a9db1a836040518263ffffffff1660e01b8152600401808273ffffffffffffffffffffffffffffffffffffffff16815260200191505060206040518083038186803b1580156106df57600080fd5b505afa1580156106f3573d6000803e3d6000fd5b505050506040513d602081101561070957600080fd5b81019080805190602001909291905050509050919050565b600033905090565b6000609760009054906101000a900473ffffffffffffffffffffffffffffffffffffffff1673ffffffffffffffffffffffffffffffffffffffff1663ee95feaf836040518263ffffffff1660e01b8152600401808273ffffffffffffffffffffffffffffffffffffffff16815260200191505060206040518083038186803b1580156107b457600080fd5b505afa1580156107c8573d6000803e3d6000fd5b505050506040513d60208110156107de57600080fd5b81019080805190602001909291905050509050919050565b603360009054906101000a900473ffffffffffffffffffffffffffffffffffffffff1673ffffffffffffffffffffffffffffffffffffffff1663f340fa0182846040518363ffffffff1660e01b8152600401808273ffffffffffffffffffffffffffffffffffffffff1681526020019150506000604051808303818588803b15801561088157600080fd5b505af1158015610895573d6000803e3d6000fd5b50505050505050565b6000803090506000813b9050600081149250505090565b600080823b905060008111915050919050565b600060019054906101000a900460ff16806108e757506108e661089e565b5b806108fd575060008054906101000a900460ff16155b610952576040517f08c379a000000000000000000000000000000000000000000000000000000000815260040180806020018281038252602e815260200180612016602e913960400191505060405180910390fd5b60008060019054906101000a900460ff1615905080156109a2576001600060016101000a81548160ff02191690831515021790555060016000806101000a81548160ff0219169083151502179055505b6109aa610ad4565b80156109cb5760008060016101000a81548160ff0219169083151502179055505b50565b600060019054906101000a900460ff16806109ed57506109ec61089e565b5b80610a03575060008054906101000a900460ff16155b610a58576040517f08c379a000000000000000000000000000000000000000000000000000000000815260040180806020018281038252602e815260200180612016602e913960400191505060405180910390fd5b60008060019054906101000a900460ff161590508015610aa8576001600060016101000a81548160ff02191690831515021790555060016000806101000a81548160ff0219169083151502179055505b610ab0610cbd565b8015610ad15760008060016101000a81548160ff0219169083151502179055505b50565b600060019054906101000a900460ff1680610af35750610af261089e565b5b80610b09575060008054906101000a900460ff16155b610b5e576040517f08c379a000000000000000000000000000000000000000000000000000000000815260040180806020018281038252602e815260200180612016602e913960400191505060405180910390fd5b60008060019054906101000a900460ff161590508015610bae576001600060016101000a81548160ff02191690831515021790555060016000806101000a81548160ff0219169083151502179055505b604051610bba90610dc3565b604051809103906000f080158015610bd6573d6000803e3d6000fd5b50603360006101000a81548173ffffffffffffffffffffffffffffffffffffffff021916908373ffffffffffffffffffffffffffffffffffffffff160217905550603360009054906101000a900473ffffffffffffffffffffffffffffffffffffffff1673ffffffffffffffffffffffffffffffffffffffff16638129fc1c6040518163ffffffff1660e01b8152600401600060405180830381600087803b158015610c8157600080fd5b505af1158015610c95573d6000803e3d6000fd5b505050508015610cba5760008060016101000a81548160ff0219169083151502179055505b50565b600060019054906101000a900460ff1680610cdc5750610cdb61089e565b5b80610cf2575060008054906101000a900460ff16155b610d47576040517f08c379a000000000000000000000000000000000000000000000000000000000815260040180806020018281038252602e815260200180612016602e913960400191505060405180910390fd5b60008060019054906101000a900460ff161590508015610d97576001600060016101000a81548160ff02191690831515021790555060016000806101000a81548160ff0219169083151502179055505b60016065819055508015610dc05760008060016101000a81548160ff0219169083151502179055505b50565b61124580610dd18339019056fe608060405234801561001057600080fd5b50611225806100206000396000f3fe6080604052600436106100705760003560e01c80638da5cb5b1161004e5780638da5cb5b146100f4578063e3a9db1a14610135578063f2fde38b1461019a578063f340fa01146101eb57610070565b806351cff8d914610075578063715018a6146100c65780638129fc1c146100dd575b600080fd5b34801561008157600080fd5b506100c46004803603602081101561009857600080fd5b81019080803573ffffffffffffffffffffffffffffffffffffffff16906020019092919050505061022f565b005b3480156100d257600080fd5b506100db6103fd565b005b3480156100e957600080fd5b506100f2610588565b005b34801561010057600080fd5b5061010961068e565b604051808273ffffffffffffffffffffffffffffffffffffffff16815260200191505060405180910390f35b34801561014157600080fd5b506101846004803603602081101561015857600080fd5b81019080803573ffffffffffffffffffffffffffffffffffffffff1690602001909291905050506106b8565b6040518082815260200191505060405180910390f35b3480156101a657600080fd5b506101e9600480360360208110156101bd57600080fd5b81019080803573ffffffffffffffffffffffffffffffffffffffff169060200190929190505050610701565b005b61022d6004803603602081101561020157600080fd5b81019080803573ffffffffffffffffffffffffffffffffffffffff169060200190929190505050610911565b005b610237610ac7565b73ffffffffffffffffffffffffffffffffffffffff16603360009054906101000a900473ffffffffffffffffffffffffffffffffffffffff1673ffffffffffffffffffffffffffffffffffffffff16146102f9576040517f08c379a00000000000000000000000000000000000000000000000000000000081526004018080602001828103825260208152602001807f4f776e61626c653a2063616c6c6572206973206e6f7420746865206f776e657281525060200191505060405180910390fd5b6000606560008373ffffffffffffffffffffffffffffffffffffffff1673ffffffffffffffffffffffffffffffffffffffff1681526020019081526020016000205490506000606560008473ffffffffffffffffffffffffffffffffffffffff1673ffffffffffffffffffffffffffffffffffffffff168152602001908152602001600020819055506103ab818373ffffffffffffffffffffffffffffffffffffffff16610acf90919063ffffffff16565b8173ffffffffffffffffffffffffffffffffffffffff167f7084f5476618d8e60b11ef0d7d3f06914655adb8793e28ff7f018d4c76d505d5826040518082815260200191505060405180910390a25050565b610405610ac7565b73ffffffffffffffffffffffffffffffffffffffff16603360009054906101000a900473ffffffffffffffffffffffffffffffffffffffff1673ffffffffffffffffffffffffffffffffffffffff16146104c7576040517f08c379a00000000000000000000000000000000000000000000000000000000081526004018080602001828103825260208152602001807f4f776e61626c653a2063616c6c6572206973206e6f7420746865206f776e657281525060200191505060405180910390fd5b600073ffffffffffffffffffffffffffffffffffffffff16603360009054906101000a900473ffffffffffffffffffffffffffffffffffffffff1673ffffffffffffffffffffffffffffffffffffffff167f8be0079c531659141344cd1fd0a4f28419497f9722a3daafe3b4186f6b6457e060405160405180910390a36000603360006101000a81548173ffffffffffffffffffffffffffffffffffffffff021916908373ffffffffffffffffffffffffffffffffffffffff160217905550565b600060019054906101000a900460ff16806105a757506105a6610c09565b5b806105bd575060008054906101000a900460ff16155b610612576040517f08c379a000000000000000000000000000000000000000000000000000000000815260040180806020018281038252602e8152602001806111c2602e913960400191505060405180910390fd5b60008060019054906101000a900460ff161590508015610662576001600060016101000a81548160ff02191690831515021790555060016000806101000a81548160ff0219169083151502179055505b61066a610c20565b801561068b5760008060016101000a81548160ff0219169083151502179055505b50565b6000603360009054906101000a900473ffffffffffffffffffffffffffffffffffffffff16905090565b6000606560008373ffffffffffffffffffffffffffffffffffffffff1673ffffffffffffffffffffffffffffffffffffffff168152602001908152602001600020549050919050565b610709610ac7565b73ffffffffffffffffffffffffffffffffffffffff16603360009054906101000a900473ffffffffffffffffffffffffffffffffffffffff1673ffffffffffffffffffffffffffffffffffffffff16146107cb576040517f08c379a00000000000000000000000000000000000000000000000000000000081526004018080602001828103825260208152602001807f4f776e61626c653a2063616c6c6572206973206e6f7420746865206f776e657281525060200191505060405180910390fd5b600073ffffffffffffffffffffffffffffffffffffffff168173ffffffffffffffffffffffffffffffffffffffff161415610851576040517f08c379a00000000000000000000000000000000000000000000000000000000081526004018080602001828103825260268152602001806111626026913960400191505060405180910390fd5b8073ffffffffffffffffffffffffffffffffffffffff16603360009054906101000a900473ffffffffffffffffffffffffffffffffffffffff1673ffffffffffffffffffffffffffffffffffffffff167f8be0079c531659141344cd1fd0a4f28419497f9722a3daafe3b4186f6b6457e060405160405180910390a380603360006101000a81548173ffffffffffffffffffffffffffffffffffffffff021916908373ffffffffffffffffffffffffffffffffffffffff16021790555050565b610919610ac7565b73ffffffffffffffffffffffffffffffffffffffff16603360009054906101000a900473ffffffffffffffffffffffffffffffffffffffff1673ffffffffffffffffffffffffffffffffffffffff16146109db576040517f08c379a00000000000000000000000000000000000000000000000000000000081526004018080602001828103825260208152602001807f4f776e61626c653a2063616c6c6572206973206e6f7420746865206f776e657281525060200191505060405180910390fd5b6000349050610a3281606560008573ffffffffffffffffffffffffffffffffffffffff1673ffffffffffffffffffffffffffffffffffffffff16815260200190815260200160002054610d3690919063ffffffff16565b606560008473ffffffffffffffffffffffffffffffffffffffff1673ffffffffffffffffffffffffffffffffffffffff168152602001908152602001600020819055508173ffffffffffffffffffffffffffffffffffffffff167f2da466a7b24304f47e87fa2e1e5a81b9831ce54fec19055ce277ca2f39ba42c4826040518082815260200191505060405180910390a25050565b600033905090565b80471015610b45576040517f08c379a000000000000000000000000000000000000000000000000000000000815260040180806020018281038252601d8152602001807f416464726573733a20696e73756666696369656e742062616c616e636500000081525060200191505060405180910390fd5b60008273ffffffffffffffffffffffffffffffffffffffff168260405180600001905060006040518083038185875af1925050503d8060008114610ba5576040519150601f19603f3d011682016040523d82523d6000602084013e610baa565b606091505b5050905080610c04576040517f08c379a000000000000000000000000000000000000000000000000000000000815260040180806020018281038252603a815260200180611188603a913960400191505060405180910390fd5b505050565b6000803090506000813b9050600081149250505090565b600060019054906101000a900460ff1680610c3f5750610c3e610c09565b5b80610c55575060008054906101000a900460ff16155b610caa576040517f08c379a000000000000000000000000000000000000000000000000000000000815260040180806020018281038252602e8152602001806111c2602e913960400191505060405180910390fd5b60008060019054906101000a900460ff161590508015610cfa576001600060016101000a81548160ff02191690831515021790555060016000806101000a81548160ff0219169083151502179055505b610d02610dbe565b610d0a610ebc565b610d12611063565b8015610d335760008060016101000a81548160ff0219169083151502179055505b50565b600080828401905083811015610db4576040517f08c379a000000000000000000000000000000000000000000000000000000000815260040180806020018281038252601b8152602001807f536166654d6174683a206164646974696f6e206f766572666c6f77000000000081525060200191505060405180910390fd5b8091505092915050565b600060019054906101000a900460ff1680610ddd5750610ddc610c09565b5b80610df3575060008054906101000a900460ff16155b610e48576040517f08c379a000000000000000000000000000000000000000000000000000000000815260040180806020018281038252602e8152602001806111c2602e913960400191505060405180910390fd5b60008060019054906101000a900460ff161590508015610e98576001600060016101000a81548160ff02191690831515021790555060016000806101000a81548160ff0219169083151502179055505b8015610eb95760008060016101000a81548160ff0219169083151502179055505b50565b600060019054906101000a900460ff1680610edb5750610eda610c09565b5b80610ef1575060008054906101000a900460ff16155b610f46576040517f08c379a000000000000000000000000000000000000000000000000000000000815260040180806020018281038252602e8152602001806111c2602e913960400191505060405180910390fd5b60008060019054906101000a900460ff161590508015610f96576001600060016101000a81548160ff02191690831515021790555060016000806101000a81548160ff0219169083151502179055505b6000610fa0610ac7565b905080603360006101000a81548173ffffffffffffffffffffffffffffffffffffffff021916908373ffffffffffffffffffffffffffffffffffffffff1602179055508073ffffffffffffffffffffffffffffffffffffffff16600073ffffffffffffffffffffffffffffffffffffffff167f8be0079c531659141344cd1fd0a4f28419497f9722a3daafe3b4186f6b6457e060405160405180910390a35080156110605760008060016101000a81548160ff0219169083151502179055505b50565b600060019054906101000a900460ff16806110825750611081610c09565b5b80611098575060008054906101000a900460ff16155b6110ed576040517f08c379a000000000000000000000000000000000000000000000000000000000815260040180806020018281038252602e8152602001806111c2602e913960400191505060405180910390fd5b60008060019054906101000a900460ff16159050801561113d576001600060016101000a81548160ff02191690831515021790555060016000806101000a81548160ff0219169083151502179055505b801561115e5760008060016101000a81548160ff0219169083151502179055505b5056fe4f776e61626c653a206e6577206f776e657220697320746865207a65726f2061646472657373416464726573733a20756e61626c6520746f2073656e642076616c75652c20726563697069656e74206d61792068617665207265766572746564496e697469616c697a61626c653a20636f6e747261637420697320616c726561647920696e697469616c697a6564a2646970667358221220e8308aca0899339a8449a38d1ec2900bc79f9ae83f354516cc49c0ea7389a59664736f6c634300060c0033496e697469616c697a61626c653a20636f6e747261637420697320616c726561647920696e697469616c697a65645061796d656e743a20757365722061646472657373206973206e6f7420636f6e7472616374a264697066735822122069dc829d65591ca4359e96526f94b97fbb8807954bb610629c9239d777b19dde64736f6c634300060c0033",
  "immutableReferences": {},
  "source": "// SPDX-License-Identifier: MIT\npragma solidity ^0.6.0;\n\nimport \"@openzeppelin/contracts-upgradeable/proxy/Initializable.sol\";\nimport \"@openzeppelin/contracts-upgradeable/GSN/ContextUpgradeable.sol\";\nimport \"@openzeppelin/contracts-upgradeable/payment/PullPaymentUpgradeable.sol\";\nimport \"@openzeppelin/contracts-upgradeable/utils/AddressUpgradeable.sol\";\nimport \"@openzeppelin/contracts-upgradeable/utils/ReentrancyGuardUpgradeable.sol\";\nimport \"./User.sol\";\n\n/**\n * @title MarketPlace Payments\n * @author Susanto Wu\n * @dev Keep track of payments using pull payment pattern.\n */\ncontract Payment is\n    Initializable,\n    ContextUpgradeable,\n    PullPaymentUpgradeable,\n    ReentrancyGuardUpgradeable\n{\n    using AddressUpgradeable for address;\n\n    /**\n     * @dev Required contracts.\n     */\n    User private _user;\n\n    /**\n     * @dev Throw if address not seller.\n     */\n    modifier onlySeller(address account) {\n        require(isSeller(account), \"Payment: address is not seller\");\n        _;\n    }\n\n    /**\n     * @dev Initialize parent constructur.\n     */\n    function initialize(address user) public initializer {\n        require(user.isContract(), \"Payment: user address is not contract\");\n\n        __PullPayment_init();\n        __ReentrancyGuard_init();\n\n        _user = User(user);\n    }\n\n    function isSeller(address account) private view returns (bool) {\n        return _user.isSeller(account);\n    }\n\n    /**\n     * @dev Check store payments and release to sender address.\n     */\n    function withdraw() public onlySeller(_msgSender()) nonReentrant {\n        require(payments(_msgSender()) > 0, \"Payment: no fund to withdraw\");\n\n        withdrawPayments(_msgSender());\n    }\n\n    /**\n     * @dev Add payment to payee address.\n     */\n    function pay(address payee, uint256 amount)\n        public\n        payable\n        onlySeller(payee)\n    {\n        _asyncTransfer(payee, amount);\n    }\n}\n",
  "sourcePath": "/Users/susantowu/Projects/online-marketplace/contracts/v1/Payment.sol",
  "compiler": {
    "name": "solc",
    "version": "0.6.12+commit.27d51765.Emscripten.clang"
  },
  "schemaVersion": "3.3.2",
  "updatedAt": "2020-11-25T15:26:26.532Z",
  "networkType": "ethereum",
  "devdoc": {
    "author": "Susanto Wu",
    "details": "Keep track of payments using pull payment pattern.",
    "kind": "dev",
    "methods": {
      "initialize(address)": {
        "details": "Initialize parent constructur."
      },
      "pay(address,uint256)": {
        "details": "Add payment to payee address."
      },
      "payments(address)": {
        "details": "Returns the payments owed to an address.",
        "params": {
          "dest": "The creditor's address."
        }
      },
      "withdraw()": {
        "details": "Check store payments and release to sender address."
      },
      "withdrawPayments(address)": {
        "details": "Withdraw accumulated payments, forwarding all gas to the recipient. Note that _any_ account can call this function, not just the `payee`. This means that contracts unaware of the `PullPayment` protocol can still receive funds this way, by having a separate account call {withdrawPayments}. WARNING: Forwarding all gas opens the door to reentrancy vulnerabilities. Make sure you trust the recipient, or are either following the checks-effects-interactions pattern or using {ReentrancyGuard}.",
        "params": {
          "payee": "Whose payments will be withdrawn."
        }
      }
    },
    "stateVariables": {
      "_user": {
        "details": "Required contracts."
      }
    },
    "title": "MarketPlace Payments",
    "version": 1
  },
  "userdoc": {
    "kind": "user",
    "methods": {},
    "version": 1
  }
}