{
  "contractName": "PullPaymentUpgradeable",
  "abi": [
    {
      "inputs": [
        {
          "internalType": "address payable",
          "name": "payee",
          "type": "address"
        }
      ],
      "name": "withdrawPayments",
      "outputs": [],
      "stateMutability": "nonpayable",
      "type": "function"
    },
    {
      "inputs": [
        {
          "internalType": "address",
          "name": "dest",
          "type": "address"
        }
      ],
      "name": "payments",
      "outputs": [
        {
          "internalType": "uint256",
          "name": "",
          "type": "uint256"
        }
      ],
      "stateMutability": "view",
      "type": "function"
    }
  ],
  "bytecode": "0x608060405234801561001057600080fd5b5061027f806100206000396000f3fe608060405234801561001057600080fd5b50600436106100365760003560e01c806331b3eb941461003b578063e2982c211461007f575b600080fd5b61007d6004803603602081101561005157600080fd5b81019080803573ffffffffffffffffffffffffffffffffffffffff1690602001909291905050506100d7565b005b6100c16004803603602081101561009557600080fd5b81019080803573ffffffffffffffffffffffffffffffffffffffff16906020019092919050505061017d565b6040518082815260200191505060405180910390f35b600060029054906101000a900473ffffffffffffffffffffffffffffffffffffffff1673ffffffffffffffffffffffffffffffffffffffff166351cff8d9826040518263ffffffff1660e01b8152600401808273ffffffffffffffffffffffffffffffffffffffff168152602001915050600060405180830381600087803b15801561016257600080fd5b505af1158015610176573d6000803e3d6000fd5b5050505050565b60008060029054906101000a900473ffffffffffffffffffffffffffffffffffffffff1673ffffffffffffffffffffffffffffffffffffffff1663e3a9db1a836040518263ffffffff1660e01b8152600401808273ffffffffffffffffffffffffffffffffffffffff16815260200191505060206040518083038186803b15801561020757600080fd5b505afa15801561021b573d6000803e3d6000fd5b505050506040513d602081101561023157600080fd5b8101908080519060200190929190505050905091905056fea2646970667358221220d93628fb5b1a54b546d43cfa0eb1955224749a77d45ce589db6db00ece61998b64736f6c634300060c0033",
  "immutableReferences": {},
  "source": "// SPDX-License-Identifier: MIT\n\npragma solidity ^0.6.2;\n\nimport \"./escrow/EscrowUpgradeable.sol\";\nimport \"../proxy/Initializable.sol\";\n\n/**\n * @dev Simple implementation of a\n * https://consensys.github.io/smart-contract-best-practices/recommendations/#favor-pull-over-push-for-external-calls[pull-payment]\n * strategy, where the paying contract doesn't interact directly with the\n * receiver account, which must withdraw its payments itself.\n *\n * Pull-payments are often considered the best practice when it comes to sending\n * Ether, security-wise. It prevents recipients from blocking execution, and\n * eliminates reentrancy concerns.\n *\n * TIP: If you would like to learn more about reentrancy and alternative ways\n * to protect against it, check out our blog post\n * https://blog.openzeppelin.com/reentrancy-after-istanbul/[Reentrancy After Istanbul].\n *\n * To use, derive from the `PullPayment` contract, and use {_asyncTransfer}\n * instead of Solidity's `transfer` function. Payees can query their due\n * payments with {payments}, and retrieve them with {withdrawPayments}.\n */\ncontract PullPaymentUpgradeable is Initializable {\n    EscrowUpgradeable private _escrow;\n\n    function __PullPayment_init() internal initializer {\n        __PullPayment_init_unchained();\n    }\n\n    function __PullPayment_init_unchained() internal initializer {\n        _escrow = new EscrowUpgradeable();\n        _escrow.initialize();\n    }\n\n    /**\n     * @dev Withdraw accumulated payments, forwarding all gas to the recipient.\n     *\n     * Note that _any_ account can call this function, not just the `payee`.\n     * This means that contracts unaware of the `PullPayment` protocol can still\n     * receive funds this way, by having a separate account call\n     * {withdrawPayments}.\n     *\n     * WARNING: Forwarding all gas opens the door to reentrancy vulnerabilities.\n     * Make sure you trust the recipient, or are either following the\n     * checks-effects-interactions pattern or using {ReentrancyGuard}.\n     *\n     * @param payee Whose payments will be withdrawn.\n     */\n    function withdrawPayments(address payable payee) public virtual {\n        _escrow.withdraw(payee);\n    }\n\n    /**\n     * @dev Returns the payments owed to an address.\n     * @param dest The creditor's address.\n     */\n    function payments(address dest) public view returns (uint256) {\n        return _escrow.depositsOf(dest);\n    }\n\n    /**\n     * @dev Called by the payer to store the sent amount as credit to be pulled.\n     * Funds sent in this way are stored in an intermediate {Escrow} contract, so\n     * there is no danger of them being spent before withdrawal.\n     *\n     * @param dest The destination address of the funds.\n     * @param amount The amount to transfer.\n     */\n    function _asyncTransfer(address dest, uint256 amount) internal virtual {\n        _escrow.deposit{ value: amount }(dest);\n    }\n    uint256[49] private __gap;\n}\n",
  "sourcePath": "@openzeppelin/contracts-upgradeable/payment/PullPaymentUpgradeable.sol",
  "compiler": {
    "name": "solc",
    "version": "0.6.12+commit.27d51765.Emscripten.clang"
  },
  "schemaVersion": "3.3.2",
  "updatedAt": "2020-11-25T10:22:53.214Z",
  "devdoc": {
    "details": "Simple implementation of a https://consensys.github.io/smart-contract-best-practices/recommendations/#favor-pull-over-push-for-external-calls[pull-payment] strategy, where the paying contract doesn't interact directly with the receiver account, which must withdraw its payments itself. Pull-payments are often considered the best practice when it comes to sending Ether, security-wise. It prevents recipients from blocking execution, and eliminates reentrancy concerns. TIP: If you would like to learn more about reentrancy and alternative ways to protect against it, check out our blog post https://blog.openzeppelin.com/reentrancy-after-istanbul/[Reentrancy After Istanbul]. To use, derive from the `PullPayment` contract, and use {_asyncTransfer} instead of Solidity's `transfer` function. Payees can query their due payments with {payments}, and retrieve them with {withdrawPayments}.",
    "kind": "dev",
    "methods": {
      "payments(address)": {
        "details": "Returns the payments owed to an address.",
        "params": {
          "dest": "The creditor's address."
        }
      },
      "withdrawPayments(address)": {
        "details": "Withdraw accumulated payments, forwarding all gas to the recipient. Note that _any_ account can call this function, not just the `payee`. This means that contracts unaware of the `PullPayment` protocol can still receive funds this way, by having a separate account call {withdrawPayments}. WARNING: Forwarding all gas opens the door to reentrancy vulnerabilities. Make sure you trust the recipient, or are either following the checks-effects-interactions pattern or using {ReentrancyGuard}.",
        "params": {
          "payee": "Whose payments will be withdrawn."
        }
      }
    },
    "version": 1
  },
  "userdoc": {
    "kind": "user",
    "methods": {},
    "version": 1
  }
}