{
  "contractName": "Store",
  "abi": [
    {
      "anonymous": false,
      "inputs": [
        {
          "indexed": false,
          "internalType": "uint256",
          "name": "id",
          "type": "uint256"
        },
        {
          "indexed": false,
          "internalType": "string",
          "name": "name",
          "type": "string"
        },
        {
          "indexed": false,
          "internalType": "uint256",
          "name": "quantity",
          "type": "uint256"
        },
        {
          "indexed": false,
          "internalType": "uint256",
          "name": "price",
          "type": "uint256"
        },
        {
          "indexed": false,
          "internalType": "uint256",
          "name": "storeId",
          "type": "uint256"
        },
        {
          "indexed": false,
          "internalType": "address",
          "name": "seller",
          "type": "address"
        }
      ],
      "name": "ProductAdded",
      "type": "event"
    },
    {
      "anonymous": false,
      "inputs": [
        {
          "indexed": false,
          "internalType": "uint256",
          "name": "id",
          "type": "uint256"
        },
        {
          "indexed": false,
          "internalType": "uint256",
          "name": "quantity",
          "type": "uint256"
        },
        {
          "indexed": false,
          "internalType": "uint256",
          "name": "paid",
          "type": "uint256"
        },
        {
          "indexed": false,
          "internalType": "address",
          "name": "buyer",
          "type": "address"
        }
      ],
      "name": "ProductBought",
      "type": "event"
    },
    {
      "anonymous": false,
      "inputs": [
        {
          "indexed": false,
          "internalType": "uint256",
          "name": "id",
          "type": "uint256"
        },
        {
          "indexed": false,
          "internalType": "uint256",
          "name": "storeId",
          "type": "uint256"
        },
        {
          "indexed": false,
          "internalType": "address",
          "name": "seller",
          "type": "address"
        }
      ],
      "name": "ProductRemoved",
      "type": "event"
    },
    {
      "anonymous": false,
      "inputs": [
        {
          "indexed": false,
          "internalType": "uint256",
          "name": "id",
          "type": "uint256"
        },
        {
          "indexed": false,
          "internalType": "uint256",
          "name": "oldPrice",
          "type": "uint256"
        },
        {
          "indexed": false,
          "internalType": "uint256",
          "name": "price",
          "type": "uint256"
        },
        {
          "indexed": false,
          "internalType": "address",
          "name": "seller",
          "type": "address"
        }
      ],
      "name": "ProductUpdated",
      "type": "event"
    },
    {
      "anonymous": false,
      "inputs": [
        {
          "indexed": false,
          "internalType": "uint256",
          "name": "id",
          "type": "uint256"
        },
        {
          "indexed": false,
          "internalType": "string",
          "name": "name",
          "type": "string"
        },
        {
          "indexed": false,
          "internalType": "address",
          "name": "seller",
          "type": "address"
        }
      ],
      "name": "StoreCreated",
      "type": "event"
    },
    {
      "anonymous": false,
      "inputs": [
        {
          "indexed": false,
          "internalType": "uint256",
          "name": "id",
          "type": "uint256"
        },
        {
          "indexed": false,
          "internalType": "address",
          "name": "seller",
          "type": "address"
        }
      ],
      "name": "StoreRemoved",
      "type": "event"
    },
    {
      "inputs": [
        {
          "internalType": "address",
          "name": "user",
          "type": "address"
        },
        {
          "internalType": "address",
          "name": "payment",
          "type": "address"
        }
      ],
      "name": "initialize",
      "outputs": [],
      "stateMutability": "nonpayable",
      "type": "function"
    },
    {
      "inputs": [
        {
          "internalType": "string",
          "name": "name",
          "type": "string"
        }
      ],
      "name": "open",
      "outputs": [],
      "stateMutability": "nonpayable",
      "type": "function"
    },
    {
      "inputs": [],
      "name": "getStoreCount",
      "outputs": [
        {
          "internalType": "uint256",
          "name": "",
          "type": "uint256"
        }
      ],
      "stateMutability": "view",
      "type": "function",
      "constant": true
    },
    {
      "inputs": [
        {
          "internalType": "uint256",
          "name": "index",
          "type": "uint256"
        }
      ],
      "name": "getStore",
      "outputs": [
        {
          "internalType": "uint256",
          "name": "",
          "type": "uint256"
        },
        {
          "internalType": "string",
          "name": "",
          "type": "string"
        }
      ],
      "stateMutability": "view",
      "type": "function",
      "constant": true
    },
    {
      "inputs": [
        {
          "internalType": "uint256",
          "name": "index",
          "type": "uint256"
        }
      ],
      "name": "getStoreId",
      "outputs": [
        {
          "internalType": "uint256",
          "name": "",
          "type": "uint256"
        }
      ],
      "stateMutability": "view",
      "type": "function",
      "constant": true
    },
    {
      "inputs": [
        {
          "internalType": "uint256",
          "name": "id",
          "type": "uint256"
        }
      ],
      "name": "close",
      "outputs": [],
      "stateMutability": "nonpayable",
      "type": "function"
    },
    {
      "inputs": [
        {
          "internalType": "string",
          "name": "name",
          "type": "string"
        },
        {
          "internalType": "uint256",
          "name": "quantity",
          "type": "uint256"
        },
        {
          "internalType": "uint256",
          "name": "price",
          "type": "uint256"
        },
        {
          "internalType": "uint256",
          "name": "storeId",
          "type": "uint256"
        }
      ],
      "name": "add",
      "outputs": [],
      "stateMutability": "nonpayable",
      "type": "function"
    },
    {
      "inputs": [
        {
          "internalType": "uint256",
          "name": "storeId",
          "type": "uint256"
        }
      ],
      "name": "getStoreProductCount",
      "outputs": [
        {
          "internalType": "uint256",
          "name": "",
          "type": "uint256"
        }
      ],
      "stateMutability": "view",
      "type": "function",
      "constant": true
    },
    {
      "inputs": [
        {
          "internalType": "uint256",
          "name": "storeId",
          "type": "uint256"
        },
        {
          "internalType": "uint256",
          "name": "index",
          "type": "uint256"
        }
      ],
      "name": "getStoreProductId",
      "outputs": [
        {
          "internalType": "uint256",
          "name": "",
          "type": "uint256"
        }
      ],
      "stateMutability": "view",
      "type": "function",
      "constant": true
    },
    {
      "inputs": [
        {
          "internalType": "uint256",
          "name": "storeId",
          "type": "uint256"
        },
        {
          "internalType": "uint256",
          "name": "index",
          "type": "uint256"
        }
      ],
      "name": "getStoreProduct",
      "outputs": [
        {
          "internalType": "uint256",
          "name": "",
          "type": "uint256"
        },
        {
          "internalType": "string",
          "name": "",
          "type": "string"
        },
        {
          "internalType": "uint256",
          "name": "",
          "type": "uint256"
        },
        {
          "internalType": "uint256",
          "name": "",
          "type": "uint256"
        },
        {
          "internalType": "uint256",
          "name": "",
          "type": "uint256"
        }
      ],
      "stateMutability": "view",
      "type": "function",
      "constant": true
    },
    {
      "inputs": [
        {
          "internalType": "uint256",
          "name": "page",
          "type": "uint256"
        },
        {
          "internalType": "uint256",
          "name": "count",
          "type": "uint256"
        }
      ],
      "name": "getProductPaginate",
      "outputs": [
        {
          "internalType": "uint256",
          "name": "",
          "type": "uint256"
        },
        {
          "internalType": "uint256",
          "name": "",
          "type": "uint256"
        },
        {
          "internalType": "uint256",
          "name": "",
          "type": "uint256"
        },
        {
          "internalType": "uint256",
          "name": "",
          "type": "uint256"
        }
      ],
      "stateMutability": "view",
      "type": "function",
      "constant": true
    },
    {
      "inputs": [
        {
          "internalType": "uint256",
          "name": "index",
          "type": "uint256"
        }
      ],
      "name": "getProductListProduct",
      "outputs": [
        {
          "internalType": "uint256",
          "name": "",
          "type": "uint256"
        },
        {
          "internalType": "string",
          "name": "",
          "type": "string"
        },
        {
          "internalType": "uint256",
          "name": "",
          "type": "uint256"
        },
        {
          "internalType": "uint256",
          "name": "",
          "type": "uint256"
        },
        {
          "internalType": "uint256",
          "name": "",
          "type": "uint256"
        }
      ],
      "stateMutability": "view",
      "type": "function",
      "constant": true
    },
    {
      "inputs": [
        {
          "internalType": "uint256",
          "name": "id",
          "type": "uint256"
        }
      ],
      "name": "getProduct",
      "outputs": [
        {
          "internalType": "uint256",
          "name": "",
          "type": "uint256"
        },
        {
          "internalType": "string",
          "name": "",
          "type": "string"
        },
        {
          "internalType": "uint256",
          "name": "",
          "type": "uint256"
        },
        {
          "internalType": "uint256",
          "name": "",
          "type": "uint256"
        },
        {
          "internalType": "uint256",
          "name": "",
          "type": "uint256"
        }
      ],
      "stateMutability": "view",
      "type": "function",
      "constant": true
    },
    {
      "inputs": [
        {
          "internalType": "uint256",
          "name": "storeId",
          "type": "uint256"
        },
        {
          "internalType": "uint256",
          "name": "id",
          "type": "uint256"
        }
      ],
      "name": "remove",
      "outputs": [],
      "stateMutability": "nonpayable",
      "type": "function"
    },
    {
      "inputs": [
        {
          "internalType": "uint256",
          "name": "storeId",
          "type": "uint256"
        },
        {
          "internalType": "uint256",
          "name": "id",
          "type": "uint256"
        },
        {
          "internalType": "uint256",
          "name": "price",
          "type": "uint256"
        }
      ],
      "name": "update",
      "outputs": [],
      "stateMutability": "nonpayable",
      "type": "function"
    },
    {
      "inputs": [
        {
          "internalType": "uint256",
          "name": "id",
          "type": "uint256"
        },
        {
          "internalType": "uint256",
          "name": "quantity",
          "type": "uint256"
        }
      ],
      "name": "buy",
      "outputs": [],
      "stateMutability": "payable",
      "type": "function",
      "payable": true
    },
    {
      "inputs": [
        {
          "internalType": "uint256",
          "name": "id",
          "type": "uint256"
        },
        {
          "internalType": "uint256",
          "name": "quantity",
          "type": "uint256"
        },
        {
          "internalType": "uint256",
          "name": "total",
          "type": "uint256"
        }
      ],
      "name": "settle",
      "outputs": [],
      "stateMutability": "payable",
      "type": "function",
      "payable": true
    }
  ],
  "bytecode": "0x608060405234801561001057600080fd5b50612d69806100206000396000f3fe6080604052600436106100fe5760003560e01c80638f694b8211610095578063c6d361af11610064578063c6d361af14610618578063d057442e14610686578063d6febde814610760578063df51db6414610798578063e4dcb06b14610868576100fe565b80638f694b821461047f57806398e8bd97146104ce578063b9db15b4146104f9578063be1be201146105c9576100fe565b80636526db7a116100d15780636526db7a146102d75780636a0542501461031c5780637dddb2661461036b57806383403120146103c4576100fe565b80630aebeb4e146101035780630f3eb7851461013e578063485cc95514610224578063574cdded14610295575b600080fd5b34801561010f57600080fd5b5061013c6004803603602081101561012657600080fd5b8101908080359060200190929190505050610930565b005b34801561014a57600080fd5b506102226004803603608081101561016157600080fd5b810190808035906020019064010000000081111561017e57600080fd5b82018360208201111561019057600080fd5b803590602001918460018302840111640100000000831117156101b257600080fd5b91908080601f016020809104026020016040519081016040528093929190818152602001838380828437600081840152601f19601f820116905080830192505050505050509192919290803590602001909291908035906020019092919080359060200190929190505050610c89565b005b34801561023057600080fd5b506102936004803603604081101561024757600080fd5b81019080803573ffffffffffffffffffffffffffffffffffffffff169060200190929190803573ffffffffffffffffffffffffffffffffffffffff16906020019092919050505061105e565b005b6102d5600480360360608110156102ab57600080fd5b810190808035906020019092919080359060200190929190803590602001909291905050506112d0565b005b3480156102e357600080fd5b5061031a600480360360408110156102fa57600080fd5b810190808035906020019092919080359060200190929190505050611481565b005b34801561032857600080fd5b506103696004803603606081101561033f57600080fd5b81019080803590602001909291908035906020019092919080359060200190929190505050611770565b005b34801561037757600080fd5b506103ae6004803603604081101561038e57600080fd5b810190808035906020019092919080359060200190929190505050611a2e565b6040518082815260200191505060405180910390f35b3480156103d057600080fd5b506103fd600480360360208110156103e757600080fd5b8101908080359060200190929190505050611a5d565b6040518083815260200180602001828103825283818151815260200191508051906020019080838360005b83811015610443578082015181840152602081019050610428565b50505050905090810190601f1680156104705780820380516001836020036101000a031916815260200191505b50935050505060405180910390f35b34801561048b57600080fd5b506104b8600480360360208110156104a257600080fd5b8101908080359060200190929190505050611b31565b6040518082815260200191505060405180910390f35b3480156104da57600080fd5b506104e3611b92565b6040518082815260200191505060405180910390f35b34801561050557600080fd5b506105326004803603602081101561051c57600080fd5b8101908080359060200190929190505050611be7565b6040518086815260200180602001858152602001848152602001838152602001828103825286818151815260200191508051906020019080838360005b8381101561058a57808201518184015260208101905061056f565b50505050905090810190601f1680156105b75780820380516001836020036101000a031916815260200191505b50965050505050505060405180910390f35b3480156105d557600080fd5b50610602600480360360208110156105ec57600080fd5b8101908080359060200190929190505050611cca565b6040518082815260200191505060405180910390f35b34801561062457600080fd5b5061065b6004803603604081101561063b57600080fd5b810190808035906020019092919080359060200190929190505050611cee565b6040518085815260200184815260200183815260200182815260200194505050505060405180910390f35b34801561069257600080fd5b506106c9600480360360408110156106a957600080fd5b810190808035906020019092919080359060200190929190505050611d19565b6040518086815260200180602001858152602001848152602001838152602001828103825286818151815260200191508051906020019080838360005b83811015610721578082015181840152602081019050610706565b50505050905090810190601f16801561074e5780820380516001836020036101000a031916815260200191505b50965050505050505060405180910390f35b6107966004803603604081101561077657600080fd5b810190808035906020019092919080359060200190929190505050611d4d565b005b3480156107a457600080fd5b506107d1600480360360208110156107bb57600080fd5b8101908080359060200190929190505050611f03565b6040518086815260200180602001858152602001848152602001838152602001828103825286818151815260200191508051906020019080838360005b8381101561082957808201518184015260208101905061080e565b50505050905090810190601f1680156108565780820380516001836020036101000a031916815260200191505b50965050505050505060405180910390f35b34801561087457600080fd5b5061092e6004803603602081101561088b57600080fd5b81019080803590602001906401000000008111156108a857600080fd5b8201836020820111156108ba57600080fd5b803590602001918460018302840111640100000000831117156108dc57600080fd5b91908080601f016020809104026020016040519081016040528093929190818152602001838380828437600081840152601f19601f820116905080830192505050505050509192919290505050611f3b565b005b603360009054906101000a900473ffffffffffffffffffffffffffffffffffffffff1673ffffffffffffffffffffffffffffffffffffffff1663ee95feaf610976612267565b6040518263ffffffff1660e01b8152600401808273ffffffffffffffffffffffffffffffffffffffff16815260200191505060206040518083038186803b1580156109c057600080fd5b505afa1580156109d4573d6000803e3d6000fd5b505050506040513d60208110156109ea57600080fd5b8101908080519060200190929190505050610a6d576040517f08c379a000000000000000000000000000000000000000000000000000000000815260040180806020018281038252601c8152602001807f53746f72653a2061646472657373206973206e6f742073656c6c65720000000081525060200191505060405180910390fd5b80610ac68160366000610a7e612267565b73ffffffffffffffffffffffffffffffffffffffff1673ffffffffffffffffffffffffffffffffffffffff16815260200190815260200160002061226f90919063ffffffff16565b610b38576040517f08c379a000000000000000000000000000000000000000000000000000000000815260040180806020018281038252601b8152602001807f53746f72653a206e6f742062656c6f6e6720746f2073656e646572000000000081525060200191505060405180910390fd5b60005b610b5660396000858152602001908152602001600020612289565b811015610b7d57610b7083610b6b8584611a2e565b611481565b8080600101915050610b3b565b50610bd68260366000610b8e612267565b73ffffffffffffffffffffffffffffffffffffffff1673ffffffffffffffffffffffffffffffffffffffff16815260200190815260200160002061229e90919063ffffffff16565b15610c85576037600083815260200190815260200160002060008082016000610bff9190612b38565b6001820160006101000a81549073ffffffffffffffffffffffffffffffffffffffff021916905550507f61b27c5bb91d1b449f939dee82d22e91fa1387896e7afd60876204866d5f583d82610c52612267565b604051808381526020018273ffffffffffffffffffffffffffffffffffffffff1681526020019250505060405180910390a15b5050565b603360009054906101000a900473ffffffffffffffffffffffffffffffffffffffff1673ffffffffffffffffffffffffffffffffffffffff1663ee95feaf610ccf612267565b6040518263ffffffff1660e01b8152600401808273ffffffffffffffffffffffffffffffffffffffff16815260200191505060206040518083038186803b158015610d1957600080fd5b505afa158015610d2d573d6000803e3d6000fd5b505050506040513d6020811015610d4357600080fd5b8101908080519060200190929190505050610dc6576040517f08c379a000000000000000000000000000000000000000000000000000000000815260040180806020018281038252601c8152602001807f53746f72653a2061646472657373206973206e6f742073656c6c65720000000081525060200191505060405180910390fd5b80610e1f8160366000610dd7612267565b73ffffffffffffffffffffffffffffffffffffffff1673ffffffffffffffffffffffffffffffffffffffff16815260200190815260200160002061226f90919063ffffffff16565b610e91576040517f08c379a000000000000000000000000000000000000000000000000000000000815260040180806020018281038252601b8152602001807f53746f72653a206e6f742062656c6f6e6720746f2073656e646572000000000081525060200191505060405180910390fd5b60008311610e9e57600080fd5b60008411610eab57600080fd5b6000610eb760386122b8565b9050610ede81603960008681526020019081526020016000206122c690919063ffffffff16565b1561105657604051806080016040528087815260200186815260200185815260200184815250603c60008381526020019081526020016000206000820151816000019080519060200190610f33929190612b80565b50602082015181600101556040820151816002015560608201518160030155905050610f6981603a6122c690919063ffffffff16565b50610f7460386122e0565b7fd3f2fc3ba4b145faf8cf5e427dffec35dec514ca3388339f95ccab1568209c708187878787610fa2612267565b60405180878152602001806020018681526020018581526020018481526020018373ffffffffffffffffffffffffffffffffffffffff168152602001828103825287818151815260200191508051906020019080838360005b83811015611016578082015181840152602081019050610ffb565b50505050905090810190601f1680156110435780820380516001836020036101000a031916815260200191505b5097505050505050505060405180910390a15b505050505050565b600060019054906101000a900460ff168061107d575061107c6122f6565b5b80611093575060008054906101000a900460ff16155b6110e8576040517f08c379a000000000000000000000000000000000000000000000000000000000815260040180806020018281038252602e815260200180612ce5602e913960400191505060405180910390fd5b60008060019054906101000a900460ff161590508015611138576001600060016101000a81548160ff02191690831515021790555060016000806101000a81548160ff0219169083151502179055505b6111578373ffffffffffffffffffffffffffffffffffffffff1661230d565b6111ac576040517f08c379a0000000000000000000000000000000000000000000000000000000008152600401808060200182810382526023815260200180612c666023913960400191505060405180910390fd5b6111cb8273ffffffffffffffffffffffffffffffffffffffff1661230d565b611220576040517f08c379a0000000000000000000000000000000000000000000000000000000008152600401808060200182810382526026815260200180612c406026913960400191505060405180910390fd5b611228612320565b82603360006101000a81548173ffffffffffffffffffffffffffffffffffffffff021916908373ffffffffffffffffffffffffffffffffffffffff16021790555081603460006101000a81548173ffffffffffffffffffffffffffffffffffffffff021916908373ffffffffffffffffffffffffffffffffffffffff16021790555080156112cb5760008060016101000a81548160ff0219169083151502179055505b505050565b828280603c6000848152602001908152602001600020600101541015611341576040517f08c379a0000000000000000000000000000000000000000000000000000000008152600401808060200182810382526022815260200180612c896022913960400191505060405180910390fd5b84846000603c60008981526020019081526020016000209050603460009054906101000a900473ffffffffffffffffffffffffffffffffffffffff1673ffffffffffffffffffffffffffffffffffffffff1663c407687687603760008560030154815260200190815260200160002060010160009054906101000a900473ffffffffffffffffffffffffffffffffffffffff16896040518463ffffffff1660e01b8152600401808373ffffffffffffffffffffffffffffffffffffffff168152602001828152602001925050506000604051808303818588803b15801561142757600080fd5b505af115801561143b573d6000803e3d6000fd5b5050505050506000603c6000848152602001908152602001600020905061146f82826001015461242690919063ffffffff16565b81600101819055505050505050505050565b603360009054906101000a900473ffffffffffffffffffffffffffffffffffffffff1673ffffffffffffffffffffffffffffffffffffffff1663ee95feaf6114c7612267565b6040518263ffffffff1660e01b8152600401808273ffffffffffffffffffffffffffffffffffffffff16815260200191505060206040518083038186803b15801561151157600080fd5b505afa158015611525573d6000803e3d6000fd5b505050506040513d602081101561153b57600080fd5b81019080805190602001909291905050506115be576040517f08c379a000000000000000000000000000000000000000000000000000000000815260040180806020018281038252601c8152602001807f53746f72653a2061646472657373206973206e6f742073656c6c65720000000081525060200191505060405180910390fd5b8161161781603660006115cf612267565b73ffffffffffffffffffffffffffffffffffffffff1673ffffffffffffffffffffffffffffffffffffffff16815260200190815260200160002061226f90919063ffffffff16565b611689576040517f08c379a000000000000000000000000000000000000000000000000000000000815260040180806020018281038252601b8152602001807f53746f72653a206e6f742062656c6f6e6720746f2073656e646572000000000081525060200191505060405180910390fd5b6116ae826039600086815260200190815260200160002061229e90919063ffffffff16565b1561176b57603c6000838152602001908152602001600020600080820160006116d79190612b38565b600182016000905560028201600090556003820160009055505061170582603a61229e90919063ffffffff16565b507f99f27169232708368a03a09274735dd5a15cbbb15694448bf92d7b37446487b48284611731612267565b604051808481526020018381526020018273ffffffffffffffffffffffffffffffffffffffff168152602001935050505060405180910390a15b505050565b603360009054906101000a900473ffffffffffffffffffffffffffffffffffffffff1673ffffffffffffffffffffffffffffffffffffffff1663ee95feaf6117b6612267565b6040518263ffffffff1660e01b8152600401808273ffffffffffffffffffffffffffffffffffffffff16815260200191505060206040518083038186803b15801561180057600080fd5b505afa158015611814573d6000803e3d6000fd5b505050506040513d602081101561182a57600080fd5b81019080805190602001909291905050506118ad576040517f08c379a000000000000000000000000000000000000000000000000000000000815260040180806020018281038252601c8152602001807f53746f72653a2061646472657373206973206e6f742073656c6c65720000000081525060200191505060405180910390fd5b8261190681603660006118be612267565b73ffffffffffffffffffffffffffffffffffffffff1673ffffffffffffffffffffffffffffffffffffffff16815260200190815260200160002061226f90919063ffffffff16565b611978576040517f08c379a000000000000000000000000000000000000000000000000000000000815260040180806020018281038252601b8152602001807f53746f72653a206e6f742062656c6f6e6720746f2073656e646572000000000081525060200191505060405180910390fd5b6000821161198557600080fd5b6000603c600085815260200190815260200160002060020154905082603c6000868152602001908152602001600020600201819055507f2bb44ae0d1fbafdb8d4db69552aae4f9f93fc428a145ce34b4929b22340eb0498482856119e7612267565b604051808581526020018481526020018381526020018273ffffffffffffffffffffffffffffffffffffffff16815260200194505050505060405180910390a15050505050565b6000611a55826039600086815260200190815260200160002061247090919063ffffffff16565b905092915050565b600060606000611a6c84611b31565b905060006037600083815260200190815260200160002090508181600001808054600181600116156101000203166002900480601f016020809104026020016040519081016040528092919081815260200182805460018160011615610100020316600290048015611b1f5780601f10611af457610100808354040283529160200191611b1f565b820191906000526020600020905b815481529060010190602001808311611b0257829003601f168201915b50505050509050935093505050915091565b6000611b8b8260366000611b43612267565b73ffffffffffffffffffffffffffffffffffffffff1673ffffffffffffffffffffffffffffffffffffffff16815260200190815260200160002061247090919063ffffffff16565b9050919050565b6000611be260366000611ba3612267565b73ffffffffffffffffffffffffffffffffffffffff1673ffffffffffffffffffffffffffffffffffffffff168152602001908152602001600020612289565b905090565b60006060600080600080603c600088815260200190815260200160002090508681600001826001015483600201548460030154838054600181600116156101000203166002900480601f016020809104026020016040519081016040528092919081815260200182805460018160011615610100020316600290048015611caf5780601f10611c8457610100808354040283529160200191611caf565b820191906000526020600020905b815481529060010190602001808311611c9257829003601f168201915b50505050509350955095509550955095505091939590929450565b6000611ce760396000848152602001908152602001600020612289565b9050919050565b600080600080611d088686611d03603a612289565b61248a565b935093509350935092959194509250565b60006060600080600080611d2d8888611a2e565b9050611d3881611be7565b95509550955095509550509295509295909350565b8181611d7881603c60008581526020019081526020016000206002015461252390919063ffffffff16565b341015611ded576040517f08c379a000000000000000000000000000000000000000000000000000000000815260040180806020018281038252601f8152602001807f4d61726b6574506c6163653a20696e73756666696369656e742076616c75650081525060200191505060405180910390fd5b83836000603c600088815260200190815260200160002090506000611e1f87836002015461252390919063ffffffff16565b9050611e2c8888836112d0565b7fff688dc3d8646cd084c861b7c66d55fe86bd315a70ba0e97c633d052bb814b2b888883611e58612267565b604051808581526020018481526020018381526020018273ffffffffffffffffffffffffffffffffffffffff16815260200194505050505060405180910390a1505060003490506000611edc611ecd84603c60008881526020019081526020016000206002015461252390919063ffffffff16565b8361242690919063ffffffff16565b90506000811115611ef957611ef8611ef2612267565b826125a9565b5b5050505050505050565b600060606000806000611f28611f2387603a61247090919063ffffffff16565b611be7565b9450945094509450945091939590929450565b603360009054906101000a900473ffffffffffffffffffffffffffffffffffffffff1673ffffffffffffffffffffffffffffffffffffffff1663ee95feaf611f81612267565b6040518263ffffffff1660e01b8152600401808273ffffffffffffffffffffffffffffffffffffffff16815260200191505060206040518083038186803b158015611fcb57600080fd5b505afa158015611fdf573d6000803e3d6000fd5b505050506040513d6020811015611ff557600080fd5b8101908080519060200190929190505050612078576040517f08c379a000000000000000000000000000000000000000000000000000000000815260040180806020018281038252601c8152602001807f53746f72653a2061646472657373206973206e6f742073656c6c65720000000081525060200191505060405180910390fd5b600061208460356122b8565b90506120de8160366000612096612267565b73ffffffffffffffffffffffffffffffffffffffff1673ffffffffffffffffffffffffffffffffffffffff1681526020019081526020016000206122c690919063ffffffff16565b156122635760405180604001604052808381526020016120fc612267565b73ffffffffffffffffffffffffffffffffffffffff16815250603760008381526020019081526020016000206000820151816000019080519060200190612144929190612b80565b5060208201518160010160006101000a81548173ffffffffffffffffffffffffffffffffffffffff021916908373ffffffffffffffffffffffffffffffffffffffff16021790555090505061219960356122e0565b7f1ab9bebff161cee44cb7b596c79eebb9a1751c073b39bcde1ab700efcdf24d5a81836121c4612267565b60405180848152602001806020018373ffffffffffffffffffffffffffffffffffffffff168152602001828103825284818151815260200191508051906020019080838360005b8381101561222657808201518184015260208101905061220b565b50505050905090810190601f1680156122535780820380516001836020036101000a031916815260200191505b5094505050505060405180910390a15b5050565b600033905090565b6000612281836000018360001b6126e3565b905092915050565b600061229782600001612706565b9050919050565b60006122b0836000018360001b612717565b905092915050565b600081600001549050919050565b60006122d8836000018360001b6127ff565b905092915050565b6001816000016000828254019250508190555050565b6000803090506000813b9050600081149250505090565b600080823b905060008111915050919050565b600060019054906101000a900460ff168061233f575061233e6122f6565b5b80612355575060008054906101000a900460ff16155b6123aa576040517f08c379a000000000000000000000000000000000000000000000000000000000815260040180806020018281038252602e815260200180612ce5602e913960400191505060405180910390fd5b60008060019054906101000a900460ff1615905080156123fa576001600060016101000a81548160ff02191690831515021790555060016000806101000a81548160ff0219169083151502179055505b61240261286f565b80156124235760008060016101000a81548160ff0219169083151502179055505b50565b600061246883836040518060400160405280601e81526020017f536166654d6174683a207375627472616374696f6e206f766572666c6f77000081525061296d565b905092915050565b600061247f8360000183612a2d565b60001c905092915050565b6000806000806124a3868861252390919063ffffffff16565b93506124cb866124bd60018a612ab090919063ffffffff16565b61252390919063ffffffff16565b9250869050869150848311156124e3578492506124fa565b6124f7600188612ab090919063ffffffff16565b90505b600082111561251a5761251760018861242690919063ffffffff16565b91505b93509350935093565b60008083141561253657600090506125a3565b600082840290508284828161254757fe5b041461259e576040517f08c379a0000000000000000000000000000000000000000000000000000000008152600401808060200182810382526021815260200180612d136021913960400191505060405180910390fd5b809150505b92915050565b8047101561261f576040517f08c379a000000000000000000000000000000000000000000000000000000000815260040180806020018281038252601d8152602001807f416464726573733a20696e73756666696369656e742062616c616e636500000081525060200191505060405180910390fd5b60008273ffffffffffffffffffffffffffffffffffffffff168260405180600001905060006040518083038185875af1925050503d806000811461267f576040519150601f19603f3d011682016040523d82523d6000602084013e612684565b606091505b50509050806126de576040517f08c379a000000000000000000000000000000000000000000000000000000000815260040180806020018281038252603a815260200180612cab603a913960400191505060405180910390fd5b505050565b600080836001016000848152602001908152602001600020541415905092915050565b600081600001805490509050919050565b600080836001016000848152602001908152602001600020549050600081146127f3576000600182039050600060018660000180549050039050600086600001828154811061276257fe5b906000526020600020015490508087600001848154811061277f57fe5b90600052602060002001819055506001830187600101600083815260200190815260200160002081905550866000018054806127b757fe5b600190038181906000526020600020016000905590558660010160008781526020019081526020016000206000905560019450505050506127f9565b60009150505b92915050565b600061280b83836126e3565b612864578260000182908060018154018082558091505060019003906000526020600020016000909190919091505582600001805490508360010160008481526020019081526020016000208190555060019050612869565b600090505b92915050565b600060019054906101000a900460ff168061288e575061288d6122f6565b5b806128a4575060008054906101000a900460ff16155b6128f9576040517f08c379a000000000000000000000000000000000000000000000000000000000815260040180806020018281038252602e815260200180612ce5602e913960400191505060405180910390fd5b60008060019054906101000a900460ff161590508015612949576001600060016101000a81548160ff02191690831515021790555060016000806101000a81548160ff0219169083151502179055505b801561296a5760008060016101000a81548160ff0219169083151502179055505b50565b6000838311158290612a1a576040517f08c379a00000000000000000000000000000000000000000000000000000000081526004018080602001828103825283818151815260200191508051906020019080838360005b838110156129df5780820151818401526020810190506129c4565b50505050905090810190601f168015612a0c5780820380516001836020036101000a031916815260200191505b509250505060405180910390fd5b5060008385039050809150509392505050565b600081836000018054905011612a8e576040517f08c379a0000000000000000000000000000000000000000000000000000000008152600401808060200182810382526022815260200180612c1e6022913960400191505060405180910390fd5b826000018281548110612a9d57fe5b9060005260206000200154905092915050565b600080828401905083811015612b2e576040517f08c379a000000000000000000000000000000000000000000000000000000000815260040180806020018281038252601b8152602001807f536166654d6174683a206164646974696f6e206f766572666c6f77000000000081525060200191505060405180910390fd5b8091505092915050565b50805460018160011615610100020316600290046000825580601f10612b5e5750612b7d565b601f016020900490600052602060002090810190612b7c9190612c00565b5b50565b828054600181600116156101000203166002900490600052602060002090601f016020900481019282601f10612bc157805160ff1916838001178555612bef565b82800160010185558215612bef579182015b82811115612bee578251825591602001919060010190612bd3565b5b509050612bfc9190612c00565b5090565b5b80821115612c19576000816000905550600101612c01565b509056fe456e756d657261626c655365743a20696e646578206f7574206f6620626f756e647353746f72653a207061796d656e742061646472657373206973206e6f7420636f6e747261637453746f72653a20757365722061646472657373206973206e6f7420636f6e74726163744d61726b6574506c6163653a20696e73756666696369656e74207175616e74697479416464726573733a20756e61626c6520746f2073656e642076616c75652c20726563697069656e74206d61792068617665207265766572746564496e697469616c697a61626c653a20636f6e747261637420697320616c726561647920696e697469616c697a6564536166654d6174683a206d756c7469706c69636174696f6e206f766572666c6f77a2646970667358221220f3df885c7a7ec332116b50217ed0a221db791b79d2f5721d360b440fe7127c7564736f6c634300060c0033",
  "immutableReferences": {},
  "source": "// SPDX-License-Identifier: MIT\npragma solidity ^0.6.0;\n\nimport \"@openzeppelin/contracts-upgradeable/proxy/Initializable.sol\";\nimport \"@openzeppelin/contracts-upgradeable/GSN/ContextUpgradeable.sol\";\nimport \"@openzeppelin/contracts-upgradeable/math/SafeMathUpgradeable.sol\";\nimport \"@openzeppelin/contracts-upgradeable/utils/AddressUpgradeable.sol\";\nimport \"@openzeppelin/contracts-upgradeable/utils/CountersUpgradeable.sol\";\nimport \"@openzeppelin/contracts-upgradeable/utils/EnumerableSetUpgradeable.sol\";\nimport \"./User.sol\";\nimport \"./Payment.sol\";\n\n/**\n * @title MarketPlace Store\n * @author Susanto Wu\n * @dev Keep track of store, products in store.\n */\ncontract Store is Initializable, ContextUpgradeable {\n    using SafeMathUpgradeable for uint256;\n    using AddressUpgradeable for address;\n    using CountersUpgradeable for CountersUpgradeable.Counter;\n    using EnumerableSetUpgradeable for EnumerableSetUpgradeable.UintSet;\n\n    /**\n     * @dev Required contracts.\n     */\n    User private _user;\n    Payment private _payment;\n\n    struct StoreDetails {\n        string name;\n        address payable seller;\n    }\n\n    struct Product {\n        string name;\n        uint256 quantity;\n        uint256 price;\n        uint256 storeId;\n    }\n\n    /**\n     * @dev User can own multiple stores.\n     * - Counter to facilitate store identifier\n     * - User address to stores list map\n     * - Id to Store map\n     */\n    CountersUpgradeable.Counter storeCounter;\n    mapping(address => EnumerableSetUpgradeable.UintSet) private _sellerStores;\n    mapping(uint256 => StoreDetails) private _stores;\n\n    /**\n     * @dev Store can have multiples products.\n     * - Counter to facilitate product identifier\n     * - Store Id to products list map\n     * - Product id set to facilitate pagination\n     * - Id to Product map\n     */\n    CountersUpgradeable.Counter productCounter;\n    mapping(uint256 => EnumerableSetUpgradeable.UintSet) private _storeProducts;\n    EnumerableSetUpgradeable.UintSet private _productList;\n    mapping(uint256 => Product) private _products;\n\n    /* Events */\n    event StoreCreated(uint256 id, string name, address seller);\n    event StoreRemoved(uint256 id, address seller);\n    event ProductAdded(\n        uint256 id,\n        string name,\n        uint256 quantity,\n        uint256 price,\n        uint256 storeId,\n        address seller\n    );\n    event ProductRemoved(uint256 id, uint256 storeId, address seller);\n    event ProductUpdated(\n        uint256 id,\n        uint256 oldPrice,\n        uint256 price,\n        address seller\n    );\n    event ProductBought(\n        uint256 id,\n        uint256 quantity,\n        uint256 paid,\n        address buyer\n    );\n\n    /**\n     * @dev Throw if address not seller.\n     */\n    modifier onlySeller() {\n        require(_user.isSeller(_msgSender()), \"Store: address is not seller\");\n        _;\n    }\n\n    /**\n     * @dev Throw if store not under sender.\n     */\n    modifier onlyStoreOwner(uint256 storeId) {\n        require(\n            _sellerStores[_msgSender()].contains(storeId),\n            \"Store: not belong to sender\"\n        );\n        _;\n    }\n\n    /**\n     * @dev Throw if sender does not have store.\n     */\n    modifier hasStore() {\n        require(\n            _sellerStores[_msgSender()].length() > 0,\n            \"Store: seller no store\"\n        );\n        _;\n    }\n\n    /**\n     * @dev Initialize parent constructur.\n     */\n    function initialize(address user, address payment) public initializer {\n        require(user.isContract(), \"Store: user address is not contract\");\n        require(payment.isContract(), \"Store: payment address is not contract\");\n\n        __Context_init();\n\n        _user = User(user);\n        _payment = Payment(payment);\n    }\n\n    /**\n     * @dev Create a new store front.\n     * @param name store name\n     */\n    function open(string memory name) public onlySeller {\n        uint256 id = storeCounter.current();\n\n        if (_sellerStores[_msgSender()].add(id)) {\n            _stores[id] = StoreDetails({name: name, seller: _msgSender()});\n            storeCounter.increment();\n            emit StoreCreated(id, name, _msgSender());\n        }\n    }\n\n    /**\n     * @return number of stores for seller\n     */\n    function getStoreCount() public view returns (uint256) {\n        return _sellerStores[_msgSender()].length();\n    }\n\n    /**\n     * @param index store set element index\n     * @return store id\n     * @return store name\n     */\n    function getStore(uint256 index)\n        public\n        view\n        returns (uint256, string memory)\n    {\n        uint256 id = getStoreId(index);\n        StoreDetails storage store = _stores[id];\n        return (id, store.name);\n    }\n\n    /**\n     * @param index store set element index\n     * @return store id\n     */\n    function getStoreId(uint256 index) public view returns (uint256) {\n        return _sellerStores[_msgSender()].at(index);\n    }\n\n    /**\n     * @dev Remove a store front and products in store.\n     * @param id store id\n     */\n    function close(uint256 id) public onlySeller onlyStoreOwner(id) {\n        for (uint256 i = 0; i < _storeProducts[id].length(); i++) {\n            remove(id, getStoreProductId(id, i));\n        }\n\n        if (_sellerStores[_msgSender()].remove(id)) {\n            delete (_stores[id]);\n            emit StoreRemoved(id, _msgSender());\n        }\n    }\n\n    /**\n     * @dev Add product into store.\n     * @param name product name\n     * @param quantity product quantity\n     * @param price product price\n     * @param storeId store identifier\n     */\n    function add(\n        string memory name,\n        uint256 quantity,\n        uint256 price,\n        uint256 storeId\n    ) public onlySeller onlyStoreOwner(storeId) {\n        require(price > 0);\n        require(quantity > 0);\n\n        uint256 id = productCounter.current();\n\n        if (_storeProducts[storeId].add(id)) {\n            _products[id] = Product({\n                name: name,\n                quantity: quantity,\n                price: price,\n                storeId: storeId\n            });\n            _productList.add(id);\n            productCounter.increment();\n            emit ProductAdded(id, name, quantity, price, storeId, _msgSender());\n        }\n    }\n\n    /**\n     * @param storeId store identifier\n     * @return number of products for store\n     */\n    function getStoreProductCount(uint256 storeId)\n        public\n        view\n        returns (uint256)\n    {\n        return _storeProducts[storeId].length();\n    }\n\n    /**\n     * @param storeId store identifier\n     * @param index product set element index\n     * @return product id\n     */\n    function getStoreProductId(uint256 storeId, uint256 index)\n        public\n        view\n        returns (uint256)\n    {\n        return _storeProducts[storeId].at(index);\n    }\n\n    /**\n     * @param storeId store identifier\n     * @param index product set element index\n     * @return product information\n     */\n    function getStoreProduct(uint256 storeId, uint256 index)\n        public\n        view\n        returns (\n            uint256,\n            string memory,\n            uint256,\n            uint256,\n            uint256\n        )\n    {\n        uint256 id = getStoreProductId(storeId, index);\n        return getProduct(id);\n    }\n\n    /**\n     * @param page start index\n     * @param count number of products\n     * @return start index\n     * @return end index\n     * @return prev page\n     * @return next page\n     */\n    function getProductPaginate(uint256 page, uint256 count)\n        public\n        view\n        returns (\n            uint256,\n            uint256,\n            uint256,\n            uint256\n        )\n    {\n        return paginate(page, count, _productList.length());\n    }\n\n    /**\n     * @param index product set element index\n     * @return product information\n     */\n    function getProductListProduct(uint256 index)\n        public\n        view\n        returns (\n            uint256,\n            string memory,\n            uint256,\n            uint256,\n            uint256\n        )\n    {\n        return getProduct(_productList.at(index));\n    }\n\n    /**\n     * @param id product identifier\n     * @return product information\n     */\n    function getProduct(uint256 id)\n        public\n        view\n        returns (\n            uint256,\n            string memory,\n            uint256,\n            uint256,\n            uint256\n        )\n    {\n        Product storage product = _products[id];\n        return (\n            id,\n            product.name,\n            product.quantity,\n            product.price,\n            product.storeId\n        );\n    }\n\n    /**\n     * @dev Remove a product\n     * @param storeId store identifier\n     * @param id product identifier\n     */\n    function remove(uint256 storeId, uint256 id)\n        public\n        onlySeller\n        onlyStoreOwner(storeId)\n    {\n        if (_storeProducts[storeId].remove(id)) {\n            delete (_products[id]);\n            _productList.remove(id);\n            emit ProductRemoved(id, storeId, _msgSender());\n        }\n    }\n\n    /**\n     * @dev Update a product price\n     * @param storeId store identifier\n     * @param id product identifier\n     * @param price new product price\n     */\n    function update(\n        uint256 storeId,\n        uint256 id,\n        uint256 price\n    ) public onlySeller onlyStoreOwner(storeId) {\n        require(price > 0);\n\n        uint256 oldPrice = _products[id].price;\n        _products[id].price = price;\n\n        emit ProductUpdated(id, oldPrice, price, _msgSender());\n    }\n\n    // Buyer\n\n    /**\n     * @dev Throw if not enough value send.\n     */\n    modifier paidEnough(uint256 id, uint256 quantity) {\n        require(\n            msg.value >= _products[id].price.mul(quantity),\n            \"MarketPlace: insufficient value\"\n        );\n        _;\n    }\n\n    /**\n     * @dev Throw if not enough stock in product.\n     */\n    modifier stockEnough(uint256 id, uint256 quantity) {\n        require(\n            _products[id].quantity >= quantity,\n            \"MarketPlace: insufficient quantity\"\n        );\n        _;\n    }\n\n    /**\n     * @dev Send excess amount after substract required price.\n     */\n    modifier refundExcess(uint256 id, uint256 quantity) {\n        _;\n        uint256 paid = msg.value;\n        uint256 amountToRefund = paid.sub(_products[id].price.mul(quantity));\n        if (amountToRefund > 0) {\n            AddressUpgradeable.sendValue(_msgSender(), amountToRefund);\n        }\n    }\n\n    /**\n     * @dev Reduce product quantity after bought.\n     */\n    modifier deductStock(uint256 id, uint256 quantity) {\n        _;\n        Product storage product = _products[id];\n        product.quantity = product.quantity.sub(quantity);\n    }\n\n    /**\n     * @dev Check value and refund.\n     * @param id product identifier\n     * @param quantity number of product\n     */\n    function buy(uint256 id, uint256 quantity)\n        public\n        payable\n        paidEnough(id, quantity)\n        refundExcess(id, quantity)\n    {\n        Product storage product = _products[id];\n        uint256 total = product.price.mul(quantity);\n\n        settle(id, quantity, total);\n\n        emit ProductBought(id, quantity, total, _msgSender());\n    }\n\n    /**\n     * @dev Push payment and deduct stock.\n     * @param id product identifier\n     * @param quantity number of product\n     * @param total pruce to pay\n     */\n    function settle(\n        uint256 id,\n        uint256 quantity,\n        uint256 total\n    ) public payable stockEnough(id, quantity) deductStock(id, quantity) {\n        Product storage product = _products[id];\n\n        _payment.pay{value: total}(_stores[product.storeId].seller, total);\n    }\n\n    /* PURE */\n    // TODO: can be move to Library\n\n    /**\n     * @param page pagination based on count\n     * @param count number of items\n     * @param total list length\n     * @return start index\n     * @return end length\n     * @return prev page\n     * @return next page\n     */\n    function paginate(\n        uint256 page,\n        uint256 count,\n        uint256 total\n    )\n        internal\n        pure\n        returns (\n            uint256 start,\n            uint256 end,\n            uint256 prev,\n            uint256 next\n        )\n    {\n        start = page.mul(count);\n        end = page.add(1).mul(count);\n        next = page;\n        prev = page;\n\n        if (end > total) {\n            // Not over list length\n            end = total;\n        } else {\n            // Next only if more items.\n            next = page.add(1);\n        }\n\n        // Zero is the first page\n        if (prev > 0) {\n            prev = page.sub(1);\n        }\n    }\n}\n",
  "sourcePath": "/Users/susantowu/Projects/online-marketplace/contracts/v1/Store.sol",
  "compiler": {
    "name": "solc",
    "version": "0.6.12+commit.27d51765.Emscripten.clang"
  },
  "schemaVersion": "3.3.2",
  "updatedAt": "2020-11-25T15:26:26.539Z",
  "networkType": "ethereum",
  "devdoc": {
    "author": "Susanto Wu",
    "details": "Keep track of store, products in store.",
    "kind": "dev",
    "methods": {
      "add(string,uint256,uint256,uint256)": {
        "details": "Add product into store.",
        "params": {
          "name": "product name",
          "price": "product price",
          "quantity": "product quantity",
          "storeId": "store identifier"
        }
      },
      "buy(uint256,uint256)": {
        "details": "Check value and refund.",
        "params": {
          "id": "product identifier",
          "quantity": "number of product"
        }
      },
      "close(uint256)": {
        "details": "Remove a store front and products in store.",
        "params": {
          "id": "store id"
        }
      },
      "getProduct(uint256)": {
        "params": {
          "id": "product identifier"
        },
        "returns": {
          "_0": "product information"
        }
      },
      "getProductListProduct(uint256)": {
        "params": {
          "index": "product set element index"
        },
        "returns": {
          "_0": "product information"
        }
      },
      "getProductPaginate(uint256,uint256)": {
        "params": {
          "count": "number of products",
          "page": "start index"
        },
        "returns": {
          "_0": "start index",
          "_1": "end index",
          "_2": "prev page",
          "_3": "next page"
        }
      },
      "getStore(uint256)": {
        "params": {
          "index": "store set element index"
        },
        "returns": {
          "_0": "store id",
          "_1": "store name"
        }
      },
      "getStoreCount()": {
        "returns": {
          "_0": "number of stores for seller"
        }
      },
      "getStoreId(uint256)": {
        "params": {
          "index": "store set element index"
        },
        "returns": {
          "_0": "store id"
        }
      },
      "getStoreProduct(uint256,uint256)": {
        "params": {
          "index": "product set element index",
          "storeId": "store identifier"
        },
        "returns": {
          "_0": "product information"
        }
      },
      "getStoreProductCount(uint256)": {
        "params": {
          "storeId": "store identifier"
        },
        "returns": {
          "_0": "number of products for store"
        }
      },
      "getStoreProductId(uint256,uint256)": {
        "params": {
          "index": "product set element index",
          "storeId": "store identifier"
        },
        "returns": {
          "_0": "product id"
        }
      },
      "initialize(address,address)": {
        "details": "Initialize parent constructur."
      },
      "open(string)": {
        "details": "Create a new store front.",
        "params": {
          "name": "store name"
        }
      },
      "remove(uint256,uint256)": {
        "details": "Remove a product",
        "params": {
          "id": "product identifier",
          "storeId": "store identifier"
        }
      },
      "settle(uint256,uint256,uint256)": {
        "details": "Push payment and deduct stock.",
        "params": {
          "id": "product identifier",
          "quantity": "number of product",
          "total": "pruce to pay"
        }
      },
      "update(uint256,uint256,uint256)": {
        "details": "Update a product price",
        "params": {
          "id": "product identifier",
          "price": "new product price",
          "storeId": "store identifier"
        }
      }
    },
    "stateVariables": {
      "_user": {
        "details": "Required contracts."
      },
      "productCounter": {
        "details": "Store can have multiples products. - Counter to facilitate product identifier - Store Id to products list map - Product id set to facilitate pagination - Id to Product map"
      },
      "storeCounter": {
        "details": "User can own multiple stores. - Counter to facilitate store identifier - User address to stores list map - Id to Store map"
      }
    },
    "title": "MarketPlace Store",
    "version": 1
  },
  "userdoc": {
    "kind": "user",
    "methods": {},
    "version": 1
  }
}