{
  "contractName": "Store",
  "abi": [
    {
      "anonymous": false,
      "inputs": [
        {
          "indexed": false,
          "internalType": "uint256",
          "name": "id",
          "type": "uint256"
        },
        {
          "indexed": false,
          "internalType": "string",
          "name": "name",
          "type": "string"
        },
        {
          "indexed": false,
          "internalType": "uint256",
          "name": "quantity",
          "type": "uint256"
        },
        {
          "indexed": false,
          "internalType": "uint256",
          "name": "price",
          "type": "uint256"
        },
        {
          "indexed": false,
          "internalType": "uint256",
          "name": "storeId",
          "type": "uint256"
        },
        {
          "indexed": false,
          "internalType": "address",
          "name": "seller",
          "type": "address"
        }
      ],
      "name": "ProductAdded",
      "type": "event"
    },
    {
      "anonymous": false,
      "inputs": [
        {
          "indexed": false,
          "internalType": "uint256",
          "name": "id",
          "type": "uint256"
        },
        {
          "indexed": false,
          "internalType": "uint256",
          "name": "quantity",
          "type": "uint256"
        },
        {
          "indexed": false,
          "internalType": "uint256",
          "name": "paid",
          "type": "uint256"
        },
        {
          "indexed": false,
          "internalType": "address",
          "name": "buyer",
          "type": "address"
        }
      ],
      "name": "ProductBought",
      "type": "event"
    },
    {
      "anonymous": false,
      "inputs": [
        {
          "indexed": false,
          "internalType": "uint256",
          "name": "id",
          "type": "uint256"
        },
        {
          "indexed": false,
          "internalType": "uint256",
          "name": "storeId",
          "type": "uint256"
        },
        {
          "indexed": false,
          "internalType": "address",
          "name": "seller",
          "type": "address"
        }
      ],
      "name": "ProductRemoved",
      "type": "event"
    },
    {
      "anonymous": false,
      "inputs": [
        {
          "indexed": false,
          "internalType": "uint256",
          "name": "id",
          "type": "uint256"
        },
        {
          "indexed": false,
          "internalType": "uint256",
          "name": "oldPrice",
          "type": "uint256"
        },
        {
          "indexed": false,
          "internalType": "uint256",
          "name": "price",
          "type": "uint256"
        },
        {
          "indexed": false,
          "internalType": "address",
          "name": "seller",
          "type": "address"
        }
      ],
      "name": "ProductUpdated",
      "type": "event"
    },
    {
      "anonymous": false,
      "inputs": [
        {
          "indexed": false,
          "internalType": "uint256",
          "name": "id",
          "type": "uint256"
        },
        {
          "indexed": false,
          "internalType": "string",
          "name": "name",
          "type": "string"
        },
        {
          "indexed": false,
          "internalType": "address",
          "name": "seller",
          "type": "address"
        }
      ],
      "name": "StoreCreated",
      "type": "event"
    },
    {
      "anonymous": false,
      "inputs": [
        {
          "indexed": false,
          "internalType": "uint256",
          "name": "id",
          "type": "uint256"
        },
        {
          "indexed": false,
          "internalType": "address",
          "name": "seller",
          "type": "address"
        }
      ],
      "name": "StoreRemoved",
      "type": "event"
    },
    {
      "inputs": [
        {
          "internalType": "address",
          "name": "user",
          "type": "address"
        },
        {
          "internalType": "address",
          "name": "payment",
          "type": "address"
        }
      ],
      "name": "initialize",
      "outputs": [],
      "stateMutability": "nonpayable",
      "type": "function"
    },
    {
      "inputs": [
        {
          "internalType": "string",
          "name": "name",
          "type": "string"
        }
      ],
      "name": "open",
      "outputs": [],
      "stateMutability": "nonpayable",
      "type": "function"
    },
    {
      "inputs": [],
      "name": "getStoreCount",
      "outputs": [
        {
          "internalType": "uint256",
          "name": "",
          "type": "uint256"
        }
      ],
      "stateMutability": "view",
      "type": "function",
      "constant": true
    },
    {
      "inputs": [
        {
          "internalType": "uint256",
          "name": "index",
          "type": "uint256"
        }
      ],
      "name": "getStore",
      "outputs": [
        {
          "internalType": "uint256",
          "name": "",
          "type": "uint256"
        },
        {
          "internalType": "string",
          "name": "",
          "type": "string"
        }
      ],
      "stateMutability": "view",
      "type": "function",
      "constant": true
    },
    {
      "inputs": [
        {
          "internalType": "uint256",
          "name": "index",
          "type": "uint256"
        }
      ],
      "name": "getStoreId",
      "outputs": [
        {
          "internalType": "uint256",
          "name": "",
          "type": "uint256"
        }
      ],
      "stateMutability": "view",
      "type": "function",
      "constant": true
    },
    {
      "inputs": [
        {
          "internalType": "uint256",
          "name": "id",
          "type": "uint256"
        }
      ],
      "name": "close",
      "outputs": [],
      "stateMutability": "nonpayable",
      "type": "function"
    },
    {
      "inputs": [
        {
          "internalType": "string",
          "name": "name",
          "type": "string"
        },
        {
          "internalType": "uint256",
          "name": "quantity",
          "type": "uint256"
        },
        {
          "internalType": "uint256",
          "name": "price",
          "type": "uint256"
        },
        {
          "internalType": "uint256",
          "name": "storeId",
          "type": "uint256"
        }
      ],
      "name": "add",
      "outputs": [],
      "stateMutability": "nonpayable",
      "type": "function"
    },
    {
      "inputs": [
        {
          "internalType": "uint256",
          "name": "storeId",
          "type": "uint256"
        }
      ],
      "name": "getStoreProductCount",
      "outputs": [
        {
          "internalType": "uint256",
          "name": "",
          "type": "uint256"
        }
      ],
      "stateMutability": "view",
      "type": "function",
      "constant": true
    },
    {
      "inputs": [
        {
          "internalType": "uint256",
          "name": "storeId",
          "type": "uint256"
        },
        {
          "internalType": "uint256",
          "name": "index",
          "type": "uint256"
        }
      ],
      "name": "getStoreProductId",
      "outputs": [
        {
          "internalType": "uint256",
          "name": "",
          "type": "uint256"
        }
      ],
      "stateMutability": "view",
      "type": "function",
      "constant": true
    },
    {
      "inputs": [
        {
          "internalType": "uint256",
          "name": "storeId",
          "type": "uint256"
        },
        {
          "internalType": "uint256",
          "name": "index",
          "type": "uint256"
        }
      ],
      "name": "getStoreProduct",
      "outputs": [
        {
          "internalType": "uint256",
          "name": "",
          "type": "uint256"
        },
        {
          "internalType": "string",
          "name": "",
          "type": "string"
        },
        {
          "internalType": "uint256",
          "name": "",
          "type": "uint256"
        },
        {
          "internalType": "uint256",
          "name": "",
          "type": "uint256"
        },
        {
          "internalType": "uint256",
          "name": "",
          "type": "uint256"
        }
      ],
      "stateMutability": "view",
      "type": "function",
      "constant": true
    },
    {
      "inputs": [
        {
          "internalType": "uint256",
          "name": "page",
          "type": "uint256"
        },
        {
          "internalType": "uint256",
          "name": "count",
          "type": "uint256"
        }
      ],
      "name": "getProducts",
      "outputs": [
        {
          "internalType": "uint256[]",
          "name": "",
          "type": "uint256[]"
        },
        {
          "internalType": "uint256",
          "name": "",
          "type": "uint256"
        },
        {
          "internalType": "uint256",
          "name": "",
          "type": "uint256"
        }
      ],
      "stateMutability": "view",
      "type": "function",
      "constant": true
    },
    {
      "inputs": [
        {
          "internalType": "uint256",
          "name": "id",
          "type": "uint256"
        }
      ],
      "name": "getProduct",
      "outputs": [
        {
          "internalType": "uint256",
          "name": "",
          "type": "uint256"
        },
        {
          "internalType": "string",
          "name": "",
          "type": "string"
        },
        {
          "internalType": "uint256",
          "name": "",
          "type": "uint256"
        },
        {
          "internalType": "uint256",
          "name": "",
          "type": "uint256"
        },
        {
          "internalType": "uint256",
          "name": "",
          "type": "uint256"
        }
      ],
      "stateMutability": "view",
      "type": "function",
      "constant": true
    },
    {
      "inputs": [
        {
          "internalType": "uint256",
          "name": "storeId",
          "type": "uint256"
        },
        {
          "internalType": "uint256",
          "name": "id",
          "type": "uint256"
        }
      ],
      "name": "remove",
      "outputs": [],
      "stateMutability": "nonpayable",
      "type": "function"
    },
    {
      "inputs": [
        {
          "internalType": "uint256",
          "name": "storeId",
          "type": "uint256"
        },
        {
          "internalType": "uint256",
          "name": "id",
          "type": "uint256"
        },
        {
          "internalType": "uint256",
          "name": "price",
          "type": "uint256"
        }
      ],
      "name": "update",
      "outputs": [],
      "stateMutability": "nonpayable",
      "type": "function"
    },
    {
      "inputs": [
        {
          "internalType": "uint256",
          "name": "id",
          "type": "uint256"
        },
        {
          "internalType": "uint256",
          "name": "quantity",
          "type": "uint256"
        }
      ],
      "name": "buy",
      "outputs": [],
      "stateMutability": "payable",
      "type": "function",
      "payable": true
    },
    {
      "inputs": [
        {
          "internalType": "uint256",
          "name": "id",
          "type": "uint256"
        },
        {
          "internalType": "uint256",
          "name": "quantity",
          "type": "uint256"
        },
        {
          "internalType": "uint256",
          "name": "total",
          "type": "uint256"
        }
      ],
      "name": "settle",
      "outputs": [],
      "stateMutability": "payable",
      "type": "function",
      "payable": true
    }
  ],
  "bytecode": "0x608060405234801561001057600080fd5b50612cf5806100206000396000f3fe6080604052600436106100f35760003560e01c80638c4014481161008a578063be1be20111610059578063be1be20114610666578063d057442e146106b5578063d6febde81461078f578063e4dcb06b146107c7576100f3565b80638c401448146104745780638f694b821461051c57806398e8bd971461056b578063b9db15b414610596576100f3565b80636526db7a116100c65780636526db7a146102cc5780636a054250146103115780637dddb2661461036057806383403120146103b9576100f3565b80630aebeb4e146100f85780630f3eb78514610133578063485cc95514610219578063574cdded1461028a575b600080fd5b34801561010457600080fd5b506101316004803603602081101561011b57600080fd5b810190808035906020019092919050505061088f565b005b34801561013f57600080fd5b506102176004803603608081101561015657600080fd5b810190808035906020019064010000000081111561017357600080fd5b82018360208201111561018557600080fd5b803590602001918460018302840111640100000000831117156101a757600080fd5b91908080601f016020809104026020016040519081016040528093929190818152602001838380828437600081840152601f19601f820116905080830192505050505050509192919290803590602001909291908035906020019092919080359060200190929190505050610be8565b005b34801561022557600080fd5b506102886004803603604081101561023c57600080fd5b81019080803573ffffffffffffffffffffffffffffffffffffffff169060200190929190803573ffffffffffffffffffffffffffffffffffffffff169060200190929190505050610fbd565b005b6102ca600480360360608110156102a057600080fd5b8101908080359060200190929190803590602001909291908035906020019092919050505061122f565b005b3480156102d857600080fd5b5061030f600480360360408110156102ef57600080fd5b8101908080359060200190929190803590602001909291905050506113e0565b005b34801561031d57600080fd5b5061035e6004803603606081101561033457600080fd5b810190808035906020019092919080359060200190929190803590602001909291905050506116cf565b005b34801561036c57600080fd5b506103a36004803603604081101561038357600080fd5b81019080803590602001909291908035906020019092919050505061198d565b6040518082815260200191505060405180910390f35b3480156103c557600080fd5b506103f2600480360360208110156103dc57600080fd5b81019080803590602001909291905050506119bc565b6040518083815260200180602001828103825283818151815260200191508051906020019080838360005b8381101561043857808201518184015260208101905061041d565b50505050905090810190601f1680156104655780820380516001836020036101000a031916815260200191505b50935050505060405180910390f35b34801561048057600080fd5b506104b76004803603604081101561049757600080fd5b810190808035906020019092919080359060200190929190505050611a90565b6040518080602001848152602001838152602001828103825285818151815260200191508051906020019060200280838360005b838110156105065780820151818401526020810190506104eb565b5050505090500194505050505060405180910390f35b34801561052857600080fd5b506105556004803603602081101561053f57600080fd5b8101908080359060200190929190505050611b20565b6040518082815260200191505060405180910390f35b34801561057757600080fd5b50610580611b81565b6040518082815260200191505060405180910390f35b3480156105a257600080fd5b506105cf600480360360208110156105b957600080fd5b8101908080359060200190929190505050611bd6565b6040518086815260200180602001858152602001848152602001838152602001828103825286818151815260200191508051906020019080838360005b8381101561062757808201518184015260208101905061060c565b50505050905090810190601f1680156106545780820380516001836020036101000a031916815260200191505b50965050505050505060405180910390f35b34801561067257600080fd5b5061069f6004803603602081101561068957600080fd5b8101908080359060200190929190505050611cb9565b6040518082815260200191505060405180910390f35b3480156106c157600080fd5b506106f8600480360360408110156106d857600080fd5b810190808035906020019092919080359060200190929190505050611cdd565b6040518086815260200180602001858152602001848152602001838152602001828103825286818151815260200191508051906020019080838360005b83811015610750578082015181840152602081019050610735565b50505050905090810190601f16801561077d5780820380516001836020036101000a031916815260200191505b50965050505050505060405180910390f35b6107c5600480360360408110156107a557600080fd5b810190808035906020019092919080359060200190929190505050611d11565b005b3480156107d357600080fd5b5061088d600480360360208110156107ea57600080fd5b810190808035906020019064010000000081111561080757600080fd5b82018360208201111561081957600080fd5b8035906020019184600183028401116401000000008311171561083b57600080fd5b91908080601f016020809104026020016040519081016040528093929190818152602001838380828437600081840152601f19601f820116905080830192505050505050509192919290505050611ec7565b005b603360009054906101000a900473ffffffffffffffffffffffffffffffffffffffff1673ffffffffffffffffffffffffffffffffffffffff1663ee95feaf6108d56121f3565b6040518263ffffffff1660e01b8152600401808273ffffffffffffffffffffffffffffffffffffffff16815260200191505060206040518083038186803b15801561091f57600080fd5b505afa158015610933573d6000803e3d6000fd5b505050506040513d602081101561094957600080fd5b81019080805190602001909291905050506109cc576040517f08c379a000000000000000000000000000000000000000000000000000000000815260040180806020018281038252601c8152602001807f53746f72653a2061646472657373206973206e6f742073656c6c65720000000081525060200191505060405180910390fd5b80610a2581603660006109dd6121f3565b73ffffffffffffffffffffffffffffffffffffffff1673ffffffffffffffffffffffffffffffffffffffff1681526020019081526020016000206121fb90919063ffffffff16565b610a97576040517f08c379a000000000000000000000000000000000000000000000000000000000815260040180806020018281038252601b8152602001807f53746f72653a206e6f742062656c6f6e6720746f2073656e646572000000000081525060200191505060405180910390fd5b60005b610ab560396000858152602001908152602001600020612215565b811015610adc57610acf83610aca858461198d565b6113e0565b8080600101915050610a9a565b50610b358260366000610aed6121f3565b73ffffffffffffffffffffffffffffffffffffffff1673ffffffffffffffffffffffffffffffffffffffff16815260200190815260200160002061222a90919063ffffffff16565b15610be4576037600083815260200190815260200160002060008082016000610b5e9190612ac4565b6001820160006101000a81549073ffffffffffffffffffffffffffffffffffffffff021916905550507f61b27c5bb91d1b449f939dee82d22e91fa1387896e7afd60876204866d5f583d82610bb16121f3565b604051808381526020018273ffffffffffffffffffffffffffffffffffffffff1681526020019250505060405180910390a15b5050565b603360009054906101000a900473ffffffffffffffffffffffffffffffffffffffff1673ffffffffffffffffffffffffffffffffffffffff1663ee95feaf610c2e6121f3565b6040518263ffffffff1660e01b8152600401808273ffffffffffffffffffffffffffffffffffffffff16815260200191505060206040518083038186803b158015610c7857600080fd5b505afa158015610c8c573d6000803e3d6000fd5b505050506040513d6020811015610ca257600080fd5b8101908080519060200190929190505050610d25576040517f08c379a000000000000000000000000000000000000000000000000000000000815260040180806020018281038252601c8152602001807f53746f72653a2061646472657373206973206e6f742073656c6c65720000000081525060200191505060405180910390fd5b80610d7e8160366000610d366121f3565b73ffffffffffffffffffffffffffffffffffffffff1673ffffffffffffffffffffffffffffffffffffffff1681526020019081526020016000206121fb90919063ffffffff16565b610df0576040517f08c379a000000000000000000000000000000000000000000000000000000000815260040180806020018281038252601b8152602001807f53746f72653a206e6f742062656c6f6e6720746f2073656e646572000000000081525060200191505060405180910390fd5b60008311610dfd57600080fd5b60008411610e0a57600080fd5b6000610e166038612244565b9050610e3d816039600086815260200190815260200160002061225290919063ffffffff16565b15610fb557604051806080016040528087815260200186815260200185815260200184815250603c60008381526020019081526020016000206000820151816000019080519060200190610e92929190612b0c565b50602082015181600101556040820151816002015560608201518160030155905050610ec881603a61225290919063ffffffff16565b50610ed3603861226c565b7fd3f2fc3ba4b145faf8cf5e427dffec35dec514ca3388339f95ccab1568209c708187878787610f016121f3565b60405180878152602001806020018681526020018581526020018481526020018373ffffffffffffffffffffffffffffffffffffffff168152602001828103825287818151815260200191508051906020019080838360005b83811015610f75578082015181840152602081019050610f5a565b50505050905090810190601f168015610fa25780820380516001836020036101000a031916815260200191505b5097505050505050505060405180910390a15b505050505050565b600060019054906101000a900460ff1680610fdc5750610fdb612282565b5b80610ff2575060008054906101000a900460ff16155b611047576040517f08c379a000000000000000000000000000000000000000000000000000000000815260040180806020018281038252602e815260200180612c71602e913960400191505060405180910390fd5b60008060019054906101000a900460ff161590508015611097576001600060016101000a81548160ff02191690831515021790555060016000806101000a81548160ff0219169083151502179055505b6110b68373ffffffffffffffffffffffffffffffffffffffff16612299565b61110b576040517f08c379a0000000000000000000000000000000000000000000000000000000008152600401808060200182810382526023815260200180612bf26023913960400191505060405180910390fd5b61112a8273ffffffffffffffffffffffffffffffffffffffff16612299565b61117f576040517f08c379a0000000000000000000000000000000000000000000000000000000008152600401808060200182810382526026815260200180612bcc6026913960400191505060405180910390fd5b6111876122ac565b82603360006101000a81548173ffffffffffffffffffffffffffffffffffffffff021916908373ffffffffffffffffffffffffffffffffffffffff16021790555081603460006101000a81548173ffffffffffffffffffffffffffffffffffffffff021916908373ffffffffffffffffffffffffffffffffffffffff160217905550801561122a5760008060016101000a81548160ff0219169083151502179055505b505050565b828280603c60008481526020019081526020016000206001015410156112a0576040517f08c379a0000000000000000000000000000000000000000000000000000000008152600401808060200182810382526022815260200180612c156022913960400191505060405180910390fd5b84846000603c60008981526020019081526020016000209050603460009054906101000a900473ffffffffffffffffffffffffffffffffffffffff1673ffffffffffffffffffffffffffffffffffffffff1663c407687687603760008560030154815260200190815260200160002060010160009054906101000a900473ffffffffffffffffffffffffffffffffffffffff16896040518463ffffffff1660e01b8152600401808373ffffffffffffffffffffffffffffffffffffffff168152602001828152602001925050506000604051808303818588803b15801561138657600080fd5b505af115801561139a573d6000803e3d6000fd5b5050505050506000603c600084815260200190815260200160002090506113ce8282600101546123b290919063ffffffff16565b81600101819055505050505050505050565b603360009054906101000a900473ffffffffffffffffffffffffffffffffffffffff1673ffffffffffffffffffffffffffffffffffffffff1663ee95feaf6114266121f3565b6040518263ffffffff1660e01b8152600401808273ffffffffffffffffffffffffffffffffffffffff16815260200191505060206040518083038186803b15801561147057600080fd5b505afa158015611484573d6000803e3d6000fd5b505050506040513d602081101561149a57600080fd5b810190808051906020019092919050505061151d576040517f08c379a000000000000000000000000000000000000000000000000000000000815260040180806020018281038252601c8152602001807f53746f72653a2061646472657373206973206e6f742073656c6c65720000000081525060200191505060405180910390fd5b81611576816036600061152e6121f3565b73ffffffffffffffffffffffffffffffffffffffff1673ffffffffffffffffffffffffffffffffffffffff1681526020019081526020016000206121fb90919063ffffffff16565b6115e8576040517f08c379a000000000000000000000000000000000000000000000000000000000815260040180806020018281038252601b8152602001807f53746f72653a206e6f742062656c6f6e6720746f2073656e646572000000000081525060200191505060405180910390fd5b61160d826039600086815260200190815260200160002061222a90919063ffffffff16565b156116ca57603c6000838152602001908152602001600020600080820160006116369190612ac4565b600182016000905560028201600090556003820160009055505061166482603a61222a90919063ffffffff16565b507f99f27169232708368a03a09274735dd5a15cbbb15694448bf92d7b37446487b482846116906121f3565b604051808481526020018381526020018273ffffffffffffffffffffffffffffffffffffffff168152602001935050505060405180910390a15b505050565b603360009054906101000a900473ffffffffffffffffffffffffffffffffffffffff1673ffffffffffffffffffffffffffffffffffffffff1663ee95feaf6117156121f3565b6040518263ffffffff1660e01b8152600401808273ffffffffffffffffffffffffffffffffffffffff16815260200191505060206040518083038186803b15801561175f57600080fd5b505afa158015611773573d6000803e3d6000fd5b505050506040513d602081101561178957600080fd5b810190808051906020019092919050505061180c576040517f08c379a000000000000000000000000000000000000000000000000000000000815260040180806020018281038252601c8152602001807f53746f72653a2061646472657373206973206e6f742073656c6c65720000000081525060200191505060405180910390fd5b82611865816036600061181d6121f3565b73ffffffffffffffffffffffffffffffffffffffff1673ffffffffffffffffffffffffffffffffffffffff1681526020019081526020016000206121fb90919063ffffffff16565b6118d7576040517f08c379a000000000000000000000000000000000000000000000000000000000815260040180806020018281038252601b8152602001807f53746f72653a206e6f742062656c6f6e6720746f2073656e646572000000000081525060200191505060405180910390fd5b600082116118e457600080fd5b6000603c600085815260200190815260200160002060020154905082603c6000868152602001908152602001600020600201819055507f2bb44ae0d1fbafdb8d4db69552aae4f9f93fc428a145ce34b4929b22340eb0498482856119466121f3565b604051808581526020018481526020018381526020018273ffffffffffffffffffffffffffffffffffffffff16815260200194505050505060405180910390a15050505050565b60006119b482603960008681526020019081526020016000206123fc90919063ffffffff16565b905092915050565b6000606060006119cb84611b20565b905060006037600083815260200190815260200160002090508181600001808054600181600116156101000203166002900480601f016020809104026020016040519081016040528092919081815260200182805460018160011615610100020316600290048015611a7e5780601f10611a5357610100808354040283529160200191611a7e565b820191906000526020600020905b815481529060010190602001808311611a6157829003601f168201915b50505050509050935093505050915091565b60606000806060600080600080611ab18a8a611aac603a612215565b612416565b93509350935093506000808590505b84811015611b0957611adc81603a6123fc90919063ffffffff16565b878381518110611ae857fe5b60200260200101818152505081806001019250508080600101915050611ac0565b508583839850985098505050505050509250925092565b6000611b7a8260366000611b326121f3565b73ffffffffffffffffffffffffffffffffffffffff1673ffffffffffffffffffffffffffffffffffffffff1681526020019081526020016000206123fc90919063ffffffff16565b9050919050565b6000611bd160366000611b926121f3565b73ffffffffffffffffffffffffffffffffffffffff1673ffffffffffffffffffffffffffffffffffffffff168152602001908152602001600020612215565b905090565b60006060600080600080603c600088815260200190815260200160002090508681600001826001015483600201548460030154838054600181600116156101000203166002900480601f016020809104026020016040519081016040528092919081815260200182805460018160011615610100020316600290048015611c9e5780601f10611c7357610100808354040283529160200191611c9e565b820191906000526020600020905b815481529060010190602001808311611c8157829003601f168201915b50505050509350955095509550955095505091939590929450565b6000611cd660396000848152602001908152602001600020612215565b9050919050565b60006060600080600080611cf1888861198d565b9050611cfc81611bd6565b95509550955095509550509295509295909350565b8181611d3c81603c6000858152602001908152602001600020600201546124af90919063ffffffff16565b341015611db1576040517f08c379a000000000000000000000000000000000000000000000000000000000815260040180806020018281038252601f8152602001807f4d61726b6574506c6163653a20696e73756666696369656e742076616c75650081525060200191505060405180910390fd5b83836000603c600088815260200190815260200160002090506000611de38783600201546124af90919063ffffffff16565b9050611df088888361122f565b7fff688dc3d8646cd084c861b7c66d55fe86bd315a70ba0e97c633d052bb814b2b888883611e1c6121f3565b604051808581526020018481526020018381526020018273ffffffffffffffffffffffffffffffffffffffff16815260200194505050505060405180910390a1505060003490506000611ea0611e9184603c6000888152602001908152602001600020600201546124af90919063ffffffff16565b836123b290919063ffffffff16565b90506000811115611ebd57611ebc611eb66121f3565b82612535565b5b5050505050505050565b603360009054906101000a900473ffffffffffffffffffffffffffffffffffffffff1673ffffffffffffffffffffffffffffffffffffffff1663ee95feaf611f0d6121f3565b6040518263ffffffff1660e01b8152600401808273ffffffffffffffffffffffffffffffffffffffff16815260200191505060206040518083038186803b158015611f5757600080fd5b505afa158015611f6b573d6000803e3d6000fd5b505050506040513d6020811015611f8157600080fd5b8101908080519060200190929190505050612004576040517f08c379a000000000000000000000000000000000000000000000000000000000815260040180806020018281038252601c8152602001807f53746f72653a2061646472657373206973206e6f742073656c6c65720000000081525060200191505060405180910390fd5b60006120106035612244565b905061206a81603660006120226121f3565b73ffffffffffffffffffffffffffffffffffffffff1673ffffffffffffffffffffffffffffffffffffffff16815260200190815260200160002061225290919063ffffffff16565b156121ef5760405180604001604052808381526020016120886121f3565b73ffffffffffffffffffffffffffffffffffffffff168152506037600083815260200190815260200160002060008201518160000190805190602001906120d0929190612b0c565b5060208201518160010160006101000a81548173ffffffffffffffffffffffffffffffffffffffff021916908373ffffffffffffffffffffffffffffffffffffffff160217905550905050612125603561226c565b7f1ab9bebff161cee44cb7b596c79eebb9a1751c073b39bcde1ab700efcdf24d5a81836121506121f3565b60405180848152602001806020018373ffffffffffffffffffffffffffffffffffffffff168152602001828103825284818151815260200191508051906020019080838360005b838110156121b2578082015181840152602081019050612197565b50505050905090810190601f1680156121df5780820380516001836020036101000a031916815260200191505b5094505050505060405180910390a15b5050565b600033905090565b600061220d836000018360001b61266f565b905092915050565b600061222382600001612692565b9050919050565b600061223c836000018360001b6126a3565b905092915050565b600081600001549050919050565b6000612264836000018360001b61278b565b905092915050565b6001816000016000828254019250508190555050565b6000803090506000813b9050600081149250505090565b600080823b905060008111915050919050565b600060019054906101000a900460ff16806122cb57506122ca612282565b5b806122e1575060008054906101000a900460ff16155b612336576040517f08c379a000000000000000000000000000000000000000000000000000000000815260040180806020018281038252602e815260200180612c71602e913960400191505060405180910390fd5b60008060019054906101000a900460ff161590508015612386576001600060016101000a81548160ff02191690831515021790555060016000806101000a81548160ff0219169083151502179055505b61238e6127fb565b80156123af5760008060016101000a81548160ff0219169083151502179055505b50565b60006123f483836040518060400160405280601e81526020017f536166654d6174683a207375627472616374696f6e206f766572666c6f7700008152506128f9565b905092915050565b600061240b83600001836129b9565b60001c905092915050565b60008060008061242f86886124af90919063ffffffff16565b93506124578661244960018a612a3c90919063ffffffff16565b6124af90919063ffffffff16565b92508690508691508483111561246f57849250612486565b612483600188612a3c90919063ffffffff16565b90505b60008211156124a6576124a36001886123b290919063ffffffff16565b91505b93509350935093565b6000808314156124c2576000905061252f565b60008284029050828482816124d357fe5b041461252a576040517f08c379a0000000000000000000000000000000000000000000000000000000008152600401808060200182810382526021815260200180612c9f6021913960400191505060405180910390fd5b809150505b92915050565b804710156125ab576040517f08c379a000000000000000000000000000000000000000000000000000000000815260040180806020018281038252601d8152602001807f416464726573733a20696e73756666696369656e742062616c616e636500000081525060200191505060405180910390fd5b60008273ffffffffffffffffffffffffffffffffffffffff168260405180600001905060006040518083038185875af1925050503d806000811461260b576040519150601f19603f3d011682016040523d82523d6000602084013e612610565b606091505b505090508061266a576040517f08c379a000000000000000000000000000000000000000000000000000000000815260040180806020018281038252603a815260200180612c37603a913960400191505060405180910390fd5b505050565b600080836001016000848152602001908152602001600020541415905092915050565b600081600001805490509050919050565b6000808360010160008481526020019081526020016000205490506000811461277f57600060018203905060006001866000018054905003905060008660000182815481106126ee57fe5b906000526020600020015490508087600001848154811061270b57fe5b906000526020600020018190555060018301876001016000838152602001908152602001600020819055508660000180548061274357fe5b60019003818190600052602060002001600090559055866001016000878152602001908152602001600020600090556001945050505050612785565b60009150505b92915050565b6000612797838361266f565b6127f05782600001829080600181540180825580915050600190039060005260206000200160009091909190915055826000018054905083600101600084815260200190815260200160002081905550600190506127f5565b600090505b92915050565b600060019054906101000a900460ff168061281a5750612819612282565b5b80612830575060008054906101000a900460ff16155b612885576040517f08c379a000000000000000000000000000000000000000000000000000000000815260040180806020018281038252602e815260200180612c71602e913960400191505060405180910390fd5b60008060019054906101000a900460ff1615905080156128d5576001600060016101000a81548160ff02191690831515021790555060016000806101000a81548160ff0219169083151502179055505b80156128f65760008060016101000a81548160ff0219169083151502179055505b50565b60008383111582906129a6576040517f08c379a00000000000000000000000000000000000000000000000000000000081526004018080602001828103825283818151815260200191508051906020019080838360005b8381101561296b578082015181840152602081019050612950565b50505050905090810190601f1680156129985780820380516001836020036101000a031916815260200191505b509250505060405180910390fd5b5060008385039050809150509392505050565b600081836000018054905011612a1a576040517f08c379a0000000000000000000000000000000000000000000000000000000008152600401808060200182810382526022815260200180612baa6022913960400191505060405180910390fd5b826000018281548110612a2957fe5b9060005260206000200154905092915050565b600080828401905083811015612aba576040517f08c379a000000000000000000000000000000000000000000000000000000000815260040180806020018281038252601b8152602001807f536166654d6174683a206164646974696f6e206f766572666c6f77000000000081525060200191505060405180910390fd5b8091505092915050565b50805460018160011615610100020316600290046000825580601f10612aea5750612b09565b601f016020900490600052602060002090810190612b089190612b8c565b5b50565b828054600181600116156101000203166002900490600052602060002090601f016020900481019282601f10612b4d57805160ff1916838001178555612b7b565b82800160010185558215612b7b579182015b82811115612b7a578251825591602001919060010190612b5f565b5b509050612b889190612b8c565b5090565b5b80821115612ba5576000816000905550600101612b8d565b509056fe456e756d657261626c655365743a20696e646578206f7574206f6620626f756e647353746f72653a207061796d656e742061646472657373206973206e6f7420636f6e747261637453746f72653a20757365722061646472657373206973206e6f7420636f6e74726163744d61726b6574506c6163653a20696e73756666696369656e74207175616e74697479416464726573733a20756e61626c6520746f2073656e642076616c75652c20726563697069656e74206d61792068617665207265766572746564496e697469616c697a61626c653a20636f6e747261637420697320616c726561647920696e697469616c697a6564536166654d6174683a206d756c7469706c69636174696f6e206f766572666c6f77a2646970667358221220a6edfb6c707e98144208155304164faa58ed5ad45ec7e6c67f533dc1f14654ea64736f6c634300060c0033",
  "immutableReferences": {},
  "source": "// SPDX-License-Identifier: MIT\npragma solidity ^0.6.0;\n\nimport \"@openzeppelin/contracts-upgradeable/proxy/Initializable.sol\";\nimport \"@openzeppelin/contracts-upgradeable/GSN/ContextUpgradeable.sol\";\nimport \"@openzeppelin/contracts-upgradeable/math/SafeMathUpgradeable.sol\";\nimport \"@openzeppelin/contracts-upgradeable/utils/AddressUpgradeable.sol\";\nimport \"@openzeppelin/contracts-upgradeable/utils/CountersUpgradeable.sol\";\nimport \"@openzeppelin/contracts-upgradeable/utils/EnumerableSetUpgradeable.sol\";\nimport \"./User.sol\";\nimport \"./Payment.sol\";\n\n/**\n * @title MarketPlace Store\n * @author Susanto Wu\n * @dev Keep track of store, products in store.\n */\ncontract Store is Initializable, ContextUpgradeable {\n    using SafeMathUpgradeable for uint256;\n    using AddressUpgradeable for address;\n    using CountersUpgradeable for CountersUpgradeable.Counter;\n    using EnumerableSetUpgradeable for EnumerableSetUpgradeable.UintSet;\n\n    /**\n     * @dev Required contracts.\n     */\n    User private _user;\n    Payment private _payment;\n\n    struct StoreDetails {\n        string name;\n        address payable seller;\n    }\n\n    struct Product {\n        string name;\n        uint256 quantity;\n        uint256 price;\n        uint256 storeId;\n    }\n\n    /**\n     * @dev User can own multiple stores.\n     * - Counter to facilitate store identifier\n     * - User address to stores list map\n     * - Id to Store map\n     */\n    CountersUpgradeable.Counter storeCounter;\n    mapping(address => EnumerableSetUpgradeable.UintSet) private _sellerStores;\n    mapping(uint256 => StoreDetails) private _stores;\n\n    /**\n     * @dev Store can have multiples products.\n     * - Counter to facilitate product identifier\n     * - Store Id to products list map\n     * - Product id set to facilitate pagination\n     * - Id to Product map\n     */\n    CountersUpgradeable.Counter productCounter;\n    mapping(uint256 => EnumerableSetUpgradeable.UintSet) private _storeProducts;\n    EnumerableSetUpgradeable.UintSet private _productList;\n    mapping(uint256 => Product) private _products;\n\n    /* Events */\n    event StoreCreated(uint256 id, string name, address seller);\n    event StoreRemoved(uint256 id, address seller);\n    event ProductAdded(\n        uint256 id,\n        string name,\n        uint256 quantity,\n        uint256 price,\n        uint256 storeId,\n        address seller\n    );\n    event ProductRemoved(uint256 id, uint256 storeId, address seller);\n    event ProductUpdated(\n        uint256 id,\n        uint256 oldPrice,\n        uint256 price,\n        address seller\n    );\n    event ProductBought(\n        uint256 id,\n        uint256 quantity,\n        uint256 paid,\n        address buyer\n    );\n\n    /**\n     * @dev Throw if address not seller.\n     */\n    modifier onlySeller() {\n        require(_user.isSeller(_msgSender()), \"Store: address is not seller\");\n        _;\n    }\n\n    /**\n     * @dev Throw if store not under sender.\n     */\n    modifier onlyStoreOwner(uint256 storeId) {\n        require(\n            _sellerStores[_msgSender()].contains(storeId),\n            \"Store: not belong to sender\"\n        );\n        _;\n    }\n\n    /**\n     * @dev Throw if sender does not have store.\n     */\n    modifier hasStore() {\n        require(\n            _sellerStores[_msgSender()].length() > 0,\n            \"Store: seller no store\"\n        );\n        _;\n    }\n\n    /**\n     * @dev Initialize parent constructur.\n     */\n    function initialize(address user, address payment) public initializer {\n        require(user.isContract(), \"Store: user address is not contract\");\n        require(payment.isContract(), \"Store: payment address is not contract\");\n\n        __Context_init();\n\n        _user = User(user);\n        _payment = Payment(payment);\n    }\n\n    /**\n     * @dev Create a new store front.\n     * @param name store name\n     */\n    function open(string memory name) public onlySeller {\n        uint256 id = storeCounter.current();\n\n        if (_sellerStores[_msgSender()].add(id)) {\n            _stores[id] = StoreDetails({name: name, seller: _msgSender()});\n            storeCounter.increment();\n            emit StoreCreated(id, name, _msgSender());\n        }\n    }\n\n    /**\n     * @return number of stores for seller\n     */\n    function getStoreCount() public view returns (uint256) {\n        return _sellerStores[_msgSender()].length();\n    }\n\n    /**\n     * @param index store set element index\n     * @return store id\n     * @return store name\n     */\n    function getStore(uint256 index)\n        public\n        view\n        returns (uint256, string memory)\n    {\n        uint256 id = getStoreId(index);\n        StoreDetails storage store = _stores[id];\n        return (id, store.name);\n    }\n\n    /**\n     * @param index store set element index\n     * @return store id\n     */\n    function getStoreId(uint256 index) public view returns (uint256) {\n        return _sellerStores[_msgSender()].at(index);\n    }\n\n    /**\n     * @dev Remove a store front and products in store.\n     * @param id store id\n     */\n    function close(uint256 id) public onlySeller onlyStoreOwner(id) {\n        for (uint256 i = 0; i < _storeProducts[id].length(); i++) {\n            remove(id, getStoreProductId(id, i));\n        }\n\n        if (_sellerStores[_msgSender()].remove(id)) {\n            delete (_stores[id]);\n            emit StoreRemoved(id, _msgSender());\n        }\n    }\n\n    /**\n     * @dev Add product into store.\n     * @param name product name\n     * @param quantity product quantity\n     * @param price product price\n     * @param storeId store identifier\n     */\n    function add(\n        string memory name,\n        uint256 quantity,\n        uint256 price,\n        uint256 storeId\n    ) public onlySeller onlyStoreOwner(storeId) {\n        require(price > 0);\n        require(quantity > 0);\n\n        uint256 id = productCounter.current();\n\n        if (_storeProducts[storeId].add(id)) {\n            _products[id] = Product({\n                name: name,\n                quantity: quantity,\n                price: price,\n                storeId: storeId\n            });\n            _productList.add(id);\n            productCounter.increment();\n            emit ProductAdded(id, name, quantity, price, storeId, _msgSender());\n        }\n    }\n\n    /**\n     * @param storeId store identifier\n     * @return number of products for store\n     */\n    function getStoreProductCount(uint256 storeId)\n        public\n        view\n        returns (uint256)\n    {\n        return _storeProducts[storeId].length();\n    }\n\n    /**\n     * @param storeId store identifier\n     * @param index product set element index\n     * @return product id\n     */\n    function getStoreProductId(uint256 storeId, uint256 index)\n        public\n        view\n        returns (uint256)\n    {\n        return _storeProducts[storeId].at(index);\n    }\n\n    /**\n     * @param storeId store identifier\n     * @param index product set element index\n     * @return product information\n     */\n    function getStoreProduct(uint256 storeId, uint256 index)\n        public\n        view\n        returns (\n            uint256,\n            string memory,\n            uint256,\n            uint256,\n            uint256\n        )\n    {\n        uint256 id = getStoreProductId(storeId, index);\n        return getProduct(id);\n    }\n\n    /**\n     * @param page start index\n     * @param count number of products\n     * @return array of product ids\n     * @return prev page\n     * @return next page\n     */\n    function getProducts(uint256 page, uint256 count)\n        public\n        view\n        returns (\n            uint256[] memory,\n            uint256,\n            uint256\n        )\n    {\n        uint256[] memory productIds;\n        (uint256 start, uint256 end, uint256 prev, uint256 next) = paginate(\n            page,\n            count,\n            _productList.length()\n        );\n\n        uint256 j = 0;\n        for (uint256 i = start; i < end; i++) {\n            productIds[j] = _productList.at(i);\n            j++;\n        }\n\n        return (productIds, prev, next);\n    }\n\n    /**\n     * @param id product identifier\n     * @return product information\n     */\n    function getProduct(uint256 id)\n        public\n        view\n        returns (\n            uint256,\n            string memory,\n            uint256,\n            uint256,\n            uint256\n        )\n    {\n        Product storage product = _products[id];\n        return (\n            id,\n            product.name,\n            product.quantity,\n            product.price,\n            product.storeId\n        );\n    }\n\n    /**\n     * @dev Remove a product\n     * @param storeId store identifier\n     * @param id product identifier\n     */\n    function remove(uint256 storeId, uint256 id)\n        public\n        onlySeller\n        onlyStoreOwner(storeId)\n    {\n        if (_storeProducts[storeId].remove(id)) {\n            delete (_products[id]);\n            _productList.remove(id);\n            emit ProductRemoved(id, storeId, _msgSender());\n        }\n    }\n\n    /**\n     * @dev Update a product price\n     * @param storeId store identifier\n     * @param id product identifier\n     * @param price new product price\n     */\n    function update(\n        uint256 storeId,\n        uint256 id,\n        uint256 price\n    ) public onlySeller onlyStoreOwner(storeId) {\n        require(price > 0);\n\n        uint256 oldPrice = _products[id].price;\n        _products[id].price = price;\n\n        emit ProductUpdated(id, oldPrice, price, _msgSender());\n    }\n\n    // Buyer\n\n    /**\n     * @dev Throw if not enough value send.\n     */\n    modifier paidEnough(uint256 id, uint256 quantity) {\n        require(\n            msg.value >= _products[id].price.mul(quantity),\n            \"MarketPlace: insufficient value\"\n        );\n        _;\n    }\n\n    /**\n     * @dev Throw if not enough stock in product.\n     */\n    modifier stockEnough(uint256 id, uint256 quantity) {\n        require(\n            _products[id].quantity >= quantity,\n            \"MarketPlace: insufficient quantity\"\n        );\n        _;\n    }\n\n    /**\n     * @dev Send excess amount after substract required price.\n     */\n    modifier refundExcess(uint256 id, uint256 quantity) {\n        _;\n        uint256 paid = msg.value;\n        uint256 amountToRefund = paid.sub(_products[id].price.mul(quantity));\n        if (amountToRefund > 0) {\n            AddressUpgradeable.sendValue(_msgSender(), amountToRefund);\n        }\n    }\n\n    /**\n     * @dev Reduce product quantity after bought.\n     */\n    modifier deductStock(uint256 id, uint256 quantity) {\n        _;\n        Product storage product = _products[id];\n        product.quantity = product.quantity.sub(quantity);\n    }\n\n    /**\n     * @dev Check value and refund.\n     * @param id product identifier\n     * @param quantity number of product\n     */\n    function buy(uint256 id, uint256 quantity)\n        public\n        payable\n        paidEnough(id, quantity)\n        refundExcess(id, quantity)\n    {\n        Product storage product = _products[id];\n        uint256 total = product.price.mul(quantity);\n\n        settle(id, quantity, total);\n\n        emit ProductBought(id, quantity, total, _msgSender());\n    }\n\n    /**\n     * @dev Push payment and deduct stock.\n     * @param id product identifier\n     * @param quantity number of product\n     * @param total pruce to pay\n     */\n    function settle(\n        uint256 id,\n        uint256 quantity,\n        uint256 total\n    ) public payable stockEnough(id, quantity) deductStock(id, quantity) {\n        Product storage product = _products[id];\n\n        _payment.pay{value: total}(_stores[product.storeId].seller, total);\n    }\n\n    /* PURE */\n    // TODO: can be move to Library\n\n    /**\n     * @param page pagination based on count\n     * @param count number of items\n     * @param total list length\n     * @return start index\n     * @return end length\n     * @return prev page\n     * @return next page\n     */\n    function paginate(\n        uint256 page,\n        uint256 count,\n        uint256 total\n    )\n        internal\n        pure\n        returns (\n            uint256 start,\n            uint256 end,\n            uint256 prev,\n            uint256 next\n        )\n    {\n        start = page.mul(count);\n        end = page.add(1).mul(count);\n        next = page;\n        prev = page;\n\n        if (end > total) {\n            // Not over list length\n            end = total;\n        } else {\n            // Next only if more items.\n            next = page.add(1);\n        }\n\n        // Zero is the first page\n        if (prev > 0) {\n            prev = page.sub(1);\n        }\n    }\n}\n",
  "sourcePath": "/Users/susantowu/Projects/online-marketplace/contracts/v1/Store.sol",
  "compiler": {
    "name": "solc",
    "version": "0.6.12+commit.27d51765.Emscripten.clang"
  },
  "schemaVersion": "3.3.2",
  "updatedAt": "2020-11-25T10:23:09.201Z",
  "networkType": "ethereum",
  "devdoc": {
    "author": "Susanto Wu",
    "details": "Keep track of store, products in store.",
    "kind": "dev",
    "methods": {
      "add(string,uint256,uint256,uint256)": {
        "details": "Add product into store.",
        "params": {
          "name": "product name",
          "price": "product price",
          "quantity": "product quantity",
          "storeId": "store identifier"
        }
      },
      "buy(uint256,uint256)": {
        "details": "Check value and refund.",
        "params": {
          "id": "product identifier",
          "quantity": "number of product"
        }
      },
      "close(uint256)": {
        "details": "Remove a store front and products in store.",
        "params": {
          "id": "store id"
        }
      },
      "getProduct(uint256)": {
        "params": {
          "id": "product identifier"
        },
        "returns": {
          "_0": "product information"
        }
      },
      "getProducts(uint256,uint256)": {
        "params": {
          "count": "number of products",
          "page": "start index"
        },
        "returns": {
          "_0": "array of product ids",
          "_1": "prev page",
          "_2": "next page"
        }
      },
      "getStore(uint256)": {
        "params": {
          "index": "store set element index"
        },
        "returns": {
          "_0": "store id",
          "_1": "store name"
        }
      },
      "getStoreCount()": {
        "returns": {
          "_0": "number of stores for seller"
        }
      },
      "getStoreId(uint256)": {
        "params": {
          "index": "store set element index"
        },
        "returns": {
          "_0": "store id"
        }
      },
      "getStoreProduct(uint256,uint256)": {
        "params": {
          "index": "product set element index",
          "storeId": "store identifier"
        },
        "returns": {
          "_0": "product information"
        }
      },
      "getStoreProductCount(uint256)": {
        "params": {
          "storeId": "store identifier"
        },
        "returns": {
          "_0": "number of products for store"
        }
      },
      "getStoreProductId(uint256,uint256)": {
        "params": {
          "index": "product set element index",
          "storeId": "store identifier"
        },
        "returns": {
          "_0": "product id"
        }
      },
      "initialize(address,address)": {
        "details": "Initialize parent constructur."
      },
      "open(string)": {
        "details": "Create a new store front.",
        "params": {
          "name": "store name"
        }
      },
      "remove(uint256,uint256)": {
        "details": "Remove a product",
        "params": {
          "id": "product identifier",
          "storeId": "store identifier"
        }
      },
      "settle(uint256,uint256,uint256)": {
        "details": "Push payment and deduct stock.",
        "params": {
          "id": "product identifier",
          "quantity": "number of product",
          "total": "pruce to pay"
        }
      },
      "update(uint256,uint256,uint256)": {
        "details": "Update a product price",
        "params": {
          "id": "product identifier",
          "price": "new product price",
          "storeId": "store identifier"
        }
      }
    },
    "stateVariables": {
      "_user": {
        "details": "Required contracts."
      },
      "productCounter": {
        "details": "Store can have multiples products. - Counter to facilitate product identifier - Store Id to products list map - Product id set to facilitate pagination - Id to Product map"
      },
      "storeCounter": {
        "details": "User can own multiple stores. - Counter to facilitate store identifier - User address to stores list map - Id to Store map"
      }
    },
    "title": "MarketPlace Store",
    "version": 1
  },
  "userdoc": {
    "kind": "user",
    "methods": {},
    "version": 1
  }
}