{
  "contractName": "User",
  "abi": [
    {
      "anonymous": false,
      "inputs": [
        {
          "indexed": true,
          "internalType": "address",
          "name": "previousOwner",
          "type": "address"
        },
        {
          "indexed": true,
          "internalType": "address",
          "name": "newOwner",
          "type": "address"
        }
      ],
      "name": "OwnershipTransferred",
      "type": "event"
    },
    {
      "anonymous": false,
      "inputs": [
        {
          "indexed": true,
          "internalType": "bytes32",
          "name": "role",
          "type": "bytes32"
        },
        {
          "indexed": true,
          "internalType": "bytes32",
          "name": "previousAdminRole",
          "type": "bytes32"
        },
        {
          "indexed": true,
          "internalType": "bytes32",
          "name": "newAdminRole",
          "type": "bytes32"
        }
      ],
      "name": "RoleAdminChanged",
      "type": "event"
    },
    {
      "anonymous": false,
      "inputs": [
        {
          "indexed": true,
          "internalType": "bytes32",
          "name": "role",
          "type": "bytes32"
        },
        {
          "indexed": true,
          "internalType": "address",
          "name": "account",
          "type": "address"
        },
        {
          "indexed": true,
          "internalType": "address",
          "name": "sender",
          "type": "address"
        }
      ],
      "name": "RoleGranted",
      "type": "event"
    },
    {
      "anonymous": false,
      "inputs": [
        {
          "indexed": true,
          "internalType": "bytes32",
          "name": "role",
          "type": "bytes32"
        },
        {
          "indexed": true,
          "internalType": "address",
          "name": "account",
          "type": "address"
        },
        {
          "indexed": true,
          "internalType": "address",
          "name": "sender",
          "type": "address"
        }
      ],
      "name": "RoleRevoked",
      "type": "event"
    },
    {
      "inputs": [],
      "name": "ADMIN_ROLE",
      "outputs": [
        {
          "internalType": "bytes32",
          "name": "",
          "type": "bytes32"
        }
      ],
      "stateMutability": "view",
      "type": "function",
      "constant": true
    },
    {
      "inputs": [],
      "name": "BUYER_ROLE",
      "outputs": [
        {
          "internalType": "bytes32",
          "name": "",
          "type": "bytes32"
        }
      ],
      "stateMutability": "view",
      "type": "function",
      "constant": true
    },
    {
      "inputs": [],
      "name": "DEFAULT_ADMIN_ROLE",
      "outputs": [
        {
          "internalType": "bytes32",
          "name": "",
          "type": "bytes32"
        }
      ],
      "stateMutability": "view",
      "type": "function",
      "constant": true
    },
    {
      "inputs": [],
      "name": "SELLER_ROLE",
      "outputs": [
        {
          "internalType": "bytes32",
          "name": "",
          "type": "bytes32"
        }
      ],
      "stateMutability": "view",
      "type": "function",
      "constant": true
    },
    {
      "inputs": [
        {
          "internalType": "bytes32",
          "name": "role",
          "type": "bytes32"
        }
      ],
      "name": "getRoleAdmin",
      "outputs": [
        {
          "internalType": "bytes32",
          "name": "",
          "type": "bytes32"
        }
      ],
      "stateMutability": "view",
      "type": "function",
      "constant": true
    },
    {
      "inputs": [
        {
          "internalType": "bytes32",
          "name": "role",
          "type": "bytes32"
        },
        {
          "internalType": "uint256",
          "name": "index",
          "type": "uint256"
        }
      ],
      "name": "getRoleMember",
      "outputs": [
        {
          "internalType": "address",
          "name": "",
          "type": "address"
        }
      ],
      "stateMutability": "view",
      "type": "function",
      "constant": true
    },
    {
      "inputs": [
        {
          "internalType": "bytes32",
          "name": "role",
          "type": "bytes32"
        }
      ],
      "name": "getRoleMemberCount",
      "outputs": [
        {
          "internalType": "uint256",
          "name": "",
          "type": "uint256"
        }
      ],
      "stateMutability": "view",
      "type": "function",
      "constant": true
    },
    {
      "inputs": [
        {
          "internalType": "bytes32",
          "name": "role",
          "type": "bytes32"
        },
        {
          "internalType": "address",
          "name": "account",
          "type": "address"
        }
      ],
      "name": "grantRole",
      "outputs": [],
      "stateMutability": "nonpayable",
      "type": "function"
    },
    {
      "inputs": [
        {
          "internalType": "bytes32",
          "name": "role",
          "type": "bytes32"
        },
        {
          "internalType": "address",
          "name": "account",
          "type": "address"
        }
      ],
      "name": "hasRole",
      "outputs": [
        {
          "internalType": "bool",
          "name": "",
          "type": "bool"
        }
      ],
      "stateMutability": "view",
      "type": "function",
      "constant": true
    },
    {
      "inputs": [],
      "name": "owner",
      "outputs": [
        {
          "internalType": "address",
          "name": "",
          "type": "address"
        }
      ],
      "stateMutability": "view",
      "type": "function",
      "constant": true
    },
    {
      "inputs": [],
      "name": "renounceOwnership",
      "outputs": [],
      "stateMutability": "nonpayable",
      "type": "function"
    },
    {
      "inputs": [
        {
          "internalType": "bytes32",
          "name": "role",
          "type": "bytes32"
        },
        {
          "internalType": "address",
          "name": "account",
          "type": "address"
        }
      ],
      "name": "renounceRole",
      "outputs": [],
      "stateMutability": "nonpayable",
      "type": "function"
    },
    {
      "inputs": [
        {
          "internalType": "bytes32",
          "name": "role",
          "type": "bytes32"
        },
        {
          "internalType": "address",
          "name": "account",
          "type": "address"
        }
      ],
      "name": "revokeRole",
      "outputs": [],
      "stateMutability": "nonpayable",
      "type": "function"
    },
    {
      "inputs": [
        {
          "internalType": "address",
          "name": "newOwner",
          "type": "address"
        }
      ],
      "name": "transferOwnership",
      "outputs": [],
      "stateMutability": "nonpayable",
      "type": "function"
    },
    {
      "inputs": [],
      "name": "initialize",
      "outputs": [],
      "stateMutability": "nonpayable",
      "type": "function"
    },
    {
      "inputs": [
        {
          "internalType": "address",
          "name": "account",
          "type": "address"
        }
      ],
      "name": "addAdmin",
      "outputs": [],
      "stateMutability": "nonpayable",
      "type": "function"
    },
    {
      "inputs": [
        {
          "internalType": "address",
          "name": "account",
          "type": "address"
        }
      ],
      "name": "revokeAdmin",
      "outputs": [],
      "stateMutability": "nonpayable",
      "type": "function"
    },
    {
      "inputs": [
        {
          "internalType": "address",
          "name": "account",
          "type": "address"
        }
      ],
      "name": "addSeller",
      "outputs": [],
      "stateMutability": "nonpayable",
      "type": "function"
    },
    {
      "inputs": [
        {
          "internalType": "address",
          "name": "account",
          "type": "address"
        }
      ],
      "name": "revokeSeller",
      "outputs": [],
      "stateMutability": "nonpayable",
      "type": "function"
    },
    {
      "inputs": [
        {
          "internalType": "address",
          "name": "account",
          "type": "address"
        }
      ],
      "name": "getRole",
      "outputs": [
        {
          "internalType": "string",
          "name": "role",
          "type": "string"
        }
      ],
      "stateMutability": "view",
      "type": "function",
      "constant": true
    },
    {
      "inputs": [
        {
          "internalType": "address",
          "name": "account",
          "type": "address"
        }
      ],
      "name": "isAdmin",
      "outputs": [
        {
          "internalType": "bool",
          "name": "",
          "type": "bool"
        }
      ],
      "stateMutability": "view",
      "type": "function",
      "constant": true
    },
    {
      "inputs": [
        {
          "internalType": "address",
          "name": "account",
          "type": "address"
        }
      ],
      "name": "isSeller",
      "outputs": [
        {
          "internalType": "bool",
          "name": "",
          "type": "bool"
        }
      ],
      "stateMutability": "view",
      "type": "function",
      "constant": true
    }
  ],
  "bytecode": "0x608060405234801561001057600080fd5b50612840806100206000396000f3fe608060405234801561001057600080fd5b50600436106101425760003560e01c80638da5cb5b116100b8578063ca15c8731161007c578063ca15c87314610570578063d547741f146105b2578063d93fabfa14610600578063dbe4613d14610644578063ee95feaf14610662578063f2fde38b146106bc57610142565b80638da5cb5b146104145780639010d07c1461044857806391d14854146104aa57806396a913bf1461050e578063a217fddf1461055257610142565b8063442767331161010a57806344276733146102c35780637048027514610380578063715018a6146103c457806375b238fc146103ce5780637a01a1da146103ec5780638129fc1c1461040a57610142565b8063248a9ca31461014757806324d7806c146101895780632d345670146101e35780632f2ff15d1461022757806336568abe14610275575b600080fd5b6101736004803603602081101561015d57600080fd5b8101908080359060200190929190505050610700565b6040518082815260200191505060405180910390f35b6101cb6004803603602081101561019f57600080fd5b81019080803573ffffffffffffffffffffffffffffffffffffffff169060200190929190505050610720565b60405180821515815260200191505060405180910390f35b610225600480360360208110156101f957600080fd5b81019080803573ffffffffffffffffffffffffffffffffffffffff1690602001909291905050506107f3565b005b6102736004803603604081101561023d57600080fd5b8101908080359060200190929190803573ffffffffffffffffffffffffffffffffffffffff16906020019092919050505061096b565b005b6102c16004803603604081101561028b57600080fd5b8101908080359060200190929190803573ffffffffffffffffffffffffffffffffffffffff1690602001909291905050506109f5565b005b610305600480360360208110156102d957600080fd5b81019080803573ffffffffffffffffffffffffffffffffffffffff169060200190929190505050610a8e565b6040518080602001828103825283818151815260200191508051906020019080838360005b8381101561034557808201518184015260208101905061032a565b50505050905090810190601f1680156103725780820380516001836020036101000a031916815260200191505b509250505060405180910390f35b6103c26004803603602081101561039657600080fd5b81019080803573ffffffffffffffffffffffffffffffffffffffff169060200190929190505050610b65565b005b6103cc610cdd565b005b6103d6610e68565b6040518082815260200191505060405180910390f35b6103f4610f2c565b6040518082815260200191505060405180910390f35b610412610ff0565b005b61041c6114e3565b604051808273ffffffffffffffffffffffffffffffffffffffff16815260200191505060405180910390f35b61047e6004803603604081101561045e57600080fd5b81019080803590602001909291908035906020019092919050505061150d565b604051808273ffffffffffffffffffffffffffffffffffffffff16815260200191505060405180910390f35b6104f6600480360360408110156104c057600080fd5b8101908080359060200190929190803573ffffffffffffffffffffffffffffffffffffffff16906020019092919050505061153f565b60405180821515815260200191505060405180910390f35b6105506004803603602081101561052457600080fd5b81019080803573ffffffffffffffffffffffffffffffffffffffff169060200190929190505050611571565b005b61055a6116e9565b6040518082815260200191505060405180910390f35b61059c6004803603602081101561058657600080fd5b81019080803590602001909291905050506116f0565b6040518082815260200191505060405180910390f35b6105fe600480360360408110156105c857600080fd5b8101908080359060200190929190803573ffffffffffffffffffffffffffffffffffffffff169060200190929190505050611717565b005b6106426004803603602081101561061657600080fd5b81019080803573ffffffffffffffffffffffffffffffffffffffff1690602001909291905050506117a1565b005b61064c611919565b6040518082815260200191505060405180910390f35b6106a46004803603602081101561067857600080fd5b81019080803573ffffffffffffffffffffffffffffffffffffffff1690602001909291905050506119dd565b60405180821515815260200191505060405180910390f35b6106fe600480360360208110156106d257600080fd5b81019080803573ffffffffffffffffffffffffffffffffffffffff169060200190929190505050611ab0565b005b600060656000838152602001908152602001600020600201549050919050565b60006107ec6040518060400160405280600a81526020017f41444d494e5f524f4c45000000000000000000000000000000000000000000008152506040516020018080602001828103825283818151815260200191508051906020019080838360005b8381101561079e578082015181840152602081019050610783565b50505050905090810190601f1680156107cb5780820380516001836020036101000a031916815260200191505b5092505050604051602081830303815290604052805190602001208361153f565b9050919050565b806107fc6114e3565b73ffffffffffffffffffffffffffffffffffffffff168173ffffffffffffffffffffffffffffffffffffffff16141561089d576040517f08c379a00000000000000000000000000000000000000000000000000000000081526004018080602001828103825260168152602001807f557365723a206163636f756e74206973206f776e65720000000000000000000081525060200191505060405180910390fd5b6109676040518060400160405280600a81526020017f41444d494e5f524f4c45000000000000000000000000000000000000000000008152506040516020018080602001828103825283818151815260200191508051906020019080838360005b838110156109195780820151818401526020810190506108fe565b50505050905090810190601f1680156109465780820380516001836020036101000a031916815260200191505b50925050506040516020818303038152906040528051906020012083611717565b5050565b610992606560008481526020019081526020016000206002015461098d611cc0565b61153f565b6109e7576040517f08c379a000000000000000000000000000000000000000000000000000000000815260040180806020018281038252602f815260200180612729602f913960400191505060405180910390fd5b6109f18282611cc8565b5050565b6109fd611cc0565b73ffffffffffffffffffffffffffffffffffffffff168173ffffffffffffffffffffffffffffffffffffffff1614610a80576040517f08c379a000000000000000000000000000000000000000000000000000000000815260040180806020018281038252602f8152602001806127dc602f913960400191505060405180910390fd5b610a8a8282611d5c565b5050565b6060610a9982610720565b15610adb576040518060400160405280600a81526020017f41444d494e5f524f4c45000000000000000000000000000000000000000000008152509050610b60565b610ae4826119dd565b15610b26576040518060400160405280600b81526020017f53454c4c45525f524f4c450000000000000000000000000000000000000000008152509050610b5f565b6040518060400160405280600a81526020017f42555945525f524f4c450000000000000000000000000000000000000000000081525090505b5b919050565b80610b6e6114e3565b73ffffffffffffffffffffffffffffffffffffffff168173ffffffffffffffffffffffffffffffffffffffff161415610c0f576040517f08c379a00000000000000000000000000000000000000000000000000000000081526004018080602001828103825260168152602001807f557365723a206163636f756e74206973206f776e65720000000000000000000081525060200191505060405180910390fd5b610cd96040518060400160405280600a81526020017f41444d494e5f524f4c45000000000000000000000000000000000000000000008152506040516020018080602001828103825283818151815260200191508051906020019080838360005b83811015610c8b578082015181840152602081019050610c70565b50505050905090810190601f168015610cb85780820380516001836020036101000a031916815260200191505b5092505050604051602081830303815290604052805190602001208361096b565b5050565b610ce5611cc0565b73ffffffffffffffffffffffffffffffffffffffff16603360009054906101000a900473ffffffffffffffffffffffffffffffffffffffff1673ffffffffffffffffffffffffffffffffffffffff1614610da7576040517f08c379a00000000000000000000000000000000000000000000000000000000081526004018080602001828103825260208152602001807f4f776e61626c653a2063616c6c6572206973206e6f7420746865206f776e657281525060200191505060405180910390fd5b600073ffffffffffffffffffffffffffffffffffffffff16603360009054906101000a900473ffffffffffffffffffffffffffffffffffffffff1673ffffffffffffffffffffffffffffffffffffffff167f8be0079c531659141344cd1fd0a4f28419497f9722a3daafe3b4186f6b6457e060405160405180910390a36000603360006101000a81548173ffffffffffffffffffffffffffffffffffffffff021916908373ffffffffffffffffffffffffffffffffffffffff160217905550565b6040518060400160405280600a81526020017f41444d494e5f524f4c45000000000000000000000000000000000000000000008152506040516020018080602001828103825283818151815260200191508051906020019080838360005b83811015610ee1578082015181840152602081019050610ec6565b50505050905090810190601f168015610f0e5780820380516001836020036101000a031916815260200191505b50925050506040516020818303038152906040528051906020012081565b6040518060400160405280600a81526020017f42555945525f524f4c45000000000000000000000000000000000000000000008152506040516020018080602001828103825283818151815260200191508051906020019080838360005b83811015610fa5578082015181840152602081019050610f8a565b50505050905090810190601f168015610fd25780820380516001836020036101000a031916815260200191505b50925050506040516020818303038152906040528051906020012081565b600060019054906101000a900460ff168061100f575061100e611df0565b5b80611025575060008054906101000a900460ff16155b61107a576040517f08c379a000000000000000000000000000000000000000000000000000000000815260040180806020018281038252602e8152602001806127ae602e913960400191505060405180910390fd5b60008060019054906101000a900460ff1615905080156110ca576001600060016101000a81548160ff02191690831515021790555060016000806101000a81548160ff0219169083151502179055505b6110d2611e07565b6110da611f15565b6112646040518060400160405280600a81526020017f41444d494e5f524f4c45000000000000000000000000000000000000000000008152506040516020018080602001828103825283818151815260200191508051906020019080838360005b8381101561115657808201518184015260208101905061113b565b50505050905090810190601f1680156111835780820380516001836020036101000a031916815260200191505b5092505050604051602081830303815290604052805190602001206040518060400160405280600a81526020017f41444d494e5f524f4c45000000000000000000000000000000000000000000008152506040516020018080602001828103825283818151815260200191508051906020019080838360005b838110156112175780820151818401526020810190506111fc565b50505050905090810190601f1680156112445780820380516001836020036101000a031916815260200191505b509250505060405160208183030381529060405280519060200120612023565b6113356040518060400160405280600a81526020017f41444d494e5f524f4c45000000000000000000000000000000000000000000008152506040516020018080602001828103825283818151815260200191508051906020019080838360005b838110156112e05780820151818401526020810190506112c5565b50505050905090810190601f16801561130d5780820380516001836020036101000a031916815260200191505b5092505050604051602081830303815290604052805190602001206113306114e3565b612087565b6114bf6040518060400160405280600b81526020017f53454c4c45525f524f4c450000000000000000000000000000000000000000008152506040516020018080602001828103825283818151815260200191508051906020019080838360005b838110156113b1578082015181840152602081019050611396565b50505050905090810190601f1680156113de5780820380516001836020036101000a031916815260200191505b5092505050604051602081830303815290604052805190602001206040518060400160405280600a81526020017f41444d494e5f524f4c45000000000000000000000000000000000000000000008152506040516020018080602001828103825283818151815260200191508051906020019080838360005b83811015611472578082015181840152602081019050611457565b50505050905090810190601f16801561149f5780820380516001836020036101000a031916815260200191505b509250505060405160208183030381529060405280519060200120612023565b80156114e05760008060016101000a81548160ff0219169083151502179055505b50565b6000603360009054906101000a900473ffffffffffffffffffffffffffffffffffffffff16905090565b6000611537826065600086815260200190815260200160002060000161209590919063ffffffff16565b905092915050565b600061156982606560008681526020019081526020016000206000016120af90919063ffffffff16565b905092915050565b8061157a6114e3565b73ffffffffffffffffffffffffffffffffffffffff168173ffffffffffffffffffffffffffffffffffffffff16141561161b576040517f08c379a00000000000000000000000000000000000000000000000000000000081526004018080602001828103825260168152602001807f557365723a206163636f756e74206973206f776e65720000000000000000000081525060200191505060405180910390fd5b6116e56040518060400160405280600b81526020017f53454c4c45525f524f4c450000000000000000000000000000000000000000008152506040516020018080602001828103825283818151815260200191508051906020019080838360005b8381101561169757808201518184015260208101905061167c565b50505050905090810190601f1680156116c45780820380516001836020036101000a031916815260200191505b50925050506040516020818303038152906040528051906020012083611717565b5050565b6000801b81565b6000611710606560008481526020019081526020016000206000016120df565b9050919050565b61173e6065600084815260200190815260200160002060020154611739611cc0565b61153f565b611793576040517f08c379a000000000000000000000000000000000000000000000000000000000815260040180806020018281038252603081526020018061277e6030913960400191505060405180910390fd5b61179d8282611d5c565b5050565b806117aa6114e3565b73ffffffffffffffffffffffffffffffffffffffff168173ffffffffffffffffffffffffffffffffffffffff16141561184b576040517f08c379a00000000000000000000000000000000000000000000000000000000081526004018080602001828103825260168152602001807f557365723a206163636f756e74206973206f776e65720000000000000000000081525060200191505060405180910390fd5b6119156040518060400160405280600b81526020017f53454c4c45525f524f4c450000000000000000000000000000000000000000008152506040516020018080602001828103825283818151815260200191508051906020019080838360005b838110156118c75780820151818401526020810190506118ac565b50505050905090810190601f1680156118f45780820380516001836020036101000a031916815260200191505b5092505050604051602081830303815290604052805190602001208361096b565b5050565b6040518060400160405280600b81526020017f53454c4c45525f524f4c450000000000000000000000000000000000000000008152506040516020018080602001828103825283818151815260200191508051906020019080838360005b83811015611992578082015181840152602081019050611977565b50505050905090810190601f1680156119bf5780820380516001836020036101000a031916815260200191505b50925050506040516020818303038152906040528051906020012081565b6000611aa96040518060400160405280600b81526020017f53454c4c45525f524f4c450000000000000000000000000000000000000000008152506040516020018080602001828103825283818151815260200191508051906020019080838360005b83811015611a5b578082015181840152602081019050611a40565b50505050905090810190601f168015611a885780820380516001836020036101000a031916815260200191505b5092505050604051602081830303815290604052805190602001208361153f565b9050919050565b611ab8611cc0565b73ffffffffffffffffffffffffffffffffffffffff16603360009054906101000a900473ffffffffffffffffffffffffffffffffffffffff1673ffffffffffffffffffffffffffffffffffffffff1614611b7a576040517f08c379a00000000000000000000000000000000000000000000000000000000081526004018080602001828103825260208152602001807f4f776e61626c653a2063616c6c6572206973206e6f7420746865206f776e657281525060200191505060405180910390fd5b600073ffffffffffffffffffffffffffffffffffffffff168173ffffffffffffffffffffffffffffffffffffffff161415611c00576040517f08c379a00000000000000000000000000000000000000000000000000000000081526004018080602001828103825260268152602001806127586026913960400191505060405180910390fd5b8073ffffffffffffffffffffffffffffffffffffffff16603360009054906101000a900473ffffffffffffffffffffffffffffffffffffffff1673ffffffffffffffffffffffffffffffffffffffff167f8be0079c531659141344cd1fd0a4f28419497f9722a3daafe3b4186f6b6457e060405160405180910390a380603360006101000a81548173ffffffffffffffffffffffffffffffffffffffff021916908373ffffffffffffffffffffffffffffffffffffffff16021790555050565b600033905090565b611cf081606560008581526020019081526020016000206000016120f490919063ffffffff16565b15611d5857611cfd611cc0565b73ffffffffffffffffffffffffffffffffffffffff168173ffffffffffffffffffffffffffffffffffffffff16837f2f8788117e7eff1d82e926ec794901d17c78024a50270940304540a733656f0d60405160405180910390a45b5050565b611d84816065600085815260200190815260200160002060000161212490919063ffffffff16565b15611dec57611d91611cc0565b73ffffffffffffffffffffffffffffffffffffffff168173ffffffffffffffffffffffffffffffffffffffff16837ff6391f5c32d9c69d2a47ea670b442974b53935d1edc7fd64eb21e047a839171b60405160405180910390a45b5050565b6000803090506000813b9050600081149250505090565b600060019054906101000a900460ff1680611e265750611e25611df0565b5b80611e3c575060008054906101000a900460ff16155b611e91576040517f08c379a000000000000000000000000000000000000000000000000000000000815260040180806020018281038252602e8152602001806127ae602e913960400191505060405180910390fd5b60008060019054906101000a900460ff161590508015611ee1576001600060016101000a81548160ff02191690831515021790555060016000806101000a81548160ff0219169083151502179055505b611ee9612154565b611ef1612252565b8015611f125760008060016101000a81548160ff0219169083151502179055505b50565b600060019054906101000a900460ff1680611f345750611f33611df0565b5b80611f4a575060008054906101000a900460ff16155b611f9f576040517f08c379a000000000000000000000000000000000000000000000000000000000815260040180806020018281038252602e8152602001806127ae602e913960400191505060405180910390fd5b60008060019054906101000a900460ff161590508015611fef576001600060016101000a81548160ff02191690831515021790555060016000806101000a81548160ff0219169083151502179055505b611ff7612154565b611fff6123f9565b80156120205760008060016101000a81548160ff0219169083151502179055505b50565b806065600084815260200190815260200160002060020154837fbd79b86ffe0ab8e8776151514217cd7cacd52c909f66475c3af44e129f0b00ff60405160405180910390a48060656000848152602001908152602001600020600201819055505050565b6120918282611cc8565b5050565b60006120a483600001836124f7565b60001c905092915050565b60006120d7836000018373ffffffffffffffffffffffffffffffffffffffff1660001b61257a565b905092915050565b60006120ed8260000161259d565b9050919050565b600061211c836000018373ffffffffffffffffffffffffffffffffffffffff1660001b6125ae565b905092915050565b600061214c836000018373ffffffffffffffffffffffffffffffffffffffff1660001b61261e565b905092915050565b600060019054906101000a900460ff16806121735750612172611df0565b5b80612189575060008054906101000a900460ff16155b6121de576040517f08c379a000000000000000000000000000000000000000000000000000000000815260040180806020018281038252602e8152602001806127ae602e913960400191505060405180910390fd5b60008060019054906101000a900460ff16159050801561222e576001600060016101000a81548160ff02191690831515021790555060016000806101000a81548160ff0219169083151502179055505b801561224f5760008060016101000a81548160ff0219169083151502179055505b50565b600060019054906101000a900460ff16806122715750612270611df0565b5b80612287575060008054906101000a900460ff16155b6122dc576040517f08c379a000000000000000000000000000000000000000000000000000000000815260040180806020018281038252602e8152602001806127ae602e913960400191505060405180910390fd5b60008060019054906101000a900460ff16159050801561232c576001600060016101000a81548160ff02191690831515021790555060016000806101000a81548160ff0219169083151502179055505b6000612336611cc0565b905080603360006101000a81548173ffffffffffffffffffffffffffffffffffffffff021916908373ffffffffffffffffffffffffffffffffffffffff1602179055508073ffffffffffffffffffffffffffffffffffffffff16600073ffffffffffffffffffffffffffffffffffffffff167f8be0079c531659141344cd1fd0a4f28419497f9722a3daafe3b4186f6b6457e060405160405180910390a35080156123f65760008060016101000a81548160ff0219169083151502179055505b50565b600060019054906101000a900460ff16806124185750612417611df0565b5b8061242e575060008054906101000a900460ff16155b612483576040517f08c379a000000000000000000000000000000000000000000000000000000000815260040180806020018281038252602e8152602001806127ae602e913960400191505060405180910390fd5b60008060019054906101000a900460ff1615905080156124d3576001600060016101000a81548160ff02191690831515021790555060016000806101000a81548160ff0219169083151502179055505b80156124f45760008060016101000a81548160ff0219169083151502179055505b50565b600081836000018054905011612558576040517f08c379a00000000000000000000000000000000000000000000000000000000081526004018080602001828103825260228152602001806127076022913960400191505060405180910390fd5b82600001828154811061256757fe5b9060005260206000200154905092915050565b600080836001016000848152602001908152602001600020541415905092915050565b600081600001805490509050919050565b60006125ba838361257a565b612613578260000182908060018154018082558091505060019003906000526020600020016000909190919091505582600001805490508360010160008481526020019081526020016000208190555060019050612618565b600090505b92915050565b600080836001016000848152602001908152602001600020549050600081146126fa576000600182039050600060018660000180549050039050600086600001828154811061266957fe5b906000526020600020015490508087600001848154811061268657fe5b90600052602060002001819055506001830187600101600083815260200190815260200160002081905550866000018054806126be57fe5b60019003818190600052602060002001600090559055866001016000878152602001908152602001600020600090556001945050505050612700565b60009150505b9291505056fe456e756d657261626c655365743a20696e646578206f7574206f6620626f756e6473416363657373436f6e74726f6c3a2073656e646572206d75737420626520616e2061646d696e20746f206772616e744f776e61626c653a206e6577206f776e657220697320746865207a65726f2061646472657373416363657373436f6e74726f6c3a2073656e646572206d75737420626520616e2061646d696e20746f207265766f6b65496e697469616c697a61626c653a20636f6e747261637420697320616c726561647920696e697469616c697a6564416363657373436f6e74726f6c3a2063616e206f6e6c792072656e6f756e636520726f6c657320666f722073656c66a2646970667358221220ad448db9f090878f15848bcd57eec2eefcb806393bc34489b9639b155cf963b064736f6c634300060c0033",
  "immutableReferences": {},
  "source": "// SPDX-License-Identifier: MIT\npragma solidity ^0.6.0;\n\nimport \"@openzeppelin/contracts-upgradeable/proxy/Initializable.sol\";\nimport \"@openzeppelin/contracts-upgradeable/access/OwnableUpgradeable.sol\";\nimport \"@openzeppelin/contracts-upgradeable/access/AccessControlUpgradeable.sol\";\n\n/**\n * @title MarketPlace User\n * @author Susanto Wu\n * @dev Manage all users relations and permissions\n */\ncontract User is Initializable, OwnableUpgradeable, AccessControlUpgradeable {\n    string private constant ADMIN_STRING = \"ADMIN_ROLE\";\n    string private constant SELLER_STRING = \"SELLER_ROLE\";\n    string private constant BUYER_STRING = \"BUYER_ROLE\";\n\n    /**\n     * @dev Available roles:\n     * - Admin: to manage seller.\n     * - Seller: to manage stores and products.\n     */\n    bytes32 public constant ADMIN_ROLE = keccak256(abi.encode(ADMIN_STRING));\n    bytes32 public constant SELLER_ROLE = keccak256(abi.encode(SELLER_STRING));\n    bytes32 public constant BUYER_ROLE = keccak256(abi.encode(BUYER_STRING));\n\n    /**\n     * @dev Initialize Ownable constructur to set deployer as owner,\n     * setup initial AccessControl permissions.\n     */\n    function initialize() public initializer {\n        __Ownable_init();\n        __AccessControl_init();\n\n        // Admin can manage each other.\n        _setRoleAdmin(ADMIN_ROLE, ADMIN_ROLE);\n        _setupRole(ADMIN_ROLE, owner());\n\n        // Admin can manage Seller.\n        _setRoleAdmin(SELLER_ROLE, ADMIN_ROLE);\n    }\n\n    /**\n     * @dev Throw if function call with owner account.\n     */\n    modifier accountNotOwner(address account) {\n        require(account != owner(), \"User: account is owner\");\n        _;\n    }\n\n    /**\n     * @dev Throw if function call with non admin account.\n     */\n    modifier onlyAdmin() {\n        require(isAdmin(_msgSender()), \"User: address is not allowed\");\n        _;\n    }\n\n    /**\n     * @dev Add `ADMIN_ROLE` user, will not exposed to UI.\n     */\n    function addAdmin(address account) public accountNotOwner(account) {\n        grantRole(ADMIN_ROLE, account);\n    }\n\n    /**\n     * @dev Revoke `ADMIN_ROLE` user, will not exposed to UI.\n     */\n    function revokeAdmin(address account) public accountNotOwner(account) {\n        revokeRole(ADMIN_ROLE, account);\n    }\n\n    /**\n     * @dev Add `SELLER_ROLE` user.\n     */\n    function addSeller(address account) public accountNotOwner(account) {\n        grantRole(SELLER_ROLE, account);\n    }\n\n    /**\n     * @dev Revoke `SELLER_ROLE` user.\n     */\n    function revokeSeller(address account) public accountNotOwner(account) {\n        revokeRole(SELLER_ROLE, account);\n    }\n\n    /**\n     * @dev Return true if account is admin, false otherwise.\n     */\n    function getRole(address account) public view returns (string memory role) {\n        if (isAdmin(account)) {\n            role = ADMIN_STRING;\n        } else if (isSeller(account)) {\n            role = SELLER_STRING;\n        } else {\n            role = BUYER_STRING;\n        }\n    }\n\n    /**\n     * @dev Return true if account is admin, false otherwise.\n     */\n    function isAdmin(address account) public view returns (bool) {\n        return hasRole(ADMIN_ROLE, account);\n    }\n\n    /**\n     * @dev Return true if account is seller, false otherwise.\n     */\n    function isSeller(address account) public view returns (bool) {\n        return hasRole(SELLER_ROLE, account);\n    }\n}\n",
  "sourcePath": "/Users/susantowu/Projects/online-marketplace/contracts/v1/User.sol",
  "compiler": {
    "name": "solc",
    "version": "0.6.12+commit.27d51765.Emscripten.clang"
  },
  "schemaVersion": "3.3.2",
  "updatedAt": "2020-11-25T15:26:26.529Z",
  "networkType": "ethereum",
  "devdoc": {
    "author": "Susanto Wu",
    "details": "Manage all users relations and permissions",
    "kind": "dev",
    "methods": {
      "addAdmin(address)": {
        "details": "Add `ADMIN_ROLE` user, will not exposed to UI."
      },
      "addSeller(address)": {
        "details": "Add `SELLER_ROLE` user."
      },
      "getRole(address)": {
        "details": "Return true if account is admin, false otherwise."
      },
      "getRoleAdmin(bytes32)": {
        "details": "Returns the admin role that controls `role`. See {grantRole} and {revokeRole}. To change a role's admin, use {_setRoleAdmin}."
      },
      "getRoleMember(bytes32,uint256)": {
        "details": "Returns one of the accounts that have `role`. `index` must be a value between 0 and {getRoleMemberCount}, non-inclusive. Role bearers are not sorted in any particular way, and their ordering may change at any point. WARNING: When using {getRoleMember} and {getRoleMemberCount}, make sure you perform all queries on the same block. See the following https://forum.openzeppelin.com/t/iterating-over-elements-on-enumerableset-in-openzeppelin-contracts/2296[forum post] for more information."
      },
      "getRoleMemberCount(bytes32)": {
        "details": "Returns the number of accounts that have `role`. Can be used together with {getRoleMember} to enumerate all bearers of a role."
      },
      "grantRole(bytes32,address)": {
        "details": "Grants `role` to `account`. If `account` had not been already granted `role`, emits a {RoleGranted} event. Requirements: - the caller must have ``role``'s admin role."
      },
      "hasRole(bytes32,address)": {
        "details": "Returns `true` if `account` has been granted `role`."
      },
      "initialize()": {
        "details": "Initialize Ownable constructur to set deployer as owner, setup initial AccessControl permissions."
      },
      "isAdmin(address)": {
        "details": "Return true if account is admin, false otherwise."
      },
      "isSeller(address)": {
        "details": "Return true if account is seller, false otherwise."
      },
      "owner()": {
        "details": "Returns the address of the current owner."
      },
      "renounceOwnership()": {
        "details": "Leaves the contract without owner. It will not be possible to call `onlyOwner` functions anymore. Can only be called by the current owner. NOTE: Renouncing ownership will leave the contract without an owner, thereby removing any functionality that is only available to the owner."
      },
      "renounceRole(bytes32,address)": {
        "details": "Revokes `role` from the calling account. Roles are often managed via {grantRole} and {revokeRole}: this function's purpose is to provide a mechanism for accounts to lose their privileges if they are compromised (such as when a trusted device is misplaced). If the calling account had been granted `role`, emits a {RoleRevoked} event. Requirements: - the caller must be `account`."
      },
      "revokeAdmin(address)": {
        "details": "Revoke `ADMIN_ROLE` user, will not exposed to UI."
      },
      "revokeRole(bytes32,address)": {
        "details": "Revokes `role` from `account`. If `account` had been granted `role`, emits a {RoleRevoked} event. Requirements: - the caller must have ``role``'s admin role."
      },
      "revokeSeller(address)": {
        "details": "Revoke `SELLER_ROLE` user."
      },
      "transferOwnership(address)": {
        "details": "Transfers ownership of the contract to a new account (`newOwner`). Can only be called by the current owner."
      }
    },
    "stateVariables": {
      "ADMIN_ROLE": {
        "details": "Available roles: - Admin: to manage seller. - Seller: to manage stores and products."
      }
    },
    "title": "MarketPlace User",
    "version": 1
  },
  "userdoc": {
    "kind": "user",
    "methods": {},
    "version": 1
  }
}